{
  "_format": "hh-sol-artifact-1",
  "contractName": "SVGNFT",
  "sourceName": "contracts/SVGNFT.sol",
  "abi": [
    {
      "inputs": [
        {
          "internalType": "address",
          "name": "_VRFCoordinator",
          "type": "address"
        },
        {
          "internalType": "address",
          "name": "_linkToken",
          "type": "address"
        },
        {
          "internalType": "bytes32",
          "name": "_keyhash",
          "type": "bytes32"
        },
        {
          "internalType": "uint256",
          "name": "_fee",
          "type": "uint256"
        }
      ],
      "stateMutability": "nonpayable",
      "type": "constructor"
    },
    {
      "anonymous": false,
      "inputs": [
        {
          "indexed": true,
          "internalType": "address",
          "name": "owner",
          "type": "address"
        },
        {
          "indexed": true,
          "internalType": "address",
          "name": "approved",
          "type": "address"
        },
        {
          "indexed": true,
          "internalType": "uint256",
          "name": "tokenId",
          "type": "uint256"
        }
      ],
      "name": "Approval",
      "type": "event"
    },
    {
      "anonymous": false,
      "inputs": [
        {
          "indexed": true,
          "internalType": "address",
          "name": "owner",
          "type": "address"
        },
        {
          "indexed": true,
          "internalType": "address",
          "name": "operator",
          "type": "address"
        },
        {
          "indexed": false,
          "internalType": "bool",
          "name": "approved",
          "type": "bool"
        }
      ],
      "name": "ApprovalForAll",
      "type": "event"
    },
    {
      "anonymous": false,
      "inputs": [
        {
          "indexed": true,
          "internalType": "uint256",
          "name": "tokenId",
          "type": "uint256"
        },
        {
          "indexed": false,
          "internalType": "string",
          "name": "tokenURI",
          "type": "string"
        }
      ],
      "name": "CreatedNFT",
      "type": "event"
    },
    {
      "anonymous": false,
      "inputs": [
        {
          "indexed": true,
          "internalType": "uint256",
          "name": "tokenId",
          "type": "uint256"
        },
        {
          "indexed": false,
          "internalType": "uint256",
          "name": "randomNumber",
          "type": "uint256"
        }
      ],
      "name": "CreatedUnfinishedRandomSVG",
      "type": "event"
    },
    {
      "anonymous": false,
      "inputs": [
        {
          "indexed": true,
          "internalType": "address",
          "name": "from",
          "type": "address"
        },
        {
          "indexed": true,
          "internalType": "address",
          "name": "to",
          "type": "address"
        },
        {
          "indexed": true,
          "internalType": "uint256",
          "name": "tokenId",
          "type": "uint256"
        }
      ],
      "name": "Transfer",
      "type": "event"
    },
    {
      "anonymous": false,
      "inputs": [
        {
          "indexed": true,
          "internalType": "bytes32",
          "name": "requestId",
          "type": "bytes32"
        },
        {
          "indexed": true,
          "internalType": "uint256",
          "name": "tokenId",
          "type": "uint256"
        }
      ],
      "name": "requestedRandomSVG",
      "type": "event"
    },
    {
      "inputs": [
        {
          "internalType": "address",
          "name": "to",
          "type": "address"
        },
        {
          "internalType": "uint256",
          "name": "tokenId",
          "type": "uint256"
        }
      ],
      "name": "approve",
      "outputs": [],
      "stateMutability": "nonpayable",
      "type": "function"
    },
    {
      "inputs": [
        {
          "internalType": "address",
          "name": "owner",
          "type": "address"
        }
      ],
      "name": "balanceOf",
      "outputs": [
        {
          "internalType": "uint256",
          "name": "",
          "type": "uint256"
        }
      ],
      "stateMutability": "view",
      "type": "function"
    },
    {
      "inputs": [
        {
          "internalType": "uint256",
          "name": "",
          "type": "uint256"
        }
      ],
      "name": "colors",
      "outputs": [
        {
          "internalType": "string",
          "name": "",
          "type": "string"
        }
      ],
      "stateMutability": "view",
      "type": "function"
    },
    {
      "inputs": [],
      "name": "create",
      "outputs": [
        {
          "internalType": "bytes32",
          "name": "requestId",
          "type": "bytes32"
        }
      ],
      "stateMutability": "payable",
      "type": "function"
    },
    {
      "inputs": [],
      "name": "fee",
      "outputs": [
        {
          "internalType": "uint256",
          "name": "",
          "type": "uint256"
        }
      ],
      "stateMutability": "view",
      "type": "function"
    },
    {
      "inputs": [
        {
          "internalType": "uint256",
          "name": "tokenId",
          "type": "uint256"
        }
      ],
      "name": "getApproved",
      "outputs": [
        {
          "internalType": "address",
          "name": "",
          "type": "address"
        }
      ],
      "stateMutability": "view",
      "type": "function"
    },
    {
      "inputs": [
        {
          "internalType": "address",
          "name": "owner",
          "type": "address"
        },
        {
          "internalType": "address",
          "name": "operator",
          "type": "address"
        }
      ],
      "name": "isApprovedForAll",
      "outputs": [
        {
          "internalType": "bool",
          "name": "",
          "type": "bool"
        }
      ],
      "stateMutability": "view",
      "type": "function"
    },
    {
      "inputs": [],
      "name": "keyHash",
      "outputs": [
        {
          "internalType": "bytes32",
          "name": "",
          "type": "bytes32"
        }
      ],
      "stateMutability": "view",
      "type": "function"
    },
    {
      "inputs": [],
      "name": "maxPathCommands",
      "outputs": [
        {
          "internalType": "uint256",
          "name": "",
          "type": "uint256"
        }
      ],
      "stateMutability": "view",
      "type": "function"
    },
    {
      "inputs": [],
      "name": "maxPaths",
      "outputs": [
        {
          "internalType": "uint256",
          "name": "",
          "type": "uint256"
        }
      ],
      "stateMutability": "view",
      "type": "function"
    },
    {
      "inputs": [],
      "name": "name",
      "outputs": [
        {
          "internalType": "string",
          "name": "",
          "type": "string"
        }
      ],
      "stateMutability": "view",
      "type": "function"
    },
    {
      "inputs": [
        {
          "internalType": "uint256",
          "name": "tokenId",
          "type": "uint256"
        }
      ],
      "name": "ownerOf",
      "outputs": [
        {
          "internalType": "address",
          "name": "",
          "type": "address"
        }
      ],
      "stateMutability": "view",
      "type": "function"
    },
    {
      "inputs": [
        {
          "internalType": "uint256",
          "name": "",
          "type": "uint256"
        }
      ],
      "name": "pathCommands",
      "outputs": [
        {
          "internalType": "string",
          "name": "",
          "type": "string"
        }
      ],
      "stateMutability": "view",
      "type": "function"
    },
    {
      "inputs": [],
      "name": "price",
      "outputs": [
        {
          "internalType": "uint256",
          "name": "",
          "type": "uint256"
        }
      ],
      "stateMutability": "view",
      "type": "function"
    },
    {
      "inputs": [
        {
          "internalType": "bytes32",
          "name": "requestId",
          "type": "bytes32"
        },
        {
          "internalType": "uint256",
          "name": "randomness",
          "type": "uint256"
        }
      ],
      "name": "rawFulfillRandomness",
      "outputs": [],
      "stateMutability": "nonpayable",
      "type": "function"
    },
    {
      "inputs": [
        {
          "internalType": "address",
          "name": "from",
          "type": "address"
        },
        {
          "internalType": "address",
          "name": "to",
          "type": "address"
        },
        {
          "internalType": "uint256",
          "name": "tokenId",
          "type": "uint256"
        }
      ],
      "name": "safeTransferFrom",
      "outputs": [],
      "stateMutability": "nonpayable",
      "type": "function"
    },
    {
      "inputs": [
        {
          "internalType": "address",
          "name": "from",
          "type": "address"
        },
        {
          "internalType": "address",
          "name": "to",
          "type": "address"
        },
        {
          "internalType": "uint256",
          "name": "tokenId",
          "type": "uint256"
        },
        {
          "internalType": "bytes",
          "name": "_data",
          "type": "bytes"
        }
      ],
      "name": "safeTransferFrom",
      "outputs": [],
      "stateMutability": "nonpayable",
      "type": "function"
    },
    {
      "inputs": [
        {
          "internalType": "address",
          "name": "operator",
          "type": "address"
        },
        {
          "internalType": "bool",
          "name": "approved",
          "type": "bool"
        }
      ],
      "name": "setApprovalForAll",
      "outputs": [],
      "stateMutability": "nonpayable",
      "type": "function"
    },
    {
      "inputs": [],
      "name": "size",
      "outputs": [
        {
          "internalType": "uint256",
          "name": "",
          "type": "uint256"
        }
      ],
      "stateMutability": "view",
      "type": "function"
    },
    {
      "inputs": [
        {
          "internalType": "bytes4",
          "name": "interfaceId",
          "type": "bytes4"
        }
      ],
      "name": "supportsInterface",
      "outputs": [
        {
          "internalType": "bool",
          "name": "",
          "type": "bool"
        }
      ],
      "stateMutability": "view",
      "type": "function"
    },
    {
      "inputs": [],
      "name": "symbol",
      "outputs": [
        {
          "internalType": "string",
          "name": "",
          "type": "string"
        }
      ],
      "stateMutability": "view",
      "type": "function"
    },
    {
      "inputs": [
        {
          "internalType": "uint256",
          "name": "index",
          "type": "uint256"
        }
      ],
      "name": "tokenByIndex",
      "outputs": [
        {
          "internalType": "uint256",
          "name": "",
          "type": "uint256"
        }
      ],
      "stateMutability": "view",
      "type": "function"
    },
    {
      "inputs": [
        {
          "internalType": "address",
          "name": "owner",
          "type": "address"
        },
        {
          "internalType": "uint256",
          "name": "index",
          "type": "uint256"
        }
      ],
      "name": "tokenOfOwnerByIndex",
      "outputs": [
        {
          "internalType": "uint256",
          "name": "",
          "type": "uint256"
        }
      ],
      "stateMutability": "view",
      "type": "function"
    },
    {
      "inputs": [
        {
          "internalType": "uint256",
          "name": "tokenId",
          "type": "uint256"
        }
      ],
      "name": "tokenURI",
      "outputs": [
        {
          "internalType": "string",
          "name": "",
          "type": "string"
        }
      ],
      "stateMutability": "view",
      "type": "function"
    },
    {
      "inputs": [],
      "name": "totalSupply",
      "outputs": [
        {
          "internalType": "uint256",
          "name": "",
          "type": "uint256"
        }
      ],
      "stateMutability": "view",
      "type": "function"
    },
    {
      "inputs": [
        {
          "internalType": "address",
          "name": "from",
          "type": "address"
        },
        {
          "internalType": "address",
          "name": "to",
          "type": "address"
        },
        {
          "internalType": "uint256",
          "name": "tokenId",
          "type": "uint256"
        }
      ],
      "name": "transferFrom",
      "outputs": [],
      "stateMutability": "nonpayable",
      "type": "function"
    }
  ],
  "bytecode": "0x6101206040523480156200001257600080fd5b50604051620045d4380380620045d48339818101604052810190620000389190620005c0565b83836040518060400160405280600981526020017f52616e646f6d53564700000000000000000000000000000000000000000000008152506040518060400160405280600581526020017f52535647200000000000000000000000000000000000000000000000000000008152508160009080519060200190620000be9291906200038f565b508060019080519060200190620000d79291906200038f565b5050508173ffffffffffffffffffffffffffffffffffffffff1660a08173ffffffffffffffffffffffffffffffffffffffff1660601b815250508073ffffffffffffffffffffffffffffffffffffffff1660808173ffffffffffffffffffffffffffffffffffffffff1660601b81525050505080600d8190555081600c81905550600a60c08181525050600560e081815250506101f4610100818152505060405180604001604052806040518060400160405280600181526020017f4d0000000000000000000000000000000000000000000000000000000000000081525081526020016040518060400160405280600181526020017f4c00000000000000000000000000000000000000000000000000000000000000815250815250600e9060026200020692919062000420565b506040518060c001604052806040518060400160405280600381526020017f726564000000000000000000000000000000000000000000000000000000000081525081526020016040518060400160405280600481526020017f626c75650000000000000000000000000000000000000000000000000000000081525081526020016040518060400160405280600581526020017f677265656e00000000000000000000000000000000000000000000000000000081525081526020016040518060400160405280600681526020017f79656c6c6f77000000000000000000000000000000000000000000000000000081525081526020016040518060400160405280600581526020017f626c61636b00000000000000000000000000000000000000000000000000000081525081526020016040518060400160405280600581526020017f7768697465000000000000000000000000000000000000000000000000000000815250815250600f9060066200038492919062000487565b505050505062000727565b8280546200039d9062000674565b90600052602060002090601f016020900481019282620003c157600085556200040d565b82601f10620003dc57805160ff19168380011785556200040d565b828001600101855582156200040d579182015b828111156200040c578251825591602001919060010190620003ef565b5b5090506200041c9190620004ee565b5090565b82805482825590600052602060002090810192821562000474579160200282015b8281111562000473578251829080519060200190620004629291906200038f565b509160200191906001019062000441565b5b5090506200048391906200050d565b5090565b828054828255906000526020600020908101928215620004db579160200282015b82811115620004da578251829080519060200190620004c99291906200038f565b5091602001919060010190620004a8565b5b509050620004ea91906200050d565b5090565b5b8082111562000509576000816000905550600101620004ef565b5090565b5b8082111562000531576000818162000527919062000535565b506001016200050e565b5090565b508054620005439062000674565b6000825580601f1062000557575062000578565b601f016020900490600052602060002090810190620005779190620004ee565b5b50565b6000815190506200058c81620006d9565b92915050565b600081519050620005a381620006f3565b92915050565b600081519050620005ba816200070d565b92915050565b60008060008060808587031215620005d757600080fd5b6000620005e7878288016200057b565b9450506020620005fa878288016200057b565b93505060406200060d8782880162000592565b92505060606200062087828801620005a9565b91505092959194509250565b600062000639826200064a565b9050919050565b6000819050919050565b600073ffffffffffffffffffffffffffffffffffffffff82169050919050565b6000819050919050565b600060028204905060018216806200068d57607f821691505b60208210811415620006a457620006a3620006aa565b5b50919050565b7f4e487b7100000000000000000000000000000000000000000000000000000000600052602260045260246000fd5b620006e4816200062c565b8114620006f057600080fd5b50565b620006fe8162000640565b81146200070a57600080fd5b50565b62000718816200066a565b81146200072457600080fd5b50565b60805160601c60a05160601c60c05160e05161010051613e5b620007796000396000610e1c0152600061120501526000610681015260008181610d800152611cad01526000611c710152613e5b6000f3fe6080604052600436106101815760003560e01c806394985ddd116100d1578063b88d4fde1161008a578063ddca3f4311610064578063ddca3f43146105ce578063df9bcd24146105f9578063e985e9c514610624578063efc81a8c1461066157610181565b8063b88d4fde1461052b578063bd11f69d14610554578063c87b56dd1461059157610181565b806394985ddd1461041b578063949d225d14610444578063955968d41461046f57806395d89b41146104ac578063a035b1fe146104d7578063a22cb4651461050257610181565b806323b872dd1161013e5780634f6ccce7116101185780634f6ccce71461033957806361728f39146103765780636352211e146103a157806370a08231146103de57610181565b806323b872dd146102aa5780632f745c59146102d357806342842e0e1461031057610181565b806301f920c61461018657806301ffc9a7146101b157806306fdde03146101ee578063081812fc14610219578063095ea7b31461025657806318160ddd1461027f575b600080fd5b34801561019257600080fd5b5061019b61067f565b6040516101a89190613457565b60405180910390f35b3480156101bd57600080fd5b506101d860048036038101906101d39190612bae565b6106a3565b6040516101e591906130f6565b60405180910390f35b3480156101fa57600080fd5b50610203610816565b60405161021091906131b5565b60405180910390f35b34801561022557600080fd5b50610240600480360381019061023b9190612c00565b6108a8565b60405161024d9190613051565b60405180910390f35b34801561026257600080fd5b5061027d60048036038101906102789190612b0d565b61092d565b005b34801561028b57600080fd5b50610294610a45565b6040516102a19190613457565b60405180910390f35b3480156102b657600080fd5b506102d160048036038101906102cc9190612a07565b610a52565b005b3480156102df57600080fd5b506102fa60048036038101906102f59190612b0d565b610ab2565b6040516103079190613457565b60405180910390f35b34801561031c57600080fd5b5061033760048036038101906103329190612a07565b610b57565b005b34801561034557600080fd5b50610360600480360381019061035b9190612c00565b610b77565b60405161036d9190613457565b60405180910390f35b34801561038257600080fd5b5061038b610c0e565b6040516103989190613111565b60405180910390f35b3480156103ad57600080fd5b506103c860048036038101906103c39190612c00565b610c14565b6040516103d59190613051565b60405180910390f35b3480156103ea57600080fd5b50610405600480360381019061040091906129a2565b610cc6565b6040516104129190613457565b60405180910390f35b34801561042757600080fd5b50610442600480360381019061043d9190612b72565b610d7e565b005b34801561045057600080fd5b50610459610e1a565b6040516104669190613457565b60405180910390f35b34801561047b57600080fd5b5061049660048036038101906104919190612c00565b610e3e565b6040516104a391906131b5565b60405180910390f35b3480156104b857600080fd5b506104c1610eea565b6040516104ce91906131b5565b60405180910390f35b3480156104e357600080fd5b506104ec610f7c565b6040516104f99190613457565b60405180910390f35b34801561050e57600080fd5b5061052960048036038101906105249190612ad1565b610f87565b005b34801561053757600080fd5b50610552600480360381019061054d9190612a56565b610f9d565b005b34801561056057600080fd5b5061057b60048036038101906105769190612c00565b610fff565b60405161058891906131b5565b60405180910390f35b34801561059d57600080fd5b506105b860048036038101906105b39190612c00565b6110ab565b6040516105c591906131b5565b60405180910390f35b3480156105da57600080fd5b506105e36111fd565b6040516105f09190613457565b60405180910390f35b34801561060557600080fd5b5061060e611203565b60405161061b9190613457565b60405180910390f35b34801561063057600080fd5b5061064b600480360381019061064691906129cb565b611227565b60405161065891906130f6565b60405180910390f35b6106696112bb565b6040516106769190613111565b60405180910390f35b7f000000000000000000000000000000000000000000000000000000000000000081565b60006106ce7f780e9d63000000000000000000000000000000000000000000000000000000006113bf565b7f80ac58cd000000000000000000000000000000000000000000000000000000007bffffffffffffffffffffffffffffffffffffffffffffffffffffffff1916827bffffffffffffffffffffffffffffffffffffffffffffffffffffffff1916148061079757507f5b5e139f000000000000000000000000000000000000000000000000000000007bffffffffffffffffffffffffffffffffffffffffffffffffffffffff1916827bffffffffffffffffffffffffffffffffffffffffffffffffffffffff1916145b806107ff57507f780e9d63000000000000000000000000000000000000000000000000000000007bffffffffffffffffffffffffffffffffffffffffffffffffffffffff1916827bffffffffffffffffffffffffffffffffffffffffffffffffffffffff1916145b8061080f575061080e82611458565b5b9050919050565b60606000805461082590613686565b80601f016020809104026020016040519081016040528092919081815260200182805461085190613686565b801561089e5780601f106108735761010080835404028352916020019161089e565b820191906000526020600020905b81548152906001019060200180831161088157829003601f168201915b5050505050905090565b60006108b3826114c2565b6108f2576040517f08c379a00000000000000000000000000000000000000000000000000000000081526004016108e990613397565b60405180910390fd5b6004600083815260200190815260200160002060009054906101000a900473ffffffffffffffffffffffffffffffffffffffff169050919050565b600061093882610c14565b90508073ffffffffffffffffffffffffffffffffffffffff168373ffffffffffffffffffffffffffffffffffffffff1614156109a9576040517f08c379a00000000000000000000000000000000000000000000000000000000081526004016109a0906133f7565b60405180910390fd5b8073ffffffffffffffffffffffffffffffffffffffff166109c861152e565b73ffffffffffffffffffffffffffffffffffffffff1614806109f757506109f6816109f161152e565b611227565b5b610a36576040517f08c379a0000000000000000000000000000000000000000000000000000000008152600401610a2d90613317565b60405180910390fd5b610a408383611536565b505050565b6000600880549050905090565b610a63610a5d61152e565b826115ef565b610aa2576040517f08c379a0000000000000000000000000000000000000000000000000000000008152600401610a99906132f7565b60405180910390fd5b610aad8383836116cd565b505050565b6000610abd83610cc6565b8210610afe576040517f08c379a0000000000000000000000000000000000000000000000000000000008152600401610af5906131f7565b60405180910390fd5b600660008473ffffffffffffffffffffffffffffffffffffffff1673ffffffffffffffffffffffffffffffffffffffff168152602001908152602001600020600083815260200190815260200160002054905092915050565b610b7283838360405180602001604052806000815250610f9d565b505050565b6000610b81610a45565b8210610bc2576040517f08c379a0000000000000000000000000000000000000000000000000000000008152600401610bb990613437565b60405180910390fd5b60088281548110610bfc577f4e487b7100000000000000000000000000000000000000000000000000000000600052603260045260246000fd5b90600052602060002001549050919050565b600c5481565b6000806002600084815260200190815260200160002060009054906101000a900473ffffffffffffffffffffffffffffffffffffffff169050600073ffffffffffffffffffffffffffffffffffffffff168173ffffffffffffffffffffffffffffffffffffffff161415610cbd576040517f08c379a0000000000000000000000000000000000000000000000000000000008152600401610cb490613337565b60405180910390fd5b80915050919050565b60008073ffffffffffffffffffffffffffffffffffffffff168273ffffffffffffffffffffffffffffffffffffffff161415610d37576040517f08c379a0000000000000000000000000000000000000000000000000000000008152600401610d2e906131d7565b60405180910390fd5b600360008373ffffffffffffffffffffffffffffffffffffffff1673ffffffffffffffffffffffffffffffffffffffff168152602001908152602001600020549050919050565b7f000000000000000000000000000000000000000000000000000000000000000073ffffffffffffffffffffffffffffffffffffffff163373ffffffffffffffffffffffffffffffffffffffff1614610e0c576040517f08c379a0000000000000000000000000000000000000000000000000000000008152600401610e03906133d7565b60405180910390fd5b610e168282611936565b5050565b7f000000000000000000000000000000000000000000000000000000000000000081565b600e8181548110610e4e57600080fd5b906000526020600020016000915090508054610e6990613686565b80601f0160208091040260200160405190810160405280929190818152602001828054610e9590613686565b8015610ee25780601f10610eb757610100808354040283529160200191610ee2565b820191906000526020600020905b815481529060010190602001808311610ec557829003601f168201915b505050505081565b606060018054610ef990613686565b80601f0160208091040260200160405190810160405280929190818152602001828054610f2590613686565b8015610f725780601f10610f4757610100808354040283529160200191610f72565b820191906000526020600020905b815481529060010190602001808311610f5557829003601f168201915b5050505050905090565b662386f26fc1000081565b610f99610f9261152e565b83836119e6565b5050565b610fae610fa861152e565b836115ef565b610fed576040517f08c379a0000000000000000000000000000000000000000000000000000000008152600401610fe490613417565b60405180910390fd5b610ff984848484611b53565b50505050565b600f818154811061100f57600080fd5b90600052602060002001600091509050805461102a90613686565b80601f016020809104026020016040519081016040528092919081815260200182805461105690613686565b80156110a35780601f10611078576101008083540402835291602001916110a3565b820191906000526020600020905b81548152906001019060200180831161108657829003601f168201915b505050505081565b60606110b6826114c2565b6110f5576040517f08c379a00000000000000000000000000000000000000000000000000000000081526004016110ec90613357565b60405180910390fd5b6000600a6000848152602001908152602001600020805461111590613686565b80601f016020809104026020016040519081016040528092919081815260200182805461114190613686565b801561118e5780601f106111635761010080835404028352916020019161118e565b820191906000526020600020905b81548152906001019060200180831161117157829003601f168201915b50505050509050600061119f611baf565b90506000815114156111b55781925050506111f8565b6000825111156111ea5780826040516020016111d292919061302d565b604051602081830303815290604052925050506111f8565b6111f384611bc6565b925050505b919050565b600d5481565b7f000000000000000000000000000000000000000000000000000000000000000081565b6000600560008473ffffffffffffffffffffffffffffffffffffffff1673ffffffffffffffffffffffffffffffffffffffff16815260200190815260200160002060008373ffffffffffffffffffffffffffffffffffffffff1673ffffffffffffffffffffffffffffffffffffffff16815260200190815260200160002060009054906101000a900460ff16905092915050565b600034662386f26fc100001115611307576040517f08c379a00000000000000000000000000000000000000000000000000000000081526004016112fe90613297565b60405180910390fd5b6000611311610a45565b9050611321600c54600d54611c6d565b9150336010600084815260200190815260200160002060006101000a81548173ffffffffffffffffffffffffffffffffffffffff021916908373ffffffffffffffffffffffffffffffffffffffff16021790555080601160008481526020019081526020016000208190555080827fb97343f1f2afc4959f818046ccae28fd7b05fcd2b7a7dc651cbb52a096cae03560405160405180910390a35090565b611455816040516024016113d3919061319a565b6040516020818303038152906040527fe05f48d1000000000000000000000000000000000000000000000000000000007bffffffffffffffffffffffffffffffffffffffffffffffffffffffff19166020820180517bffffffffffffffffffffffffffffffffffffffffffffffffffffffff8381831617835250505050611dcf565b50565b60007f01ffc9a7000000000000000000000000000000000000000000000000000000007bffffffffffffffffffffffffffffffffffffffffffffffffffffffff1916827bffffffffffffffffffffffffffffffffffffffffffffffffffffffff1916149050919050565b60008073ffffffffffffffffffffffffffffffffffffffff166002600084815260200190815260200160002060009054906101000a900473ffffffffffffffffffffffffffffffffffffffff1673ffffffffffffffffffffffffffffffffffffffff1614159050919050565b600033905090565b816004600083815260200190815260200160002060006101000a81548173ffffffffffffffffffffffffffffffffffffffff021916908373ffffffffffffffffffffffffffffffffffffffff160217905550808273ffffffffffffffffffffffffffffffffffffffff166115a983610c14565b73ffffffffffffffffffffffffffffffffffffffff167f8c5be1e5ebec7d5bd14f71427d1e84f3dd0314c0f7b2291e5b200ac8c7c3b92560405160405180910390a45050565b60006115fa826114c2565b611639576040517f08c379a0000000000000000000000000000000000000000000000000000000008152600401611630906132b7565b60405180910390fd5b600061164483610c14565b90508073ffffffffffffffffffffffffffffffffffffffff168473ffffffffffffffffffffffffffffffffffffffff1614806116b357508373ffffffffffffffffffffffffffffffffffffffff1661169b846108a8565b73ffffffffffffffffffffffffffffffffffffffff16145b806116c457506116c38185611227565b5b91505092915050565b8273ffffffffffffffffffffffffffffffffffffffff166116ed82610c14565b73ffffffffffffffffffffffffffffffffffffffff1614611743576040517f08c379a000000000000000000000000000000000000000000000000000000000815260040161173a90613237565b60405180910390fd5b600073ffffffffffffffffffffffffffffffffffffffff168273ffffffffffffffffffffffffffffffffffffffff1614156117b3576040517f08c379a00000000000000000000000000000000000000000000000000000000081526004016117aa90613277565b60405180910390fd5b6117bf60008383611df8565b6117ca600082611536565b6001600360008573ffffffffffffffffffffffffffffffffffffffff1673ffffffffffffffffffffffffffffffffffffffff168152602001908152602001600020600082825461181a9190613592565b925050819055506001600360008473ffffffffffffffffffffffffffffffffffffffff1673ffffffffffffffffffffffffffffffffffffffff1681526020019081526020016000206000828254611871919061350b565b92505081905550816002600083815260200190815260200160002060006101000a81548173ffffffffffffffffffffffffffffffffffffffff021916908373ffffffffffffffffffffffffffffffffffffffff160217905550808273ffffffffffffffffffffffffffffffffffffffff168473ffffffffffffffffffffffffffffffffffffffff167fddf252ad1be2c89b69c2b068fc378daa952ba7f163c4a11628f55a4df523b3ef60405160405180910390a461193160008383611f01565b505050565b60006010600084815260200190815260200160002060009054906101000a900473ffffffffffffffffffffffffffffffffffffffff1690506000601160008581526020019081526020016000205490506119908282611f06565b826012600083815260200190815260200160002081905550807faad5362ce528ed941024b95d4c18dfd49b8503e1f586a5c353631d98c2af41b7846040516119d89190613457565b60405180910390a250505050565b8173ffffffffffffffffffffffffffffffffffffffff168373ffffffffffffffffffffffffffffffffffffffff161415611a55576040517f08c379a0000000000000000000000000000000000000000000000000000000008152600401611a4c906132d7565b60405180910390fd5b80600560008573ffffffffffffffffffffffffffffffffffffffff1673ffffffffffffffffffffffffffffffffffffffff16815260200190815260200160002060008473ffffffffffffffffffffffffffffffffffffffff1673ffffffffffffffffffffffffffffffffffffffff16815260200190815260200160002060006101000a81548160ff0219169083151502179055508173ffffffffffffffffffffffffffffffffffffffff168373ffffffffffffffffffffffffffffffffffffffff167f17307eab39ab6107e8899845ad3d59bd9653f200f220920489ca2b5937696c3183604051611b4691906130f6565b60405180910390a3505050565b611b5e8484846116cd565b611b6a84848484611f24565b611ba9576040517f08c379a0000000000000000000000000000000000000000000000000000000008152600401611ba090613217565b60405180910390fd5b50505050565b606060405180602001604052806000815250905090565b6060611bd1826114c2565b611c10576040517f08c379a0000000000000000000000000000000000000000000000000000000008152600401611c07906133b7565b60405180910390fd5b6000611c1a611baf565b90506000815111611c3a5760405180602001604052806000815250611c65565b80611c44846120bb565b604051602001611c5592919061302d565b6040516020818303038152906040525b915050919050565b60007f000000000000000000000000000000000000000000000000000000000000000073ffffffffffffffffffffffffffffffffffffffff16634000aea07f000000000000000000000000000000000000000000000000000000000000000084866000604051602001611ce192919061312c565b6040516020818303038152906040526040518463ffffffff1660e01b8152600401611d0e939291906130b8565b602060405180830381600087803b158015611d2857600080fd5b505af1158015611d3c573d6000803e3d6000fd5b505050506040513d601f19601f82011682018060405250810190611d609190612b49565b506000611d8384600030600b600089815260200190815260200160002054612268565b90506001600b600086815260200190815260200160002054611da5919061350b565b600b600086815260200190815260200160002081905550611dc684826122a4565b91505092915050565b60008151905060006a636f6e736f6c652e6c6f679050602083016000808483855afa5050505050565b600073ffffffffffffffffffffffffffffffffffffffff168373ffffffffffffffffffffffffffffffffffffffff161415611e3b57611e36816122d7565b611e7a565b8173ffffffffffffffffffffffffffffffffffffffff168373ffffffffffffffffffffffffffffffffffffffff1614611e7957611e788382612320565b5b5b600073ffffffffffffffffffffffffffffffffffffffff168273ffffffffffffffffffffffffffffffffffffffff161415611ebd57611eb88161248d565b611efc565b8273ffffffffffffffffffffffffffffffffffffffff168273ffffffffffffffffffffffffffffffffffffffff1614611efb57611efa82826125d0565b5b5b505050565b505050565b611f2082826040518060200160405280600081525061264f565b5050565b6000611f458473ffffffffffffffffffffffffffffffffffffffff166126aa565b156120ae578373ffffffffffffffffffffffffffffffffffffffff1663150b7a02611f6e61152e565b8786866040518563ffffffff1660e01b8152600401611f90949392919061306c565b602060405180830381600087803b158015611faa57600080fd5b505af1925050508015611fdb57506040513d601f19601f82011682018060405250810190611fd89190612bd7565b60015b61205e573d806000811461200b576040519150601f19603f3d011682016040523d82523d6000602084013e612010565b606091505b50600081511415612056576040517f08c379a000000000000000000000000000000000000000000000000000000000815260040161204d90613217565b60405180910390fd5b805181602001fd5b63150b7a0260e01b7bffffffffffffffffffffffffffffffffffffffffffffffffffffffff1916817bffffffffffffffffffffffffffffffffffffffffffffffffffffffff1916149150506120b3565b600190505b949350505050565b60606000821415612103576040518060400160405280600181526020017f30000000000000000000000000000000000000000000000000000000000000008152509050612263565b600082905060005b6000821461213557808061211e906136e9565b915050600a8261212e9190613561565b915061210b565b60008167ffffffffffffffff811115612177577f4e487b7100000000000000000000000000000000000000000000000000000000600052604160045260246000fd5b6040519080825280601f01601f1916602001820160405280156121a95781602001600182028036833780820191505090505b5090505b6000851461225c576001826121c29190613592565b9150600a856121d19190613746565b60306121dd919061350b565b60f81b818381518110612219577f4e487b7100000000000000000000000000000000000000000000000000000000600052603260045260246000fd5b60200101907effffffffffffffffffffffffffffffffffffffffffffffffffffffffffffff1916908160001a905350600a856122559190613561565b94506121ad565b8093505050505b919050565b6000848484846040516020016122819493929190613155565b6040516020818303038152906040528051906020012060001c9050949350505050565b600082826040516020016122b9929190613001565b60405160208183030381529060405280519060200120905092915050565b6008805490506009600083815260200190815260200160002081905550600881908060018154018082558091505060019003906000526020600020016000909190919091505550565b6000600161232d84610cc6565b6123379190613592565b905060006007600084815260200190815260200160002054905081811461241c576000600660008673ffffffffffffffffffffffffffffffffffffffff1673ffffffffffffffffffffffffffffffffffffffff168152602001908152602001600020600084815260200190815260200160002054905080600660008773ffffffffffffffffffffffffffffffffffffffff1673ffffffffffffffffffffffffffffffffffffffff168152602001908152602001600020600084815260200190815260200160002081905550836007600083815260200190815260200160002081905550505b6007600084815260200190815260200160002060009055600660008573ffffffffffffffffffffffffffffffffffffffff1673ffffffffffffffffffffffffffffffffffffffff16815260200190815260200160002060008381526020019081526020016000206000905550505050565b600060016008805490506124a19190613592565b90506000600960008481526020019081526020016000205490506000600883815481106124f7577f4e487b7100000000000000000000000000000000000000000000000000000000600052603260045260246000fd5b90600052602060002001549050806008838154811061253f577f4e487b7100000000000000000000000000000000000000000000000000000000600052603260045260246000fd5b9060005260206000200181905550816009600083815260200190815260200160002081905550600960008581526020019081526020016000206000905560088054806125b4577f4e487b7100000000000000000000000000000000000000000000000000000000600052603160045260246000fd5b6001900381819060005260206000200160009055905550505050565b60006125db83610cc6565b905081600660008573ffffffffffffffffffffffffffffffffffffffff1673ffffffffffffffffffffffffffffffffffffffff168152602001908152602001600020600083815260200190815260200160002081905550806007600084815260200190815260200160002081905550505050565b61265983836126cd565b6126666000848484611f24565b6126a5576040517f08c379a000000000000000000000000000000000000000000000000000000000815260040161269c90613217565b60405180910390fd5b505050565b6000808273ffffffffffffffffffffffffffffffffffffffff163b119050919050565b600073ffffffffffffffffffffffffffffffffffffffff168273ffffffffffffffffffffffffffffffffffffffff16141561273d576040517f08c379a000000000000000000000000000000000000000000000000000000000815260040161273490613377565b60405180910390fd5b612746816114c2565b15612786576040517f08c379a000000000000000000000000000000000000000000000000000000000815260040161277d90613257565b60405180910390fd5b61279260008383611df8565b6001600360008473ffffffffffffffffffffffffffffffffffffffff1673ffffffffffffffffffffffffffffffffffffffff16815260200190815260200160002060008282546127e2919061350b565b92505081905550816002600083815260200190815260200160002060006101000a81548173ffffffffffffffffffffffffffffffffffffffff021916908373ffffffffffffffffffffffffffffffffffffffff160217905550808273ffffffffffffffffffffffffffffffffffffffff16600073ffffffffffffffffffffffffffffffffffffffff167fddf252ad1be2c89b69c2b068fc378daa952ba7f163c4a11628f55a4df523b3ef60405160405180910390a46128a360008383611f01565b5050565b60006128ba6128b584613497565b613472565b9050828152602081018484840111156128d257600080fd5b6128dd848285613644565b509392505050565b6000813590506128f481613db2565b92915050565b60008135905061290981613dc9565b92915050565b60008151905061291e81613dc9565b92915050565b60008135905061293381613de0565b92915050565b60008135905061294881613df7565b92915050565b60008151905061295d81613df7565b92915050565b600082601f83011261297457600080fd5b81356129848482602086016128a7565b91505092915050565b60008135905061299c81613e0e565b92915050565b6000602082840312156129b457600080fd5b60006129c2848285016128e5565b91505092915050565b600080604083850312156129de57600080fd5b60006129ec858286016128e5565b92505060206129fd858286016128e5565b9150509250929050565b600080600060608486031215612a1c57600080fd5b6000612a2a868287016128e5565b9350506020612a3b868287016128e5565b9250506040612a4c8682870161298d565b9150509250925092565b60008060008060808587031215612a6c57600080fd5b6000612a7a878288016128e5565b9450506020612a8b878288016128e5565b9350506040612a9c8782880161298d565b925050606085013567ffffffffffffffff811115612ab957600080fd5b612ac587828801612963565b91505092959194509250565b60008060408385031215612ae457600080fd5b6000612af2858286016128e5565b9250506020612b03858286016128fa565b9150509250929050565b60008060408385031215612b2057600080fd5b6000612b2e858286016128e5565b9250506020612b3f8582860161298d565b9150509250929050565b600060208284031215612b5b57600080fd5b6000612b698482850161290f565b91505092915050565b60008060408385031215612b8557600080fd5b6000612b9385828601612924565b9250506020612ba48582860161298d565b9150509250929050565b600060208284031215612bc057600080fd5b6000612bce84828501612939565b91505092915050565b600060208284031215612be957600080fd5b6000612bf78482850161294e565b91505092915050565b600060208284031215612c1257600080fd5b6000612c208482850161298d565b91505092915050565b612c32816135c6565b82525050565b612c41816135d8565b82525050565b612c50816135e4565b82525050565b612c67612c62826135e4565b613732565b82525050565b612c76816135ee565b82525050565b6000612c87826134c8565b612c9181856134de565b9350612ca1818560208601613653565b612caa81613833565b840191505092915050565b6000612cc0826134d3565b612cca81856134ef565b9350612cda818560208601613653565b612ce381613833565b840191505092915050565b6000612cf9826134d3565b612d038185613500565b9350612d13818560208601613653565b80840191505092915050565b6000612d2c6026836134ef565b9150612d3782613844565b604082019050919050565b6000612d4f602b836134ef565b9150612d5a82613893565b604082019050919050565b6000612d726032836134ef565b9150612d7d826138e2565b604082019050919050565b6000612d956025836134ef565b9150612da082613931565b604082019050919050565b6000612db8601c836134ef565b9150612dc382613980565b602082019050919050565b6000612ddb6024836134ef565b9150612de6826139a9565b604082019050919050565b6000612dfe601f836134ef565b9150612e09826139f8565b602082019050919050565b6000612e21602c836134ef565b9150612e2c82613a21565b604082019050919050565b6000612e446019836134ef565b9150612e4f82613a70565b602082019050919050565b6000612e676031836134ef565b9150612e7282613a99565b604082019050919050565b6000612e8a6038836134ef565b9150612e9582613ae8565b604082019050919050565b6000612ead6029836134ef565b9150612eb882613b37565b604082019050919050565b6000612ed06032836134ef565b9150612edb82613b86565b604082019050919050565b6000612ef36020836134ef565b9150612efe82613bd5565b602082019050919050565b6000612f16602c836134ef565b9150612f2182613bfe565b604082019050919050565b6000612f39602f836134ef565b9150612f4482613c4d565b604082019050919050565b6000612f5c601f836134ef565b9150612f6782613c9c565b602082019050919050565b6000612f7f6021836134ef565b9150612f8a82613cc5565b604082019050919050565b6000612fa26031836134ef565b9150612fad82613d14565b604082019050919050565b6000612fc5602c836134ef565b9150612fd082613d63565b604082019050919050565b612fe48161363a565b82525050565b612ffb612ff68261363a565b61373c565b82525050565b600061300d8285612c56565b60208201915061301d8284612fea565b6020820191508190509392505050565b60006130398285612cee565b91506130458284612cee565b91508190509392505050565b60006020820190506130666000830184612c29565b92915050565b60006080820190506130816000830187612c29565b61308e6020830186612c29565b61309b6040830185612fdb565b81810360608301526130ad8184612c7c565b905095945050505050565b60006060820190506130cd6000830186612c29565b6130da6020830185612fdb565b81810360408301526130ec8184612c7c565b9050949350505050565b600060208201905061310b6000830184612c38565b92915050565b60006020820190506131266000830184612c47565b92915050565b60006040820190506131416000830185612c47565b61314e6020830184612fdb565b9392505050565b600060808201905061316a6000830187612c47565b6131776020830186612fdb565b6131846040830185612c29565b6131916060830184612fdb565b95945050505050565b60006020820190506131af6000830184612c6d565b92915050565b600060208201905081810360008301526131cf8184612cb5565b905092915050565b600060208201905081810360008301526131f081612d1f565b9050919050565b6000602082019050818103600083015261321081612d42565b9050919050565b6000602082019050818103600083015261323081612d65565b9050919050565b6000602082019050818103600083015261325081612d88565b9050919050565b6000602082019050818103600083015261327081612dab565b9050919050565b6000602082019050818103600083015261329081612dce565b9050919050565b600060208201905081810360008301526132b081612df1565b9050919050565b600060208201905081810360008301526132d081612e14565b9050919050565b600060208201905081810360008301526132f081612e37565b9050919050565b6000602082019050818103600083015261331081612e5a565b9050919050565b6000602082019050818103600083015261333081612e7d565b9050919050565b6000602082019050818103600083015261335081612ea0565b9050919050565b6000602082019050818103600083015261337081612ec3565b9050919050565b6000602082019050818103600083015261339081612ee6565b9050919050565b600060208201905081810360008301526133b081612f09565b9050919050565b600060208201905081810360008301526133d081612f2c565b9050919050565b600060208201905081810360008301526133f081612f4f565b9050919050565b6000602082019050818103600083015261341081612f72565b9050919050565b6000602082019050818103600083015261343081612f95565b9050919050565b6000602082019050818103600083015261345081612fb8565b9050919050565b600060208201905061346c6000830184612fdb565b92915050565b600061347c61348d565b905061348882826136b8565b919050565b6000604051905090565b600067ffffffffffffffff8211156134b2576134b1613804565b5b6134bb82613833565b9050602081019050919050565b600081519050919050565b600081519050919050565b600082825260208201905092915050565b600082825260208201905092915050565b600081905092915050565b60006135168261363a565b91506135218361363a565b9250827fffffffffffffffffffffffffffffffffffffffffffffffffffffffffffffffff0382111561355657613555613777565b5b828201905092915050565b600061356c8261363a565b91506135778361363a565b925082613587576135866137a6565b5b828204905092915050565b600061359d8261363a565b91506135a88361363a565b9250828210156135bb576135ba613777565b5b828203905092915050565b60006135d18261361a565b9050919050565b60008115159050919050565b6000819050919050565b60007fffffffff0000000000000000000000000000000000000000000000000000000082169050919050565b600073ffffffffffffffffffffffffffffffffffffffff82169050919050565b6000819050919050565b82818337600083830152505050565b60005b83811015613671578082015181840152602081019050613656565b83811115613680576000848401525b50505050565b6000600282049050600182168061369e57607f821691505b602082108114156136b2576136b16137d5565b5b50919050565b6136c182613833565b810181811067ffffffffffffffff821117156136e0576136df613804565b5b80604052505050565b60006136f48261363a565b91507fffffffffffffffffffffffffffffffffffffffffffffffffffffffffffffffff82141561372757613726613777565b5b600182019050919050565b6000819050919050565b6000819050919050565b60006137518261363a565b915061375c8361363a565b92508261376c5761376b6137a6565b5b828206905092915050565b7f4e487b7100000000000000000000000000000000000000000000000000000000600052601160045260246000fd5b7f4e487b7100000000000000000000000000000000000000000000000000000000600052601260045260246000fd5b7f4e487b7100000000000000000000000000000000000000000000000000000000600052602260045260246000fd5b7f4e487b7100000000000000000000000000000000000000000000000000000000600052604160045260246000fd5b6000601f19601f8301169050919050565b7f4552433732313a2062616c616e636520717565727920666f72207a65726f206160008201527f6464726573730000000000000000000000000000000000000000000000000000602082015250565b7f455243373231456e756d657261626c653a206f776e657220696e646578206f7560008201527f74206f6620626f756e6473000000000000000000000000000000000000000000602082015250565b7f4552433732313a207472616e7366657220746f206e6f6e20455243373231526560008201527f63656976657220696d706c656d656e7465720000000000000000000000000000602082015250565b7f4552433732313a207472616e736665722066726f6d20696e636f72726563742060008201527f6f776e6572000000000000000000000000000000000000000000000000000000602082015250565b7f4552433732313a20746f6b656e20616c7265616479206d696e74656400000000600082015250565b7f4552433732313a207472616e7366657220746f20746865207a65726f2061646460008201527f7265737300000000000000000000000000000000000000000000000000000000602082015250565b7f45746865722076616c75652073656e74206973206e6f7420636f727265637400600082015250565b7f4552433732313a206f70657261746f7220717565727920666f72206e6f6e657860008201527f697374656e7420746f6b656e0000000000000000000000000000000000000000602082015250565b7f4552433732313a20617070726f766520746f2063616c6c656400000000000000600082015250565b7f4552433732313a207472616e736665722063616c6c6572206973206e6f74206f60008201527f776e6572206e6f7420617070726f766564000000000000000000000000000000602082015250565b7f4552433732313a20617070726f76652063616c6c6572206973206e6f74206f7760008201527f6e6572206e6f7220617070726f76656420666f7220616c6c0000000000000000602082015250565b7f4552433732313a206f776e657220717565727920666f72206e6f6e657869737460008201527f656e7420746f6b656e0000000000000000000000000000000000000000000000602082015250565b7f45524337323155524953746f726167653a2055524920717565727920666f722060008201527f6e6f6e206578697374656e7420746f6b656e0000000000000000000000000000602082015250565b7f4552433732313a206d696e7420746f20746865207a65726f2061646472657373600082015250565b7f4552433732313a20617070726f76656420717565727920666f72206e6f6e657860008201527f697374656e7420746f6b656e0000000000000000000000000000000000000000602082015250565b7f4552433732314d657461646174613a2055524920717565727920666f72206e6f60008201527f6e6578697374656e7420746f6b656e0000000000000000000000000000000000602082015250565b7f4f6e6c7920565246436f6f7264696e61746f722063616e2066756c66696c6c00600082015250565b7f4552433732313a20617070726f76616c20746f2063757272656e74206f776e6560008201527f7200000000000000000000000000000000000000000000000000000000000000602082015250565b7f4552433732313a207472616e736665722063616c6c6572206973206e6f74206f60008201527f776e6572206e6f7220617070726f766564000000000000000000000000000000602082015250565b7f455243373231456e756d657261626c653a20676c6f62616c20696e646578206f60008201527f7574206f6620626f756e64730000000000000000000000000000000000000000602082015250565b613dbb816135c6565b8114613dc657600080fd5b50565b613dd2816135d8565b8114613ddd57600080fd5b50565b613de9816135e4565b8114613df457600080fd5b50565b613e00816135ee565b8114613e0b57600080fd5b50565b613e178161363a565b8114613e2257600080fd5b5056fea2646970667358221220e2225de177cabf4794e5e489835d8e01d208b01a4356ba2eb518532bc05aa7f464736f6c63430008040033",
  "linkReferences": {},
  "deployedLinkReferences": {}
}