{
  "_format": "hh-sol-artifact-1",
  "contractName": "ERC721",
  "sourceName": "contracts/ERC721/ERC721.sol",
  "abi": [
    {
      "inputs": [
        {
          "internalType": "string",
          "name": "name_",
          "type": "string"
        },
        {
          "internalType": "string",
          "name": "symbol_",
          "type": "string"
        }
      ],
      "stateMutability": "nonpayable",
      "type": "constructor"
    },
    {
      "anonymous": false,
      "inputs": [
        {
          "indexed": true,
          "internalType": "address",
          "name": "owner",
          "type": "address"
        },
        {
          "indexed": true,
          "internalType": "address",
          "name": "approved",
          "type": "address"
        },
        {
          "indexed": true,
          "internalType": "uint256",
          "name": "tokenId",
          "type": "uint256"
        }
      ],
      "name": "Approval",
      "type": "event"
    },
    {
      "anonymous": false,
      "inputs": [
        {
          "indexed": true,
          "internalType": "address",
          "name": "owner",
          "type": "address"
        },
        {
          "indexed": true,
          "internalType": "address",
          "name": "operator",
          "type": "address"
        },
        {
          "indexed": false,
          "internalType": "bool",
          "name": "approved",
          "type": "bool"
        }
      ],
      "name": "ApprovalForAll",
      "type": "event"
    },
    {
      "anonymous": false,
      "inputs": [
        {
          "indexed": true,
          "internalType": "address",
          "name": "from",
          "type": "address"
        },
        {
          "indexed": true,
          "internalType": "address",
          "name": "to",
          "type": "address"
        },
        {
          "indexed": true,
          "internalType": "uint256",
          "name": "tokenId",
          "type": "uint256"
        }
      ],
      "name": "Transfer",
      "type": "event"
    },
    {
      "inputs": [
        {
          "internalType": "address",
          "name": "to",
          "type": "address"
        },
        {
          "internalType": "uint256",
          "name": "tokenId",
          "type": "uint256"
        }
      ],
      "name": "approve",
      "outputs": [],
      "stateMutability": "nonpayable",
      "type": "function"
    },
    {
      "inputs": [
        {
          "internalType": "address",
          "name": "owner",
          "type": "address"
        }
      ],
      "name": "balanceOf",
      "outputs": [
        {
          "internalType": "uint256",
          "name": "",
          "type": "uint256"
        }
      ],
      "stateMutability": "view",
      "type": "function"
    },
    {
      "inputs": [
        {
          "internalType": "uint256",
          "name": "tokenId",
          "type": "uint256"
        }
      ],
      "name": "getApproved",
      "outputs": [
        {
          "internalType": "address",
          "name": "",
          "type": "address"
        }
      ],
      "stateMutability": "view",
      "type": "function"
    },
    {
      "inputs": [
        {
          "internalType": "address",
          "name": "owner",
          "type": "address"
        },
        {
          "internalType": "address",
          "name": "operator",
          "type": "address"
        }
      ],
      "name": "isApprovedForAll",
      "outputs": [
        {
          "internalType": "bool",
          "name": "",
          "type": "bool"
        }
      ],
      "stateMutability": "view",
      "type": "function"
    },
    {
      "inputs": [],
      "name": "name",
      "outputs": [
        {
          "internalType": "string",
          "name": "",
          "type": "string"
        }
      ],
      "stateMutability": "view",
      "type": "function"
    },
    {
      "inputs": [
        {
          "internalType": "uint256",
          "name": "tokenId",
          "type": "uint256"
        }
      ],
      "name": "ownerOf",
      "outputs": [
        {
          "internalType": "address",
          "name": "",
          "type": "address"
        }
      ],
      "stateMutability": "view",
      "type": "function"
    },
    {
      "inputs": [
        {
          "internalType": "address",
          "name": "from",
          "type": "address"
        },
        {
          "internalType": "address",
          "name": "to",
          "type": "address"
        },
        {
          "internalType": "uint256",
          "name": "tokenId",
          "type": "uint256"
        }
      ],
      "name": "safeTransferFrom",
      "outputs": [],
      "stateMutability": "nonpayable",
      "type": "function"
    },
    {
      "inputs": [
        {
          "internalType": "address",
          "name": "from",
          "type": "address"
        },
        {
          "internalType": "address",
          "name": "to",
          "type": "address"
        },
        {
          "internalType": "uint256",
          "name": "tokenId",
          "type": "uint256"
        },
        {
          "internalType": "bytes",
          "name": "_data",
          "type": "bytes"
        }
      ],
      "name": "safeTransferFrom",
      "outputs": [],
      "stateMutability": "nonpayable",
      "type": "function"
    },
    {
      "inputs": [
        {
          "internalType": "address",
          "name": "operator",
          "type": "address"
        },
        {
          "internalType": "bool",
          "name": "approved",
          "type": "bool"
        }
      ],
      "name": "setApprovalForAll",
      "outputs": [],
      "stateMutability": "nonpayable",
      "type": "function"
    },
    {
      "inputs": [
        {
          "internalType": "bytes4",
          "name": "interfaceId",
          "type": "bytes4"
        }
      ],
      "name": "supportsInterface",
      "outputs": [
        {
          "internalType": "bool",
          "name": "",
          "type": "bool"
        }
      ],
      "stateMutability": "view",
      "type": "function"
    },
    {
      "inputs": [],
      "name": "symbol",
      "outputs": [
        {
          "internalType": "string",
          "name": "",
          "type": "string"
        }
      ],
      "stateMutability": "view",
      "type": "function"
    },
    {
      "inputs": [
        {
          "internalType": "uint256",
          "name": "index",
          "type": "uint256"
        }
      ],
      "name": "tokenByIndex",
      "outputs": [
        {
          "internalType": "uint256",
          "name": "",
          "type": "uint256"
        }
      ],
      "stateMutability": "view",
      "type": "function"
    },
    {
      "inputs": [
        {
          "internalType": "address",
          "name": "owner",
          "type": "address"
        },
        {
          "internalType": "uint256",
          "name": "index",
          "type": "uint256"
        }
      ],
      "name": "tokenOfOwnerByIndex",
      "outputs": [
        {
          "internalType": "uint256",
          "name": "",
          "type": "uint256"
        }
      ],
      "stateMutability": "view",
      "type": "function"
    },
    {
      "inputs": [
        {
          "internalType": "uint256",
          "name": "tokenId",
          "type": "uint256"
        }
      ],
      "name": "tokenURI",
      "outputs": [
        {
          "internalType": "string",
          "name": "",
          "type": "string"
        }
      ],
      "stateMutability": "view",
      "type": "function"
    },
    {
      "inputs": [],
      "name": "totalSupply",
      "outputs": [
        {
          "internalType": "uint256",
          "name": "",
          "type": "uint256"
        }
      ],
      "stateMutability": "view",
      "type": "function"
    },
    {
      "inputs": [
        {
          "internalType": "address",
          "name": "from",
          "type": "address"
        },
        {
          "internalType": "address",
          "name": "to",
          "type": "address"
        },
        {
          "internalType": "uint256",
          "name": "tokenId",
          "type": "uint256"
        }
      ],
      "name": "transferFrom",
      "outputs": [],
      "stateMutability": "nonpayable",
      "type": "function"
    }
  ],
  "bytecode": "0x60806040523480156200001157600080fd5b50604051620030f6380380620030f6833981810160405281019062000037919062000193565b81600090805190602001906200004f92919062000071565b5080600190805190602001906200006892919062000071565b50505062000376565b8280546200007f906200029b565b90600052602060002090601f016020900481019282620000a35760008555620000ef565b82601f10620000be57805160ff1916838001178555620000ef565b82800160010185558215620000ef579182015b82811115620000ee578251825591602001919060010190620000d1565b5b509050620000fe919062000102565b5090565b5b808211156200011d57600081600090555060010162000103565b5090565b60006200013862000132846200022f565b62000206565b9050828152602081018484840111156200015157600080fd5b6200015e84828562000265565b509392505050565b600082601f8301126200017857600080fd5b81516200018a84826020860162000121565b91505092915050565b60008060408385031215620001a757600080fd5b600083015167ffffffffffffffff811115620001c257600080fd5b620001d08582860162000166565b925050602083015167ffffffffffffffff811115620001ee57600080fd5b620001fc8582860162000166565b9150509250929050565b60006200021262000225565b9050620002208282620002d1565b919050565b6000604051905090565b600067ffffffffffffffff8211156200024d576200024c62000336565b5b620002588262000365565b9050602081019050919050565b60005b838110156200028557808201518184015260208101905062000268565b8381111562000295576000848401525b50505050565b60006002820490506001821680620002b457607f821691505b60208210811415620002cb57620002ca62000307565b5b50919050565b620002dc8262000365565b810181811067ffffffffffffffff82111715620002fe57620002fd62000336565b5b80604052505050565b7f4e487b7100000000000000000000000000000000000000000000000000000000600052602260045260246000fd5b7f4e487b7100000000000000000000000000000000000000000000000000000000600052604160045260246000fd5b6000601f19601f8301169050919050565b612d7080620003866000396000f3fe608060405234801561001057600080fd5b50600436106101005760003560e01c80634f6ccce711610097578063a22cb46511610066578063a22cb465146102d3578063b88d4fde146102ef578063c87b56dd1461030b578063e985e9c51461033b57610100565b80634f6ccce7146102255780636352211e1461025557806370a082311461028557806395d89b41146102b557610100565b806318160ddd116100d357806318160ddd1461019f57806323b872dd146101bd5780632f745c59146101d957806342842e0e1461020957610100565b806301ffc9a71461010557806306fdde0314610135578063081812fc14610153578063095ea7b314610183575b600080fd5b61011f600480360381019061011a9190611e6a565b61036b565b60405161012c919061225c565b60405180910390f35b61013d6104de565b60405161014a9190612292565b60405180910390f35b61016d60048036038101906101689190611ebc565b610570565b60405161017a91906121f5565b60405180910390f35b61019d60048036038101906101989190611e2e565b6105f5565b005b6101a761070d565b6040516101b49190612494565b60405180910390f35b6101d760048036038101906101d29190611d28565b61071a565b005b6101f360048036038101906101ee9190611e2e565b61077a565b6040516102009190612494565b60405180910390f35b610223600480360381019061021e9190611d28565b61081f565b005b61023f600480360381019061023a9190611ebc565b61083f565b60405161024c9190612494565b60405180910390f35b61026f600480360381019061026a9190611ebc565b6108d6565b60405161027c91906121f5565b60405180910390f35b61029f600480360381019061029a9190611cc3565b610988565b6040516102ac9190612494565b60405180910390f35b6102bd610a40565b6040516102ca9190612292565b60405180910390f35b6102ed60048036038101906102e89190611df2565b610ad2565b005b61030960048036038101906103049190611d77565b610ae8565b005b61032560048036038101906103209190611ebc565b610b4a565b6040516103329190612292565b60405180910390f35b61035560048036038101906103509190611cec565b610bf1565b604051610362919061225c565b60405180910390f35b60006103967f780e9d6300000000000000000000000000000000000000000000000000000000610c85565b7f80ac58cd000000000000000000000000000000000000000000000000000000007bffffffffffffffffffffffffffffffffffffffffffffffffffffffff1916827bffffffffffffffffffffffffffffffffffffffffffffffffffffffff1916148061045f57507f5b5e139f000000000000000000000000000000000000000000000000000000007bffffffffffffffffffffffffffffffffffffffffffffffffffffffff1916827bffffffffffffffffffffffffffffffffffffffffffffffffffffffff1916145b806104c757507f780e9d63000000000000000000000000000000000000000000000000000000007bffffffffffffffffffffffffffffffffffffffffffffffffffffffff1916827bffffffffffffffffffffffffffffffffffffffffffffffffffffffff1916145b806104d757506104d682610d1e565b5b9050919050565b6060600080546104ed906126b9565b80601f0160208091040260200160405190810160405280929190818152602001828054610519906126b9565b80156105665780601f1061053b57610100808354040283529160200191610566565b820191906000526020600020905b81548152906001019060200180831161054957829003601f168201915b5050505050905090565b600061057b82610d88565b6105ba576040517f08c379a00000000000000000000000000000000000000000000000000000000081526004016105b1906123f4565b60405180910390fd5b6004600083815260200190815260200160002060009054906101000a900473ffffffffffffffffffffffffffffffffffffffff169050919050565b6000610600826108d6565b90508073ffffffffffffffffffffffffffffffffffffffff168373ffffffffffffffffffffffffffffffffffffffff161415610671576040517f08c379a000000000000000000000000000000000000000000000000000000000815260040161066890612434565b60405180910390fd5b8073ffffffffffffffffffffffffffffffffffffffff16610690610df4565b73ffffffffffffffffffffffffffffffffffffffff1614806106bf57506106be816106b9610df4565b610bf1565b5b6106fe576040517f08c379a00000000000000000000000000000000000000000000000000000000081526004016106f5906123b4565b60405180910390fd5b6107088383610dfc565b505050565b6000600880549050905090565b61072b610725610df4565b82610eb5565b61076a576040517f08c379a000000000000000000000000000000000000000000000000000000000815260040161076190612394565b60405180910390fd5b610775838383610f93565b505050565b600061078583610988565b82106107c6576040517f08c379a00000000000000000000000000000000000000000000000000000000081526004016107bd906122d4565b60405180910390fd5b600660008473ffffffffffffffffffffffffffffffffffffffff1673ffffffffffffffffffffffffffffffffffffffff168152602001908152602001600020600083815260200190815260200160002054905092915050565b61083a83838360405180602001604052806000815250610ae8565b505050565b600061084961070d565b821061088a576040517f08c379a000000000000000000000000000000000000000000000000000000000815260040161088190612474565b60405180910390fd5b600882815481106108c4577f4e487b7100000000000000000000000000000000000000000000000000000000600052603260045260246000fd5b90600052602060002001549050919050565b6000806002600084815260200190815260200160002060009054906101000a900473ffffffffffffffffffffffffffffffffffffffff169050600073ffffffffffffffffffffffffffffffffffffffff168173ffffffffffffffffffffffffffffffffffffffff16141561097f576040517f08c379a0000000000000000000000000000000000000000000000000000000008152600401610976906123d4565b60405180910390fd5b80915050919050565b60008073ffffffffffffffffffffffffffffffffffffffff168273ffffffffffffffffffffffffffffffffffffffff1614156109f9576040517f08c379a00000000000000000000000000000000000000000000000000000000081526004016109f0906122b4565b60405180910390fd5b600360008373ffffffffffffffffffffffffffffffffffffffff1673ffffffffffffffffffffffffffffffffffffffff168152602001908152602001600020549050919050565b606060018054610a4f906126b9565b80601f0160208091040260200160405190810160405280929190818152602001828054610a7b906126b9565b8015610ac85780601f10610a9d57610100808354040283529160200191610ac8565b820191906000526020600020905b815481529060010190602001808311610aab57829003601f168201915b5050505050905090565b610ae4610add610df4565b83836111fc565b5050565b610af9610af3610df4565b83610eb5565b610b38576040517f08c379a0000000000000000000000000000000000000000000000000000000008152600401610b2f90612454565b60405180910390fd5b610b4484848484611369565b50505050565b6060610b5582610d88565b610b94576040517f08c379a0000000000000000000000000000000000000000000000000000000008152600401610b8b90612414565b60405180910390fd5b6000610b9e6113c5565b90506000815111610bbe5760405180602001604052806000815250610be9565b80610bc8846113dc565b604051602001610bd99291906121d1565b6040516020818303038152906040525b915050919050565b6000600560008473ffffffffffffffffffffffffffffffffffffffff1673ffffffffffffffffffffffffffffffffffffffff16815260200190815260200160002060008373ffffffffffffffffffffffffffffffffffffffff1673ffffffffffffffffffffffffffffffffffffffff16815260200190815260200160002060009054906101000a900460ff16905092915050565b610d1b81604051602401610c999190612277565b6040516020818303038152906040527fe05f48d1000000000000000000000000000000000000000000000000000000007bffffffffffffffffffffffffffffffffffffffffffffffffffffffff19166020820180517bffffffffffffffffffffffffffffffffffffffffffffffffffffffff8381831617835250505050611589565b50565b60007f01ffc9a7000000000000000000000000000000000000000000000000000000007bffffffffffffffffffffffffffffffffffffffffffffffffffffffff1916827bffffffffffffffffffffffffffffffffffffffffffffffffffffffff1916149050919050565b60008073ffffffffffffffffffffffffffffffffffffffff166002600084815260200190815260200160002060009054906101000a900473ffffffffffffffffffffffffffffffffffffffff1673ffffffffffffffffffffffffffffffffffffffff1614159050919050565b600033905090565b816004600083815260200190815260200160002060006101000a81548173ffffffffffffffffffffffffffffffffffffffff021916908373ffffffffffffffffffffffffffffffffffffffff160217905550808273ffffffffffffffffffffffffffffffffffffffff16610e6f836108d6565b73ffffffffffffffffffffffffffffffffffffffff167f8c5be1e5ebec7d5bd14f71427d1e84f3dd0314c0f7b2291e5b200ac8c7c3b92560405160405180910390a45050565b6000610ec082610d88565b610eff576040517f08c379a0000000000000000000000000000000000000000000000000000000008152600401610ef690612354565b60405180910390fd5b6000610f0a836108d6565b90508073ffffffffffffffffffffffffffffffffffffffff168473ffffffffffffffffffffffffffffffffffffffff161480610f7957508373ffffffffffffffffffffffffffffffffffffffff16610f6184610570565b73ffffffffffffffffffffffffffffffffffffffff16145b80610f8a5750610f898185610bf1565b5b91505092915050565b8273ffffffffffffffffffffffffffffffffffffffff16610fb3826108d6565b73ffffffffffffffffffffffffffffffffffffffff1614611009576040517f08c379a000000000000000000000000000000000000000000000000000000000815260040161100090612314565b60405180910390fd5b600073ffffffffffffffffffffffffffffffffffffffff168273ffffffffffffffffffffffffffffffffffffffff161415611079576040517f08c379a000000000000000000000000000000000000000000000000000000000815260040161107090612334565b60405180910390fd5b611085600083836115b2565b611090600082610dfc565b6001600360008573ffffffffffffffffffffffffffffffffffffffff1673ffffffffffffffffffffffffffffffffffffffff16815260200190815260200160002060008282546110e091906125cf565b925050819055506001600360008473ffffffffffffffffffffffffffffffffffffffff1673ffffffffffffffffffffffffffffffffffffffff16815260200190815260200160002060008282546111379190612548565b92505081905550816002600083815260200190815260200160002060006101000a81548173ffffffffffffffffffffffffffffffffffffffff021916908373ffffffffffffffffffffffffffffffffffffffff160217905550808273ffffffffffffffffffffffffffffffffffffffff168473ffffffffffffffffffffffffffffffffffffffff167fddf252ad1be2c89b69c2b068fc378daa952ba7f163c4a11628f55a4df523b3ef60405160405180910390a46111f7600083836116bb565b505050565b8173ffffffffffffffffffffffffffffffffffffffff168373ffffffffffffffffffffffffffffffffffffffff16141561126b576040517f08c379a000000000000000000000000000000000000000000000000000000000815260040161126290612374565b60405180910390fd5b80600560008573ffffffffffffffffffffffffffffffffffffffff1673ffffffffffffffffffffffffffffffffffffffff16815260200190815260200160002060008473ffffffffffffffffffffffffffffffffffffffff1673ffffffffffffffffffffffffffffffffffffffff16815260200190815260200160002060006101000a81548160ff0219169083151502179055508173ffffffffffffffffffffffffffffffffffffffff168373ffffffffffffffffffffffffffffffffffffffff167f17307eab39ab6107e8899845ad3d59bd9653f200f220920489ca2b5937696c318360405161135c919061225c565b60405180910390a3505050565b611374848484610f93565b611380848484846116c0565b6113bf576040517f08c379a00000000000000000000000000000000000000000000000000000000081526004016113b6906122f4565b60405180910390fd5b50505050565b606060405180602001604052806000815250905090565b60606000821415611424576040518060400160405280600181526020017f30000000000000000000000000000000000000000000000000000000000000008152509050611584565b600082905060005b6000821461145657808061143f9061271c565b915050600a8261144f919061259e565b915061142c565b60008167ffffffffffffffff811115611498577f4e487b7100000000000000000000000000000000000000000000000000000000600052604160045260246000fd5b6040519080825280601f01601f1916602001820160405280156114ca5781602001600182028036833780820191505090505b5090505b6000851461157d576001826114e391906125cf565b9150600a856114f29190612765565b60306114fe9190612548565b60f81b81838151811061153a577f4e487b7100000000000000000000000000000000000000000000000000000000600052603260045260246000fd5b60200101907effffffffffffffffffffffffffffffffffffffffffffffffffffffffffffff1916908160001a905350600a85611576919061259e565b94506114ce565b8093505050505b919050565b60008151905060006a636f6e736f6c652e6c6f679050602083016000808483855afa5050505050565b600073ffffffffffffffffffffffffffffffffffffffff168373ffffffffffffffffffffffffffffffffffffffff1614156115f5576115f081611857565b611634565b8173ffffffffffffffffffffffffffffffffffffffff168373ffffffffffffffffffffffffffffffffffffffff16146116335761163283826118a0565b5b5b600073ffffffffffffffffffffffffffffffffffffffff168273ffffffffffffffffffffffffffffffffffffffff1614156116775761167281611a0d565b6116b6565b8273ffffffffffffffffffffffffffffffffffffffff168273ffffffffffffffffffffffffffffffffffffffff16146116b5576116b48282611b50565b5b5b505050565b505050565b60006116e18473ffffffffffffffffffffffffffffffffffffffff16611bcf565b1561184a578373ffffffffffffffffffffffffffffffffffffffff1663150b7a0261170a610df4565b8786866040518563ffffffff1660e01b815260040161172c9493929190612210565b602060405180830381600087803b15801561174657600080fd5b505af192505050801561177757506040513d601f19601f820116820180604052508101906117749190611e93565b60015b6117fa573d80600081146117a7576040519150601f19603f3d011682016040523d82523d6000602084013e6117ac565b606091505b506000815114156117f2576040517f08c379a00000000000000000000000000000000000000000000000000000000081526004016117e9906122f4565b60405180910390fd5b805181602001fd5b63150b7a0260e01b7bffffffffffffffffffffffffffffffffffffffffffffffffffffffff1916817bffffffffffffffffffffffffffffffffffffffffffffffffffffffff19161491505061184f565b600190505b949350505050565b6008805490506009600083815260200190815260200160002081905550600881908060018154018082558091505060019003906000526020600020016000909190919091505550565b600060016118ad84610988565b6118b791906125cf565b905060006007600084815260200190815260200160002054905081811461199c576000600660008673ffffffffffffffffffffffffffffffffffffffff1673ffffffffffffffffffffffffffffffffffffffff168152602001908152602001600020600084815260200190815260200160002054905080600660008773ffffffffffffffffffffffffffffffffffffffff1673ffffffffffffffffffffffffffffffffffffffff168152602001908152602001600020600084815260200190815260200160002081905550836007600083815260200190815260200160002081905550505b6007600084815260200190815260200160002060009055600660008573ffffffffffffffffffffffffffffffffffffffff1673ffffffffffffffffffffffffffffffffffffffff16815260200190815260200160002060008381526020019081526020016000206000905550505050565b60006001600880549050611a2191906125cf565b9050600060096000848152602001908152602001600020549050600060088381548110611a77577f4e487b7100000000000000000000000000000000000000000000000000000000600052603260045260246000fd5b906000526020600020015490508060088381548110611abf577f4e487b7100000000000000000000000000000000000000000000000000000000600052603260045260246000fd5b906000526020600020018190555081600960008381526020019081526020016000208190555060096000858152602001908152602001600020600090556008805480611b34577f4e487b7100000000000000000000000000000000000000000000000000000000600052603160045260246000fd5b6001900381819060005260206000200160009055905550505050565b6000611b5b83610988565b905081600660008573ffffffffffffffffffffffffffffffffffffffff1673ffffffffffffffffffffffffffffffffffffffff168152602001908152602001600020600083815260200190815260200160002081905550806007600084815260200190815260200160002081905550505050565b6000808273ffffffffffffffffffffffffffffffffffffffff163b119050919050565b6000611c05611c00846124d4565b6124af565b905082815260208101848484011115611c1d57600080fd5b611c28848285612677565b509392505050565b600081359050611c3f81612cde565b92915050565b600081359050611c5481612cf5565b92915050565b600081359050611c6981612d0c565b92915050565b600081519050611c7e81612d0c565b92915050565b600082601f830112611c9557600080fd5b8135611ca5848260208601611bf2565b91505092915050565b600081359050611cbd81612d23565b92915050565b600060208284031215611cd557600080fd5b6000611ce384828501611c30565b91505092915050565b60008060408385031215611cff57600080fd5b6000611d0d85828601611c30565b9250506020611d1e85828601611c30565b9150509250929050565b600080600060608486031215611d3d57600080fd5b6000611d4b86828701611c30565b9350506020611d5c86828701611c30565b9250506040611d6d86828701611cae565b9150509250925092565b60008060008060808587031215611d8d57600080fd5b6000611d9b87828801611c30565b9450506020611dac87828801611c30565b9350506040611dbd87828801611cae565b925050606085013567ffffffffffffffff811115611dda57600080fd5b611de687828801611c84565b91505092959194509250565b60008060408385031215611e0557600080fd5b6000611e1385828601611c30565b9250506020611e2485828601611c45565b9150509250929050565b60008060408385031215611e4157600080fd5b6000611e4f85828601611c30565b9250506020611e6085828601611cae565b9150509250929050565b600060208284031215611e7c57600080fd5b6000611e8a84828501611c5a565b91505092915050565b600060208284031215611ea557600080fd5b6000611eb384828501611c6f565b91505092915050565b600060208284031215611ece57600080fd5b6000611edc84828501611cae565b91505092915050565b611eee81612603565b82525050565b611efd81612615565b82525050565b611f0c81612621565b82525050565b6000611f1d82612505565b611f27818561251b565b9350611f37818560208601612686565b611f4081612852565b840191505092915050565b6000611f5682612510565b611f60818561252c565b9350611f70818560208601612686565b611f7981612852565b840191505092915050565b6000611f8f82612510565b611f99818561253d565b9350611fa9818560208601612686565b80840191505092915050565b6000611fc260268361252c565b9150611fcd82612863565b604082019050919050565b6000611fe5602b8361252c565b9150611ff0826128b2565b604082019050919050565b600061200860328361252c565b915061201382612901565b604082019050919050565b600061202b60258361252c565b915061203682612950565b604082019050919050565b600061204e60248361252c565b91506120598261299f565b604082019050919050565b6000612071602c8361252c565b915061207c826129ee565b604082019050919050565b600061209460198361252c565b915061209f82612a3d565b602082019050919050565b60006120b760318361252c565b91506120c282612a66565b604082019050919050565b60006120da60388361252c565b91506120e582612ab5565b604082019050919050565b60006120fd60298361252c565b915061210882612b04565b604082019050919050565b6000612120602c8361252c565b915061212b82612b53565b604082019050919050565b6000612143602f8361252c565b915061214e82612ba2565b604082019050919050565b600061216660218361252c565b915061217182612bf1565b604082019050919050565b600061218960318361252c565b915061219482612c40565b604082019050919050565b60006121ac602c8361252c565b91506121b782612c8f565b604082019050919050565b6121cb8161266d565b82525050565b60006121dd8285611f84565b91506121e98284611f84565b91508190509392505050565b600060208201905061220a6000830184611ee5565b92915050565b60006080820190506122256000830187611ee5565b6122326020830186611ee5565b61223f60408301856121c2565b81810360608301526122518184611f12565b905095945050505050565b60006020820190506122716000830184611ef4565b92915050565b600060208201905061228c6000830184611f03565b92915050565b600060208201905081810360008301526122ac8184611f4b565b905092915050565b600060208201905081810360008301526122cd81611fb5565b9050919050565b600060208201905081810360008301526122ed81611fd8565b9050919050565b6000602082019050818103600083015261230d81611ffb565b9050919050565b6000602082019050818103600083015261232d8161201e565b9050919050565b6000602082019050818103600083015261234d81612041565b9050919050565b6000602082019050818103600083015261236d81612064565b9050919050565b6000602082019050818103600083015261238d81612087565b9050919050565b600060208201905081810360008301526123ad816120aa565b9050919050565b600060208201905081810360008301526123cd816120cd565b9050919050565b600060208201905081810360008301526123ed816120f0565b9050919050565b6000602082019050818103600083015261240d81612113565b9050919050565b6000602082019050818103600083015261242d81612136565b9050919050565b6000602082019050818103600083015261244d81612159565b9050919050565b6000602082019050818103600083015261246d8161217c565b9050919050565b6000602082019050818103600083015261248d8161219f565b9050919050565b60006020820190506124a960008301846121c2565b92915050565b60006124b96124ca565b90506124c582826126eb565b919050565b6000604051905090565b600067ffffffffffffffff8211156124ef576124ee612823565b5b6124f882612852565b9050602081019050919050565b600081519050919050565b600081519050919050565b600082825260208201905092915050565b600082825260208201905092915050565b600081905092915050565b60006125538261266d565b915061255e8361266d565b9250827fffffffffffffffffffffffffffffffffffffffffffffffffffffffffffffffff0382111561259357612592612796565b5b828201905092915050565b60006125a98261266d565b91506125b48361266d565b9250826125c4576125c36127c5565b5b828204905092915050565b60006125da8261266d565b91506125e58361266d565b9250828210156125f8576125f7612796565b5b828203905092915050565b600061260e8261264d565b9050919050565b60008115159050919050565b60007fffffffff0000000000000000000000000000000000000000000000000000000082169050919050565b600073ffffffffffffffffffffffffffffffffffffffff82169050919050565b6000819050919050565b82818337600083830152505050565b60005b838110156126a4578082015181840152602081019050612689565b838111156126b3576000848401525b50505050565b600060028204905060018216806126d157607f821691505b602082108114156126e5576126e46127f4565b5b50919050565b6126f482612852565b810181811067ffffffffffffffff8211171561271357612712612823565b5b80604052505050565b60006127278261266d565b91507fffffffffffffffffffffffffffffffffffffffffffffffffffffffffffffffff82141561275a57612759612796565b5b600182019050919050565b60006127708261266d565b915061277b8361266d565b92508261278b5761278a6127c5565b5b828206905092915050565b7f4e487b7100000000000000000000000000000000000000000000000000000000600052601160045260246000fd5b7f4e487b7100000000000000000000000000000000000000000000000000000000600052601260045260246000fd5b7f4e487b7100000000000000000000000000000000000000000000000000000000600052602260045260246000fd5b7f4e487b7100000000000000000000000000000000000000000000000000000000600052604160045260246000fd5b6000601f19601f8301169050919050565b7f4552433732313a2062616c616e636520717565727920666f72207a65726f206160008201527f6464726573730000000000000000000000000000000000000000000000000000602082015250565b7f455243373231456e756d657261626c653a206f776e657220696e646578206f7560008201527f74206f6620626f756e6473000000000000000000000000000000000000000000602082015250565b7f4552433732313a207472616e7366657220746f206e6f6e20455243373231526560008201527f63656976657220696d706c656d656e7465720000000000000000000000000000602082015250565b7f4552433732313a207472616e736665722066726f6d20696e636f72726563742060008201527f6f776e6572000000000000000000000000000000000000000000000000000000602082015250565b7f4552433732313a207472616e7366657220746f20746865207a65726f2061646460008201527f7265737300000000000000000000000000000000000000000000000000000000602082015250565b7f4552433732313a206f70657261746f7220717565727920666f72206e6f6e657860008201527f697374656e7420746f6b656e0000000000000000000000000000000000000000602082015250565b7f4552433732313a20617070726f766520746f2063616c6c656400000000000000600082015250565b7f4552433732313a207472616e736665722063616c6c6572206973206e6f74206f60008201527f776e6572206e6f7420617070726f766564000000000000000000000000000000602082015250565b7f4552433732313a20617070726f76652063616c6c6572206973206e6f74206f7760008201527f6e6572206e6f7220617070726f76656420666f7220616c6c0000000000000000602082015250565b7f4552433732313a206f776e657220717565727920666f72206e6f6e657869737460008201527f656e7420746f6b656e0000000000000000000000000000000000000000000000602082015250565b7f4552433732313a20617070726f76656420717565727920666f72206e6f6e657860008201527f697374656e7420746f6b656e0000000000000000000000000000000000000000602082015250565b7f4552433732314d657461646174613a2055524920717565727920666f72206e6f60008201527f6e6578697374656e7420746f6b656e0000000000000000000000000000000000602082015250565b7f4552433732313a20617070726f76616c20746f2063757272656e74206f776e6560008201527f7200000000000000000000000000000000000000000000000000000000000000602082015250565b7f4552433732313a207472616e736665722063616c6c6572206973206e6f74206f60008201527f776e6572206e6f7220617070726f766564000000000000000000000000000000602082015250565b7f455243373231456e756d657261626c653a20676c6f62616c20696e646578206f60008201527f7574206f6620626f756e64730000000000000000000000000000000000000000602082015250565b612ce781612603565b8114612cf257600080fd5b50565b612cfe81612615565b8114612d0957600080fd5b50565b612d1581612621565b8114612d2057600080fd5b50565b612d2c8161266d565b8114612d3757600080fd5b5056fea26469706673582212202e3045b315b27c16beb56fd3a709926db33b78400f2c56d31e5b8a77ff34a15164736f6c63430008040033",
  "linkReferences": {},
  "deployedLinkReferences": {}
}