{
  "_format": "hh-sol-artifact-1",
  "contractName": "GenArt",
  "sourceName": "contracts/GenArt.sol",
  "abi": [
    {
      "inputs": [
        {
          "internalType": "string",
          "name": "_name",
          "type": "string"
        },
        {
          "internalType": "string",
          "name": "_symbol",
          "type": "string"
        },
        {
          "internalType": "uint256",
          "name": "maxNftSupply",
          "type": "uint256"
        }
      ],
      "stateMutability": "nonpayable",
      "type": "constructor"
    },
    {
      "anonymous": false,
      "inputs": [
        {
          "indexed": true,
          "internalType": "address",
          "name": "owner",
          "type": "address"
        },
        {
          "indexed": true,
          "internalType": "address",
          "name": "approved",
          "type": "address"
        },
        {
          "indexed": true,
          "internalType": "uint256",
          "name": "tokenId",
          "type": "uint256"
        }
      ],
      "name": "Approval",
      "type": "event"
    },
    {
      "anonymous": false,
      "inputs": [
        {
          "indexed": true,
          "internalType": "address",
          "name": "owner",
          "type": "address"
        },
        {
          "indexed": true,
          "internalType": "address",
          "name": "operator",
          "type": "address"
        },
        {
          "indexed": false,
          "internalType": "bool",
          "name": "approved",
          "type": "bool"
        }
      ],
      "name": "ApprovalForAll",
      "type": "event"
    },
    {
      "anonymous": false,
      "inputs": [
        {
          "indexed": true,
          "internalType": "address",
          "name": "from",
          "type": "address"
        },
        {
          "indexed": true,
          "internalType": "address",
          "name": "to",
          "type": "address"
        },
        {
          "indexed": true,
          "internalType": "uint256",
          "name": "tokenId",
          "type": "uint256"
        }
      ],
      "name": "Transfer",
      "type": "event"
    },
    {
      "inputs": [],
      "name": "MAX_SUPPLY",
      "outputs": [
        {
          "internalType": "uint256",
          "name": "",
          "type": "uint256"
        }
      ],
      "stateMutability": "view",
      "type": "function"
    },
    {
      "inputs": [],
      "name": "activateSale",
      "outputs": [],
      "stateMutability": "nonpayable",
      "type": "function"
    },
    {
      "inputs": [
        {
          "internalType": "address",
          "name": "to",
          "type": "address"
        },
        {
          "internalType": "uint256",
          "name": "tokenId",
          "type": "uint256"
        }
      ],
      "name": "approve",
      "outputs": [],
      "stateMutability": "nonpayable",
      "type": "function"
    },
    {
      "inputs": [],
      "name": "artPrice",
      "outputs": [
        {
          "internalType": "uint256",
          "name": "",
          "type": "uint256"
        }
      ],
      "stateMutability": "view",
      "type": "function"
    },
    {
      "inputs": [
        {
          "internalType": "address",
          "name": "owner",
          "type": "address"
        }
      ],
      "name": "balanceOf",
      "outputs": [
        {
          "internalType": "uint256",
          "name": "",
          "type": "uint256"
        }
      ],
      "stateMutability": "view",
      "type": "function"
    },
    {
      "inputs": [
        {
          "internalType": "uint256",
          "name": "tokenId",
          "type": "uint256"
        }
      ],
      "name": "getApproved",
      "outputs": [
        {
          "internalType": "address",
          "name": "",
          "type": "address"
        }
      ],
      "stateMutability": "view",
      "type": "function"
    },
    {
      "inputs": [
        {
          "internalType": "address",
          "name": "owner",
          "type": "address"
        },
        {
          "internalType": "address",
          "name": "operator",
          "type": "address"
        }
      ],
      "name": "isApprovedForAll",
      "outputs": [
        {
          "internalType": "bool",
          "name": "",
          "type": "bool"
        }
      ],
      "stateMutability": "view",
      "type": "function"
    },
    {
      "inputs": [],
      "name": "isSaleActive",
      "outputs": [
        {
          "internalType": "bool",
          "name": "",
          "type": "bool"
        }
      ],
      "stateMutability": "view",
      "type": "function"
    },
    {
      "inputs": [],
      "name": "maxMintAmt",
      "outputs": [
        {
          "internalType": "uint256",
          "name": "",
          "type": "uint256"
        }
      ],
      "stateMutability": "view",
      "type": "function"
    },
    {
      "inputs": [
        {
          "internalType": "uint256",
          "name": "numOfTokens",
          "type": "uint256"
        }
      ],
      "name": "mintArt",
      "outputs": [],
      "stateMutability": "payable",
      "type": "function"
    },
    {
      "inputs": [],
      "name": "name",
      "outputs": [
        {
          "internalType": "string",
          "name": "",
          "type": "string"
        }
      ],
      "stateMutability": "view",
      "type": "function"
    },
    {
      "inputs": [
        {
          "internalType": "uint256",
          "name": "tokenId",
          "type": "uint256"
        }
      ],
      "name": "ownerOf",
      "outputs": [
        {
          "internalType": "address",
          "name": "",
          "type": "address"
        }
      ],
      "stateMutability": "view",
      "type": "function"
    },
    {
      "inputs": [
        {
          "internalType": "address",
          "name": "from",
          "type": "address"
        },
        {
          "internalType": "address",
          "name": "to",
          "type": "address"
        },
        {
          "internalType": "uint256",
          "name": "tokenId",
          "type": "uint256"
        }
      ],
      "name": "safeTransferFrom",
      "outputs": [],
      "stateMutability": "nonpayable",
      "type": "function"
    },
    {
      "inputs": [
        {
          "internalType": "address",
          "name": "from",
          "type": "address"
        },
        {
          "internalType": "address",
          "name": "to",
          "type": "address"
        },
        {
          "internalType": "uint256",
          "name": "tokenId",
          "type": "uint256"
        },
        {
          "internalType": "bytes",
          "name": "_data",
          "type": "bytes"
        }
      ],
      "name": "safeTransferFrom",
      "outputs": [],
      "stateMutability": "nonpayable",
      "type": "function"
    },
    {
      "inputs": [
        {
          "internalType": "address",
          "name": "operator",
          "type": "address"
        },
        {
          "internalType": "bool",
          "name": "approved",
          "type": "bool"
        }
      ],
      "name": "setApprovalForAll",
      "outputs": [],
      "stateMutability": "nonpayable",
      "type": "function"
    },
    {
      "inputs": [
        {
          "internalType": "bytes4",
          "name": "interfaceId",
          "type": "bytes4"
        }
      ],
      "name": "supportsInterface",
      "outputs": [
        {
          "internalType": "bool",
          "name": "",
          "type": "bool"
        }
      ],
      "stateMutability": "view",
      "type": "function"
    },
    {
      "inputs": [],
      "name": "symbol",
      "outputs": [
        {
          "internalType": "string",
          "name": "",
          "type": "string"
        }
      ],
      "stateMutability": "view",
      "type": "function"
    },
    {
      "inputs": [
        {
          "internalType": "uint256",
          "name": "index",
          "type": "uint256"
        }
      ],
      "name": "tokenByIndex",
      "outputs": [
        {
          "internalType": "uint256",
          "name": "",
          "type": "uint256"
        }
      ],
      "stateMutability": "view",
      "type": "function"
    },
    {
      "inputs": [
        {
          "internalType": "address",
          "name": "owner",
          "type": "address"
        },
        {
          "internalType": "uint256",
          "name": "index",
          "type": "uint256"
        }
      ],
      "name": "tokenOfOwnerByIndex",
      "outputs": [
        {
          "internalType": "uint256",
          "name": "",
          "type": "uint256"
        }
      ],
      "stateMutability": "view",
      "type": "function"
    },
    {
      "inputs": [
        {
          "internalType": "uint256",
          "name": "tokenId",
          "type": "uint256"
        }
      ],
      "name": "tokenURI",
      "outputs": [
        {
          "internalType": "string",
          "name": "",
          "type": "string"
        }
      ],
      "stateMutability": "view",
      "type": "function"
    },
    {
      "inputs": [],
      "name": "totalSupply",
      "outputs": [
        {
          "internalType": "uint256",
          "name": "",
          "type": "uint256"
        }
      ],
      "stateMutability": "view",
      "type": "function"
    },
    {
      "inputs": [
        {
          "internalType": "address",
          "name": "from",
          "type": "address"
        },
        {
          "internalType": "address",
          "name": "to",
          "type": "address"
        },
        {
          "internalType": "uint256",
          "name": "tokenId",
          "type": "uint256"
        }
      ],
      "name": "transferFrom",
      "outputs": [],
      "stateMutability": "nonpayable",
      "type": "function"
    }
  ],
  "bytecode": "0x60806040526000600a60006101000a81548160ff0219169083151502179055503480156200002c57600080fd5b506040516200395f3803806200395f8339818101604052810190620000529190620001d1565b828281600090805190602001906200006c92919062000098565b5080600190805190602001906200008592919062000098565b50505080600b81905550505050620003ae565b828054620000a69062000300565b90600052602060002090601f016020900481019282620000ca576000855562000116565b82601f10620000e557805160ff191683800117855562000116565b8280016001018555821562000116579182015b8281111562000115578251825591602001919060010190620000f8565b5b50905062000125919062000129565b5090565b5b80821115620001445760008160009055506001016200012a565b5090565b60006200015f62000159846200028d565b62000259565b9050828152602081018484840111156200017857600080fd5b62000185848285620002ca565b509392505050565b600082601f8301126200019f57600080fd5b8151620001b184826020860162000148565b91505092915050565b600081519050620001cb8162000394565b92915050565b600080600060608486031215620001e757600080fd5b600084015167ffffffffffffffff8111156200020257600080fd5b62000210868287016200018d565b935050602084015167ffffffffffffffff8111156200022e57600080fd5b6200023c868287016200018d565b92505060406200024f86828701620001ba565b9150509250925092565b6000604051905081810181811067ffffffffffffffff8211171562000283576200028262000365565b5b8060405250919050565b600067ffffffffffffffff821115620002ab57620002aa62000365565b5b601f19601f8301169050602081019050919050565b6000819050919050565b60005b83811015620002ea578082015181840152602081019050620002cd565b83811115620002fa576000848401525b50505050565b600060028204905060018216806200031957607f821691505b6020821081141562000330576200032f62000336565b5b50919050565b7f4e487b7100000000000000000000000000000000000000000000000000000000600052602260045260246000fd5b7f4e487b7100000000000000000000000000000000000000000000000000000000600052604160045260246000fd5b6200039f81620002c0565b8114620003ab57600080fd5b50565b6135a180620003be6000396000f3fe6080604052600436106101355760003560e01c8063564566a8116100ab578063a22cb4651161006f578063a22cb46514610441578063a53dc05f1461046a578063b88d4fde14610495578063c721f08d146104be578063c87b56dd146104d5578063e985e9c51461051257610135565b8063564566a8146103465780636352211e1461037157806370a08231146103ae57806395d89b41146103eb5780639e42725f1461041657610135565b806323b872dd116100fd57806323b872dd146102335780632f745c591461025c57806332cb6b0c1461029957806342842e0e146102c45780634f6ccce7146102ed578063535f76681461032a57610135565b806301ffc9a71461013a57806306fdde0314610177578063081812fc146101a2578063095ea7b3146101df57806318160ddd14610208575b600080fd5b34801561014657600080fd5b50610161600480360381019061015c919061248f565b61054f565b60405161016e9190612e14565b60405180910390f35b34801561018357600080fd5b5061018c6106c2565b6040516101999190612e4a565b60405180910390f35b3480156101ae57600080fd5b506101c960048036038101906101c491906124e1565b610754565b6040516101d69190612dad565b60405180910390f35b3480156101eb57600080fd5b5061020660048036038101906102019190612453565b6107d9565b005b34801561021457600080fd5b5061021d6108f1565b60405161022a919061310c565b60405180910390f35b34801561023f57600080fd5b5061025a6004803603810190610255919061234d565b6108fe565b005b34801561026857600080fd5b50610283600480360381019061027e9190612453565b61095e565b604051610290919061310c565b60405180910390f35b3480156102a557600080fd5b506102ae610a03565b6040516102bb919061310c565b60405180910390f35b3480156102d057600080fd5b506102eb60048036038101906102e6919061234d565b610a09565b005b3480156102f957600080fd5b50610314600480360381019061030f91906124e1565b610a29565b604051610321919061310c565b60405180910390f35b610344600480360381019061033f91906124e1565b610ac0565b005b34801561035257600080fd5b5061035b610c4b565b6040516103689190612e14565b60405180910390f35b34801561037d57600080fd5b50610398600480360381019061039391906124e1565b610c5e565b6040516103a59190612dad565b60405180910390f35b3480156103ba57600080fd5b506103d560048036038101906103d091906122e8565b610d10565b6040516103e2919061310c565b60405180910390f35b3480156103f757600080fd5b50610400610dc8565b60405161040d9190612e4a565b60405180910390f35b34801561042257600080fd5b5061042b610e5a565b604051610438919061310c565b60405180910390f35b34801561044d57600080fd5b5061046860048036038101906104639190612417565b610e66565b005b34801561047657600080fd5b5061047f610e7c565b60405161048c919061310c565b60405180910390f35b3480156104a157600080fd5b506104bc60048036038101906104b7919061239c565b610e81565b005b3480156104ca57600080fd5b506104d3610ee3565b005b3480156104e157600080fd5b506104fc60048036038101906104f791906124e1565b610f00565b6040516105099190612e4a565b60405180910390f35b34801561051e57600080fd5b5061053960048036038101906105349190612311565b610fa7565b6040516105469190612e14565b60405180910390f35b600061057a7f780e9d630000000000000000000000000000000000000000000000000000000061103b565b7f80ac58cd000000000000000000000000000000000000000000000000000000007bffffffffffffffffffffffffffffffffffffffffffffffffffffffff1916827bffffffffffffffffffffffffffffffffffffffffffffffffffffffff1916148061064357507f5b5e139f000000000000000000000000000000000000000000000000000000007bffffffffffffffffffffffffffffffffffffffffffffffffffffffff1916827bffffffffffffffffffffffffffffffffffffffffffffffffffffffff1916145b806106ab57507f780e9d63000000000000000000000000000000000000000000000000000000007bffffffffffffffffffffffffffffffffffffffffffffffffffffffff1916827bffffffffffffffffffffffffffffffffffffffffffffffffffffffff1916145b806106bb57506106ba826110d4565b5b9050919050565b6060600080546106d190613396565b80601f01602080910402602001604051908101604052809291908181526020018280546106fd90613396565b801561074a5780601f1061071f5761010080835404028352916020019161074a565b820191906000526020600020905b81548152906001019060200180831161072d57829003601f168201915b5050505050905090565b600061075f8261113e565b61079e576040517f08c379a00000000000000000000000000000000000000000000000000000000081526004016107959061302c565b60405180910390fd5b6004600083815260200190815260200160002060009054906101000a900473ffffffffffffffffffffffffffffffffffffffff169050919050565b60006107e482610c5e565b90508073ffffffffffffffffffffffffffffffffffffffff168373ffffffffffffffffffffffffffffffffffffffff161415610855576040517f08c379a000000000000000000000000000000000000000000000000000000000815260040161084c9061308c565b60405180910390fd5b8073ffffffffffffffffffffffffffffffffffffffff166108746111aa565b73ffffffffffffffffffffffffffffffffffffffff1614806108a357506108a28161089d6111aa565b610fa7565b5b6108e2576040517f08c379a00000000000000000000000000000000000000000000000000000000081526004016108d990612fac565b60405180910390fd5b6108ec83836111b2565b505050565b6000600880549050905090565b61090f6109096111aa565b8261126b565b61094e576040517f08c379a000000000000000000000000000000000000000000000000000000000815260040161094590612f8c565b60405180910390fd5b610959838383611349565b505050565b600061096983610d10565b82106109aa576040517f08c379a00000000000000000000000000000000000000000000000000000000081526004016109a190612e8c565b60405180910390fd5b600660008473ffffffffffffffffffffffffffffffffffffffff1673ffffffffffffffffffffffffffffffffffffffff168152602001908152602001600020600083815260200190815260200160002054905092915050565b600b5481565b610a2483838360405180602001604052806000815250610e81565b505050565b6000610a336108f1565b8210610a74576040517f08c379a0000000000000000000000000000000000000000000000000000000008152600401610a6b906130cc565b60405180910390fd5b60088281548110610aae577f4e487b7100000000000000000000000000000000000000000000000000000000600052603260045260246000fd5b90600052602060002001549050919050565b600a60009054906101000a900460ff16610b0f576040517f08c379a0000000000000000000000000000000000000000000000000000000008152600401610b0690612fcc565b60405180910390fd5b600a811115610b53576040517f08c379a0000000000000000000000000000000000000000000000000000000008152600401610b4a906130ec565b60405180910390fd5b600b5481610b5f6108f1565b610b6991906131cb565b1115610baa576040517f08c379a0000000000000000000000000000000000000000000000000000000008152600401610ba19061304c565b60405180910390fd5b348167016345785d8a0000610bbf9190613252565b1115610c00576040517f08c379a0000000000000000000000000000000000000000000000000000000008152600401610bf790612f2c565b60405180910390fd5b60005b81811015610c47576000610c156108f1565b9050600b54610c226108f1565b1015610c3357610c3233826115b2565b5b508080610c3f906133c8565b915050610c03565b5050565b600a60009054906101000a900460ff1681565b6000806002600084815260200190815260200160002060009054906101000a900473ffffffffffffffffffffffffffffffffffffffff169050600073ffffffffffffffffffffffffffffffffffffffff168173ffffffffffffffffffffffffffffffffffffffff161415610d07576040517f08c379a0000000000000000000000000000000000000000000000000000000008152600401610cfe90612fec565b60405180910390fd5b80915050919050565b60008073ffffffffffffffffffffffffffffffffffffffff168273ffffffffffffffffffffffffffffffffffffffff161415610d81576040517f08c379a0000000000000000000000000000000000000000000000000000000008152600401610d7890612e6c565b60405180910390fd5b600360008373ffffffffffffffffffffffffffffffffffffffff1673ffffffffffffffffffffffffffffffffffffffff168152602001908152602001600020549050919050565b606060018054610dd790613396565b80601f0160208091040260200160405190810160405280929190818152602001828054610e0390613396565b8015610e505780601f10610e2557610100808354040283529160200191610e50565b820191906000526020600020905b815481529060010190602001808311610e3357829003601f168201915b5050505050905090565b67016345785d8a000081565b610e78610e716111aa565b83836115d0565b5050565b600a81565b610e92610e8c6111aa565b8361126b565b610ed1576040517f08c379a0000000000000000000000000000000000000000000000000000000008152600401610ec8906130ac565b60405180910390fd5b610edd8484848461173d565b50505050565b6001600a60006101000a81548160ff021916908315150217905550565b6060610f0b8261113e565b610f4a576040517f08c379a0000000000000000000000000000000000000000000000000000000008152600401610f419061306c565b60405180910390fd5b6000610f54611799565b90506000815111610f745760405180602001604052806000815250610f9f565b80610f7e846117b0565b604051602001610f8f929190612d89565b6040516020818303038152906040525b915050919050565b6000600560008473ffffffffffffffffffffffffffffffffffffffff1673ffffffffffffffffffffffffffffffffffffffff16815260200190815260200160002060008373ffffffffffffffffffffffffffffffffffffffff1673ffffffffffffffffffffffffffffffffffffffff16815260200190815260200160002060009054906101000a900460ff16905092915050565b6110d18160405160240161104f9190612e2f565b6040516020818303038152906040527fe05f48d1000000000000000000000000000000000000000000000000000000007bffffffffffffffffffffffffffffffffffffffffffffffffffffffff19166020820180517bffffffffffffffffffffffffffffffffffffffffffffffffffffffff838183161783525050505061195d565b50565b60007f01ffc9a7000000000000000000000000000000000000000000000000000000007bffffffffffffffffffffffffffffffffffffffffffffffffffffffff1916827bffffffffffffffffffffffffffffffffffffffffffffffffffffffff1916149050919050565b60008073ffffffffffffffffffffffffffffffffffffffff166002600084815260200190815260200160002060009054906101000a900473ffffffffffffffffffffffffffffffffffffffff1673ffffffffffffffffffffffffffffffffffffffff1614159050919050565b600033905090565b816004600083815260200190815260200160002060006101000a81548173ffffffffffffffffffffffffffffffffffffffff021916908373ffffffffffffffffffffffffffffffffffffffff160217905550808273ffffffffffffffffffffffffffffffffffffffff1661122583610c5e565b73ffffffffffffffffffffffffffffffffffffffff167f8c5be1e5ebec7d5bd14f71427d1e84f3dd0314c0f7b2291e5b200ac8c7c3b92560405160405180910390a45050565b60006112768261113e565b6112b5576040517f08c379a00000000000000000000000000000000000000000000000000000000081526004016112ac90612f4c565b60405180910390fd5b60006112c083610c5e565b90508073ffffffffffffffffffffffffffffffffffffffff168473ffffffffffffffffffffffffffffffffffffffff16148061132f57508373ffffffffffffffffffffffffffffffffffffffff1661131784610754565b73ffffffffffffffffffffffffffffffffffffffff16145b80611340575061133f8185610fa7565b5b91505092915050565b8273ffffffffffffffffffffffffffffffffffffffff1661136982610c5e565b73ffffffffffffffffffffffffffffffffffffffff16146113bf576040517f08c379a00000000000000000000000000000000000000000000000000000000081526004016113b690612ecc565b60405180910390fd5b600073ffffffffffffffffffffffffffffffffffffffff168273ffffffffffffffffffffffffffffffffffffffff16141561142f576040517f08c379a000000000000000000000000000000000000000000000000000000000815260040161142690612f0c565b60405180910390fd5b61143b60008383611986565b6114466000826111b2565b6001600360008573ffffffffffffffffffffffffffffffffffffffff1673ffffffffffffffffffffffffffffffffffffffff168152602001908152602001600020600082825461149691906132ac565b925050819055506001600360008473ffffffffffffffffffffffffffffffffffffffff1673ffffffffffffffffffffffffffffffffffffffff16815260200190815260200160002060008282546114ed91906131cb565b92505081905550816002600083815260200190815260200160002060006101000a81548173ffffffffffffffffffffffffffffffffffffffff021916908373ffffffffffffffffffffffffffffffffffffffff160217905550808273ffffffffffffffffffffffffffffffffffffffff168473ffffffffffffffffffffffffffffffffffffffff167fddf252ad1be2c89b69c2b068fc378daa952ba7f163c4a11628f55a4df523b3ef60405160405180910390a46115ad60008383611a8f565b505050565b6115cc828260405180602001604052806000815250611a94565b5050565b8173ffffffffffffffffffffffffffffffffffffffff168373ffffffffffffffffffffffffffffffffffffffff16141561163f576040517f08c379a000000000000000000000000000000000000000000000000000000000815260040161163690612f6c565b60405180910390fd5b80600560008573ffffffffffffffffffffffffffffffffffffffff1673ffffffffffffffffffffffffffffffffffffffff16815260200190815260200160002060008473ffffffffffffffffffffffffffffffffffffffff1673ffffffffffffffffffffffffffffffffffffffff16815260200190815260200160002060006101000a81548160ff0219169083151502179055508173ffffffffffffffffffffffffffffffffffffffff168373ffffffffffffffffffffffffffffffffffffffff167f17307eab39ab6107e8899845ad3d59bd9653f200f220920489ca2b5937696c31836040516117309190612e14565b60405180910390a3505050565b611748848484611349565b61175484848484611aef565b611793576040517f08c379a000000000000000000000000000000000000000000000000000000000815260040161178a90612eac565b60405180910390fd5b50505050565b606060405180602001604052806000815250905090565b606060008214156117f8576040518060400160405280600181526020017f30000000000000000000000000000000000000000000000000000000000000008152509050611958565b600082905060005b6000821461182a578080611813906133c8565b915050600a826118239190613221565b9150611800565b60008167ffffffffffffffff81111561186c577f4e487b7100000000000000000000000000000000000000000000000000000000600052604160045260246000fd5b6040519080825280601f01601f19166020018201604052801561189e5781602001600182028036833780820191505090505b5090505b60008514611951576001826118b791906132ac565b9150600a856118c69190613411565b60306118d291906131cb565b60f81b81838151811061190e577f4e487b7100000000000000000000000000000000000000000000000000000000600052603260045260246000fd5b60200101907effffffffffffffffffffffffffffffffffffffffffffffffffffffffffffff1916908160001a905350600a8561194a9190613221565b94506118a2565b8093505050505b919050565b60008151905060006a636f6e736f6c652e6c6f679050602083016000808483855afa5050505050565b600073ffffffffffffffffffffffffffffffffffffffff168373ffffffffffffffffffffffffffffffffffffffff1614156119c9576119c481611c86565b611a08565b8173ffffffffffffffffffffffffffffffffffffffff168373ffffffffffffffffffffffffffffffffffffffff1614611a0757611a068382611ccf565b5b5b600073ffffffffffffffffffffffffffffffffffffffff168273ffffffffffffffffffffffffffffffffffffffff161415611a4b57611a4681611e3c565b611a8a565b8273ffffffffffffffffffffffffffffffffffffffff168273ffffffffffffffffffffffffffffffffffffffff1614611a8957611a888282611f7f565b5b5b505050565b505050565b611a9e8383611ffe565b611aab6000848484611aef565b611aea576040517f08c379a0000000000000000000000000000000000000000000000000000000008152600401611ae190612eac565b60405180910390fd5b505050565b6000611b108473ffffffffffffffffffffffffffffffffffffffff166121d8565b15611c79578373ffffffffffffffffffffffffffffffffffffffff1663150b7a02611b396111aa565b8786866040518563ffffffff1660e01b8152600401611b5b9493929190612dc8565b602060405180830381600087803b158015611b7557600080fd5b505af1925050508015611ba657506040513d601f19601f82011682018060405250810190611ba391906124b8565b60015b611c29573d8060008114611bd6576040519150601f19603f3d011682016040523d82523d6000602084013e611bdb565b606091505b50600081511415611c21576040517f08c379a0000000000000000000000000000000000000000000000000000000008152600401611c1890612eac565b60405180910390fd5b805181602001fd5b63150b7a0260e01b7bffffffffffffffffffffffffffffffffffffffffffffffffffffffff1916817bffffffffffffffffffffffffffffffffffffffffffffffffffffffff191614915050611c7e565b600190505b949350505050565b6008805490506009600083815260200190815260200160002081905550600881908060018154018082558091505060019003906000526020600020016000909190919091505550565b60006001611cdc84610d10565b611ce691906132ac565b9050600060076000848152602001908152602001600020549050818114611dcb576000600660008673ffffffffffffffffffffffffffffffffffffffff1673ffffffffffffffffffffffffffffffffffffffff168152602001908152602001600020600084815260200190815260200160002054905080600660008773ffffffffffffffffffffffffffffffffffffffff1673ffffffffffffffffffffffffffffffffffffffff168152602001908152602001600020600084815260200190815260200160002081905550836007600083815260200190815260200160002081905550505b6007600084815260200190815260200160002060009055600660008573ffffffffffffffffffffffffffffffffffffffff1673ffffffffffffffffffffffffffffffffffffffff16815260200190815260200160002060008381526020019081526020016000206000905550505050565b60006001600880549050611e5091906132ac565b9050600060096000848152602001908152602001600020549050600060088381548110611ea6577f4e487b7100000000000000000000000000000000000000000000000000000000600052603260045260246000fd5b906000526020600020015490508060088381548110611eee577f4e487b7100000000000000000000000000000000000000000000000000000000600052603260045260246000fd5b906000526020600020018190555081600960008381526020019081526020016000208190555060096000858152602001908152602001600020600090556008805480611f63577f4e487b7100000000000000000000000000000000000000000000000000000000600052603160045260246000fd5b6001900381819060005260206000200160009055905550505050565b6000611f8a83610d10565b905081600660008573ffffffffffffffffffffffffffffffffffffffff1673ffffffffffffffffffffffffffffffffffffffff168152602001908152602001600020600083815260200190815260200160002081905550806007600084815260200190815260200160002081905550505050565b600073ffffffffffffffffffffffffffffffffffffffff168273ffffffffffffffffffffffffffffffffffffffff16141561206e576040517f08c379a00000000000000000000000000000000000000000000000000000000081526004016120659061300c565b60405180910390fd5b6120778161113e565b156120b7576040517f08c379a00000000000000000000000000000000000000000000000000000000081526004016120ae90612eec565b60405180910390fd5b6120c360008383611986565b6001600360008473ffffffffffffffffffffffffffffffffffffffff1673ffffffffffffffffffffffffffffffffffffffff168152602001908152602001600020600082825461211391906131cb565b92505081905550816002600083815260200190815260200160002060006101000a81548173ffffffffffffffffffffffffffffffffffffffff021916908373ffffffffffffffffffffffffffffffffffffffff160217905550808273ffffffffffffffffffffffffffffffffffffffff16600073ffffffffffffffffffffffffffffffffffffffff167fddf252ad1be2c89b69c2b068fc378daa952ba7f163c4a11628f55a4df523b3ef60405160405180910390a46121d460008383611a8f565b5050565b6000808273ffffffffffffffffffffffffffffffffffffffff16803b806020016040519081016040528181526000908060200190933c51119050919050565b600061222a61222584613158565b613127565b90508281526020810184848401111561224257600080fd5b61224d848285613354565b509392505050565b6000813590506122648161350f565b92915050565b60008135905061227981613526565b92915050565b60008135905061228e8161353d565b92915050565b6000815190506122a38161353d565b92915050565b600082601f8301126122ba57600080fd5b81356122ca848260208601612217565b91505092915050565b6000813590506122e281613554565b92915050565b6000602082840312156122fa57600080fd5b600061230884828501612255565b91505092915050565b6000806040838503121561232457600080fd5b600061233285828601612255565b925050602061234385828601612255565b9150509250929050565b60008060006060848603121561236257600080fd5b600061237086828701612255565b935050602061238186828701612255565b9250506040612392868287016122d3565b9150509250925092565b600080600080608085870312156123b257600080fd5b60006123c087828801612255565b94505060206123d187828801612255565b93505060406123e2878288016122d3565b925050606085013567ffffffffffffffff8111156123ff57600080fd5b61240b878288016122a9565b91505092959194509250565b6000806040838503121561242a57600080fd5b600061243885828601612255565b92505060206124498582860161226a565b9150509250929050565b6000806040838503121561246657600080fd5b600061247485828601612255565b9250506020612485858286016122d3565b9150509250929050565b6000602082840312156124a157600080fd5b60006124af8482850161227f565b91505092915050565b6000602082840312156124ca57600080fd5b60006124d884828501612294565b91505092915050565b6000602082840312156124f357600080fd5b6000612501848285016122d3565b91505092915050565b612513816132e0565b82525050565b612522816132f2565b82525050565b612531816132fe565b82525050565b600061254282613188565b61254c818561319e565b935061255c818560208601613363565b612565816134fe565b840191505092915050565b600061257b82613193565b61258581856131af565b9350612595818560208601613363565b61259e816134fe565b840191505092915050565b60006125b482613193565b6125be81856131c0565b93506125ce818560208601613363565b80840191505092915050565b60006125e76026836131af565b91507f4552433732313a2062616c616e636520717565727920666f72207a65726f206160008301527f64647265737300000000000000000000000000000000000000000000000000006020830152604082019050919050565b600061264d602b836131af565b91507f455243373231456e756d657261626c653a206f776e657220696e646578206f7560008301527f74206f6620626f756e64730000000000000000000000000000000000000000006020830152604082019050919050565b60006126b36032836131af565b91507f4552433732313a207472616e7366657220746f206e6f6e20455243373231526560008301527f63656976657220696d706c656d656e74657200000000000000000000000000006020830152604082019050919050565b60006127196025836131af565b91507f4552433732313a207472616e736665722066726f6d20696e636f72726563742060008301527f6f776e65720000000000000000000000000000000000000000000000000000006020830152604082019050919050565b600061277f601c836131af565b91507f4552433732313a20746f6b656e20616c7265616479206d696e746564000000006000830152602082019050919050565b60006127bf6024836131af565b91507f4552433732313a207472616e7366657220746f20746865207a65726f2061646460008301527f72657373000000000000000000000000000000000000000000000000000000006020830152604082019050919050565b6000612825601f836131af565b91507f45746865722076616c75652073656e74206973206e6f7420636f7272656374006000830152602082019050919050565b6000612865602c836131af565b91507f4552433732313a206f70657261746f7220717565727920666f72206e6f6e657860008301527f697374656e7420746f6b656e00000000000000000000000000000000000000006020830152604082019050919050565b60006128cb6019836131af565b91507f4552433732313a20617070726f766520746f2063616c6c6564000000000000006000830152602082019050919050565b600061290b6031836131af565b91507f4552433732313a207472616e736665722063616c6c6572206973206e6f74206f60008301527f776e6572206e6f7420617070726f7665640000000000000000000000000000006020830152604082019050919050565b60006129716038836131af565b91507f4552433732313a20617070726f76652063616c6c6572206973206e6f74206f7760008301527f6e6572206e6f7220617070726f76656420666f7220616c6c00000000000000006020830152604082019050919050565b60006129d7601f836131af565b91507f5468652073616c65206d7573742062652061637469766520746f206d696e74006000830152602082019050919050565b6000612a176029836131af565b91507f4552433732313a206f776e657220717565727920666f72206e6f6e657869737460008301527f656e7420746f6b656e00000000000000000000000000000000000000000000006020830152604082019050919050565b6000612a7d6020836131af565b91507f4552433732313a206d696e7420746f20746865207a65726f20616464726573736000830152602082019050919050565b6000612abd602c836131af565b91507f4552433732313a20617070726f76656420717565727920666f72206e6f6e657860008301527f697374656e7420746f6b656e00000000000000000000000000000000000000006020830152604082019050919050565b6000612b236024836131af565b91507f507572636861736520776f756c6420657863656564206d6178696d756d20737560008301527f70706c79000000000000000000000000000000000000000000000000000000006020830152604082019050919050565b6000612b89602f836131af565b91507f4552433732314d657461646174613a2055524920717565727920666f72206e6f60008301527f6e6578697374656e7420746f6b656e00000000000000000000000000000000006020830152604082019050919050565b6000612bef6021836131af565b91507f4552433732313a20617070726f76616c20746f2063757272656e74206f776e6560008301527f72000000000000000000000000000000000000000000000000000000000000006020830152604082019050919050565b6000612c556031836131af565b91507f4552433732313a207472616e736665722063616c6c6572206973206e6f74206f60008301527f776e6572206e6f7220617070726f7665640000000000000000000000000000006020830152604082019050919050565b6000612cbb602c836131af565b91507f455243373231456e756d657261626c653a20676c6f62616c20696e646578206f60008301527f7574206f6620626f756e647300000000000000000000000000000000000000006020830152604082019050919050565b6000612d216021836131af565b91507f43616e206f6e6c79206d696e7420313020746f6b656e7320617420612074696d60008301527f65000000000000000000000000000000000000000000000000000000000000006020830152604082019050919050565b612d838161334a565b82525050565b6000612d9582856125a9565b9150612da182846125a9565b91508190509392505050565b6000602082019050612dc2600083018461250a565b92915050565b6000608082019050612ddd600083018761250a565b612dea602083018661250a565b612df76040830185612d7a565b8181036060830152612e098184612537565b905095945050505050565b6000602082019050612e296000830184612519565b92915050565b6000602082019050612e446000830184612528565b92915050565b60006020820190508181036000830152612e648184612570565b905092915050565b60006020820190508181036000830152612e85816125da565b9050919050565b60006020820190508181036000830152612ea581612640565b9050919050565b60006020820190508181036000830152612ec5816126a6565b9050919050565b60006020820190508181036000830152612ee58161270c565b9050919050565b60006020820190508181036000830152612f0581612772565b9050919050565b60006020820190508181036000830152612f25816127b2565b9050919050565b60006020820190508181036000830152612f4581612818565b9050919050565b60006020820190508181036000830152612f6581612858565b9050919050565b60006020820190508181036000830152612f85816128be565b9050919050565b60006020820190508181036000830152612fa5816128fe565b9050919050565b60006020820190508181036000830152612fc581612964565b9050919050565b60006020820190508181036000830152612fe5816129ca565b9050919050565b6000602082019050818103600083015261300581612a0a565b9050919050565b6000602082019050818103600083015261302581612a70565b9050919050565b6000602082019050818103600083015261304581612ab0565b9050919050565b6000602082019050818103600083015261306581612b16565b9050919050565b6000602082019050818103600083015261308581612b7c565b9050919050565b600060208201905081810360008301526130a581612be2565b9050919050565b600060208201905081810360008301526130c581612c48565b9050919050565b600060208201905081810360008301526130e581612cae565b9050919050565b6000602082019050818103600083015261310581612d14565b9050919050565b60006020820190506131216000830184612d7a565b92915050565b6000604051905081810181811067ffffffffffffffff8211171561314e5761314d6134cf565b5b8060405250919050565b600067ffffffffffffffff821115613173576131726134cf565b5b601f19601f8301169050602081019050919050565b600081519050919050565b600081519050919050565b600082825260208201905092915050565b600082825260208201905092915050565b600081905092915050565b60006131d68261334a565b91506131e18361334a565b9250827fffffffffffffffffffffffffffffffffffffffffffffffffffffffffffffffff0382111561321657613215613442565b5b828201905092915050565b600061322c8261334a565b91506132378361334a565b92508261324757613246613471565b5b828204905092915050565b600061325d8261334a565b91506132688361334a565b9250817fffffffffffffffffffffffffffffffffffffffffffffffffffffffffffffffff04831182151516156132a1576132a0613442565b5b828202905092915050565b60006132b78261334a565b91506132c28361334a565b9250828210156132d5576132d4613442565b5b828203905092915050565b60006132eb8261332a565b9050919050565b60008115159050919050565b60007fffffffff0000000000000000000000000000000000000000000000000000000082169050919050565b600073ffffffffffffffffffffffffffffffffffffffff82169050919050565b6000819050919050565b82818337600083830152505050565b60005b83811015613381578082015181840152602081019050613366565b83811115613390576000848401525b50505050565b600060028204905060018216806133ae57607f821691505b602082108114156133c2576133c16134a0565b5b50919050565b60006133d38261334a565b91507fffffffffffffffffffffffffffffffffffffffffffffffffffffffffffffffff82141561340657613405613442565b5b600182019050919050565b600061341c8261334a565b91506134278361334a565b92508261343757613436613471565b5b828206905092915050565b7f4e487b7100000000000000000000000000000000000000000000000000000000600052601160045260246000fd5b7f4e487b7100000000000000000000000000000000000000000000000000000000600052601260045260246000fd5b7f4e487b7100000000000000000000000000000000000000000000000000000000600052602260045260246000fd5b7f4e487b7100000000000000000000000000000000000000000000000000000000600052604160045260246000fd5b6000601f19601f8301169050919050565b613518816132e0565b811461352357600080fd5b50565b61352f816132f2565b811461353a57600080fd5b50565b613546816132fe565b811461355157600080fd5b50565b61355d8161334a565b811461356857600080fd5b5056fea2646970667358221220351a904d0d0c9459e770fabb1180f957989a7653ab3ca422ae7dd1a534a5798264736f6c63430008000033",
  "linkReferences": {},
  "deployedLinkReferences": {}
}