{
  "_format": "hh-sol-artifact-1",
  "contractName": "GenArt",
  "sourceName": "contracts/GenArt.sol",
  "abi": [
    {
      "inputs": [
        {
          "internalType": "string",
          "name": "_name",
          "type": "string"
        },
        {
          "internalType": "string",
          "name": "_symbol",
          "type": "string"
        },
        {
          "internalType": "uint256",
          "name": "maxNftSupply",
          "type": "uint256"
        }
      ],
      "stateMutability": "nonpayable",
      "type": "constructor"
    },
    {
      "anonymous": false,
      "inputs": [
        {
          "indexed": true,
          "internalType": "address",
          "name": "owner",
          "type": "address"
        },
        {
          "indexed": true,
          "internalType": "address",
          "name": "approved",
          "type": "address"
        },
        {
          "indexed": true,
          "internalType": "uint256",
          "name": "tokenId",
          "type": "uint256"
        }
      ],
      "name": "Approval",
      "type": "event"
    },
    {
      "anonymous": false,
      "inputs": [
        {
          "indexed": true,
          "internalType": "address",
          "name": "owner",
          "type": "address"
        },
        {
          "indexed": true,
          "internalType": "address",
          "name": "operator",
          "type": "address"
        },
        {
          "indexed": false,
          "internalType": "bool",
          "name": "approved",
          "type": "bool"
        }
      ],
      "name": "ApprovalForAll",
      "type": "event"
    },
    {
      "anonymous": false,
      "inputs": [
        {
          "indexed": true,
          "internalType": "address",
          "name": "from",
          "type": "address"
        },
        {
          "indexed": true,
          "internalType": "address",
          "name": "to",
          "type": "address"
        },
        {
          "indexed": true,
          "internalType": "uint256",
          "name": "tokenId",
          "type": "uint256"
        }
      ],
      "name": "Transfer",
      "type": "event"
    },
    {
      "inputs": [],
      "name": "MAX_SUPPLY",
      "outputs": [
        {
          "internalType": "uint256",
          "name": "",
          "type": "uint256"
        }
      ],
      "stateMutability": "view",
      "type": "function"
    },
    {
      "inputs": [],
      "name": "activateSale",
      "outputs": [],
      "stateMutability": "nonpayable",
      "type": "function"
    },
    {
      "inputs": [
        {
          "internalType": "address",
          "name": "to",
          "type": "address"
        },
        {
          "internalType": "uint256",
          "name": "tokenId",
          "type": "uint256"
        }
      ],
      "name": "approve",
      "outputs": [],
      "stateMutability": "nonpayable",
      "type": "function"
    },
    {
      "inputs": [],
      "name": "artPrice",
      "outputs": [
        {
          "internalType": "uint256",
          "name": "",
          "type": "uint256"
        }
      ],
      "stateMutability": "view",
      "type": "function"
    },
    {
      "inputs": [
        {
          "internalType": "address",
          "name": "owner",
          "type": "address"
        }
      ],
      "name": "balanceOf",
      "outputs": [
        {
          "internalType": "uint256",
          "name": "",
          "type": "uint256"
        }
      ],
      "stateMutability": "view",
      "type": "function"
    },
    {
      "inputs": [
        {
          "internalType": "uint256",
          "name": "tokenId",
          "type": "uint256"
        }
      ],
      "name": "getApproved",
      "outputs": [
        {
          "internalType": "address",
          "name": "",
          "type": "address"
        }
      ],
      "stateMutability": "view",
      "type": "function"
    },
    {
      "inputs": [
        {
          "internalType": "address",
          "name": "owner",
          "type": "address"
        },
        {
          "internalType": "address",
          "name": "operator",
          "type": "address"
        }
      ],
      "name": "isApprovedForAll",
      "outputs": [
        {
          "internalType": "bool",
          "name": "",
          "type": "bool"
        }
      ],
      "stateMutability": "view",
      "type": "function"
    },
    {
      "inputs": [],
      "name": "isSaleActive",
      "outputs": [
        {
          "internalType": "bool",
          "name": "",
          "type": "bool"
        }
      ],
      "stateMutability": "view",
      "type": "function"
    },
    {
      "inputs": [],
      "name": "maxMintAmt",
      "outputs": [
        {
          "internalType": "uint256",
          "name": "",
          "type": "uint256"
        }
      ],
      "stateMutability": "view",
      "type": "function"
    },
    {
      "inputs": [
        {
          "internalType": "uint256",
          "name": "numOfTokens",
          "type": "uint256"
        }
      ],
      "name": "mintArt",
      "outputs": [],
      "stateMutability": "payable",
      "type": "function"
    },
    {
      "inputs": [],
      "name": "name",
      "outputs": [
        {
          "internalType": "string",
          "name": "",
          "type": "string"
        }
      ],
      "stateMutability": "view",
      "type": "function"
    },
    {
      "inputs": [
        {
          "internalType": "uint256",
          "name": "tokenId",
          "type": "uint256"
        }
      ],
      "name": "ownerOf",
      "outputs": [
        {
          "internalType": "address",
          "name": "",
          "type": "address"
        }
      ],
      "stateMutability": "view",
      "type": "function"
    },
    {
      "inputs": [
        {
          "internalType": "address",
          "name": "from",
          "type": "address"
        },
        {
          "internalType": "address",
          "name": "to",
          "type": "address"
        },
        {
          "internalType": "uint256",
          "name": "tokenId",
          "type": "uint256"
        }
      ],
      "name": "safeTransferFrom",
      "outputs": [],
      "stateMutability": "nonpayable",
      "type": "function"
    },
    {
      "inputs": [
        {
          "internalType": "address",
          "name": "from",
          "type": "address"
        },
        {
          "internalType": "address",
          "name": "to",
          "type": "address"
        },
        {
          "internalType": "uint256",
          "name": "tokenId",
          "type": "uint256"
        },
        {
          "internalType": "bytes",
          "name": "_data",
          "type": "bytes"
        }
      ],
      "name": "safeTransferFrom",
      "outputs": [],
      "stateMutability": "nonpayable",
      "type": "function"
    },
    {
      "inputs": [
        {
          "internalType": "address",
          "name": "operator",
          "type": "address"
        },
        {
          "internalType": "bool",
          "name": "approved",
          "type": "bool"
        }
      ],
      "name": "setApprovalForAll",
      "outputs": [],
      "stateMutability": "nonpayable",
      "type": "function"
    },
    {
      "inputs": [
        {
          "internalType": "bytes4",
          "name": "interfaceId",
          "type": "bytes4"
        }
      ],
      "name": "supportsInterface",
      "outputs": [
        {
          "internalType": "bool",
          "name": "",
          "type": "bool"
        }
      ],
      "stateMutability": "view",
      "type": "function"
    },
    {
      "inputs": [],
      "name": "symbol",
      "outputs": [
        {
          "internalType": "string",
          "name": "",
          "type": "string"
        }
      ],
      "stateMutability": "view",
      "type": "function"
    },
    {
      "inputs": [
        {
          "internalType": "uint256",
          "name": "index",
          "type": "uint256"
        }
      ],
      "name": "tokenByIndex",
      "outputs": [
        {
          "internalType": "uint256",
          "name": "",
          "type": "uint256"
        }
      ],
      "stateMutability": "view",
      "type": "function"
    },
    {
      "inputs": [
        {
          "internalType": "address",
          "name": "owner",
          "type": "address"
        },
        {
          "internalType": "uint256",
          "name": "index",
          "type": "uint256"
        }
      ],
      "name": "tokenOfOwnerByIndex",
      "outputs": [
        {
          "internalType": "uint256",
          "name": "",
          "type": "uint256"
        }
      ],
      "stateMutability": "view",
      "type": "function"
    },
    {
      "inputs": [
        {
          "internalType": "uint256",
          "name": "tokenId",
          "type": "uint256"
        }
      ],
      "name": "tokenURI",
      "outputs": [
        {
          "internalType": "string",
          "name": "",
          "type": "string"
        }
      ],
      "stateMutability": "view",
      "type": "function"
    },
    {
      "inputs": [],
      "name": "totalSupply",
      "outputs": [
        {
          "internalType": "uint256",
          "name": "",
          "type": "uint256"
        }
      ],
      "stateMutability": "view",
      "type": "function"
    },
    {
      "inputs": [
        {
          "internalType": "address",
          "name": "from",
          "type": "address"
        },
        {
          "internalType": "address",
          "name": "to",
          "type": "address"
        },
        {
          "internalType": "uint256",
          "name": "tokenId",
          "type": "uint256"
        }
      ],
      "name": "transferFrom",
      "outputs": [],
      "stateMutability": "nonpayable",
      "type": "function"
    }
  ],
  "bytecode": "0x60806040526000600a60006101000a81548160ff0219169083151502179055503480156200002c57600080fd5b5060405162003b1d38038062003b1d8339818101604052810190620000529190620001d1565b828281600090805190602001906200006c92919062000098565b5080600190805190602001906200008592919062000098565b50505080600b81905550505050620003ed565b828054620000a690620002f8565b90600052602060002090601f016020900481019282620000ca576000855562000116565b82601f10620000e557805160ff191683800117855562000116565b8280016001018555821562000116579182015b8281111562000115578251825591602001919060010190620000f8565b5b50905062000125919062000129565b5090565b5b80821115620001445760008160009055506001016200012a565b5090565b60006200015f620001598462000282565b62000259565b9050828152602081018484840111156200017857600080fd5b62000185848285620002c2565b509392505050565b600082601f8301126200019f57600080fd5b8151620001b184826020860162000148565b91505092915050565b600081519050620001cb81620003d3565b92915050565b600080600060608486031215620001e757600080fd5b600084015167ffffffffffffffff8111156200020257600080fd5b62000210868287016200018d565b935050602084015167ffffffffffffffff8111156200022e57600080fd5b6200023c868287016200018d565b92505060406200024f86828701620001ba565b9150509250925092565b60006200026562000278565b90506200027382826200032e565b919050565b6000604051905090565b600067ffffffffffffffff821115620002a0576200029f62000393565b5b620002ab82620003c2565b9050602081019050919050565b6000819050919050565b60005b83811015620002e2578082015181840152602081019050620002c5565b83811115620002f2576000848401525b50505050565b600060028204905060018216806200031157607f821691505b6020821081141562000328576200032762000364565b5b50919050565b6200033982620003c2565b810181811067ffffffffffffffff821117156200035b576200035a62000393565b5b80604052505050565b7f4e487b7100000000000000000000000000000000000000000000000000000000600052602260045260246000fd5b7f4e487b7100000000000000000000000000000000000000000000000000000000600052604160045260246000fd5b6000601f19601f8301169050919050565b620003de81620002b8565b8114620003ea57600080fd5b50565b61372080620003fd6000396000f3fe6080604052600436106101355760003560e01c8063564566a8116100ab578063a22cb4651161006f578063a22cb46514610441578063a53dc05f1461046a578063b88d4fde14610495578063c721f08d146104be578063c87b56dd146104d5578063e985e9c51461051257610135565b8063564566a8146103465780636352211e1461037157806370a08231146103ae57806395d89b41146103eb5780639e42725f1461041657610135565b806323b872dd116100fd57806323b872dd146102335780632f745c591461025c57806332cb6b0c1461029957806342842e0e146102c45780634f6ccce7146102ed578063535f76681461032a57610135565b806301ffc9a71461013a57806306fdde0314610177578063081812fc146101a2578063095ea7b3146101df57806318160ddd14610208575b600080fd5b34801561014657600080fd5b50610161600480360381019061015c919061250f565b61054f565b60405161016e91906129d3565b60405180910390f35b34801561018357600080fd5b5061018c6106c2565b6040516101999190612a09565b60405180910390f35b3480156101ae57600080fd5b506101c960048036038101906101c49190612561565b610754565b6040516101d6919061296c565b60405180910390f35b3480156101eb57600080fd5b50610206600480360381019061020191906124d3565b6107d9565b005b34801561021457600080fd5b5061021d6108e7565b60405161022a9190612ccb565b60405180910390f35b34801561023f57600080fd5b5061025a600480360381019061025591906123cd565b6108f4565b005b34801561026857600080fd5b50610283600480360381019061027e91906124d3565b610954565b6040516102909190612ccb565b60405180910390f35b3480156102a557600080fd5b506102ae6109f9565b6040516102bb9190612ccb565b60405180910390f35b3480156102d057600080fd5b506102eb60048036038101906102e691906123cd565b6109ff565b005b3480156102f957600080fd5b50610314600480360381019061030f9190612561565b610a1f565b6040516103219190612ccb565b60405180910390f35b610344600480360381019061033f9190612561565b610ab6565b005b34801561035257600080fd5b5061035b610c4b565b60405161036891906129d3565b60405180910390f35b34801561037d57600080fd5b5061039860048036038101906103939190612561565b610c5e565b6040516103a5919061296c565b60405180910390f35b3480156103ba57600080fd5b506103d560048036038101906103d09190612368565b610d10565b6040516103e29190612ccb565b60405180910390f35b3480156103f757600080fd5b50610400610dc8565b60405161040d9190612a09565b60405180910390f35b34801561042257600080fd5b5061042b610e5a565b6040516104389190612ccb565b60405180910390f35b34801561044d57600080fd5b5061046860048036038101906104639190612497565b610e66565b005b34801561047657600080fd5b5061047f610e7c565b60405161048c9190612ccb565b60405180910390f35b3480156104a157600080fd5b506104bc60048036038101906104b7919061241c565b610e81565b005b3480156104ca57600080fd5b506104d3610ee3565b005b3480156104e157600080fd5b506104fc60048036038101906104f79190612561565b610f00565b6040516105099190612a09565b60405180910390f35b34801561051e57600080fd5b5061053960048036038101906105349190612391565b610fa7565b60405161054691906129d3565b60405180910390f35b600061057a7f780e9d630000000000000000000000000000000000000000000000000000000061103b565b7f80ac58cd000000000000000000000000000000000000000000000000000000007bffffffffffffffffffffffffffffffffffffffffffffffffffffffff1916827bffffffffffffffffffffffffffffffffffffffffffffffffffffffff1916148061064357507f5b5e139f000000000000000000000000000000000000000000000000000000007bffffffffffffffffffffffffffffffffffffffffffffffffffffffff1916827bffffffffffffffffffffffffffffffffffffffffffffffffffffffff1916145b806106ab57507f780e9d63000000000000000000000000000000000000000000000000000000007bffffffffffffffffffffffffffffffffffffffffffffffffffffffff1916827bffffffffffffffffffffffffffffffffffffffffffffffffffffffff1916145b806106bb57506106ba826110d4565b5b9050919050565b6060600080546106d190612f73565b80601f01602080910402602001604051908101604052809291908181526020018280546106fd90612f73565b801561074a5780601f1061071f5761010080835404028352916020019161074a565b820191906000526020600020905b81548152906001019060200180831161072d57829003601f168201915b5050505050905090565b600061075f8261113e565b61079e576040517f08c379a000000000000000000000000000000000000000000000000000000000815260040161079590612bcb565b60405180910390fd5b6004600083815260200190815260200160002060009054906101000a900473ffffffffffffffffffffffffffffffffffffffff169050919050565b60006107e482610c5e565b90508073ffffffffffffffffffffffffffffffffffffffff168373ffffffffffffffffffffffffffffffffffffffff161415610855576040517f08c379a000000000000000000000000000000000000000000000000000000000815260040161084c90612c2b565b60405180910390fd5b8073ffffffffffffffffffffffffffffffffffffffff166108746111aa565b73ffffffffffffffffffffffffffffffffffffffff1614806108a357506108a28161089d6111aa565b610fa7565b5b6108e2576040517f08c379a00000000000000000000000000000000000000000000000000000000081526004016108d990612c4b565b60405180910390fd5b505050565b6000600880549050905090565b6109056108ff6111aa565b826111b2565b610944576040517f08c379a000000000000000000000000000000000000000000000000000000000815260040161093b90612b4b565b60405180910390fd5b61094f838383611290565b505050565b600061095f83610d10565b82106109a0576040517f08c379a000000000000000000000000000000000000000000000000000000000815260040161099790612a4b565b60405180910390fd5b600660008473ffffffffffffffffffffffffffffffffffffffff1673ffffffffffffffffffffffffffffffffffffffff168152602001908152602001600020600083815260200190815260200160002054905092915050565b600b5481565b610a1a83838360405180602001604052806000815250610e81565b505050565b6000610a296108e7565b8210610a6a576040517f08c379a0000000000000000000000000000000000000000000000000000000008152600401610a6190612c8b565b60405180910390fd5b60088281548110610aa4577f4e487b7100000000000000000000000000000000000000000000000000000000600052603260045260246000fd5b90600052602060002001549050919050565b600a60009054906101000a900460ff16610b05576040517f08c379a0000000000000000000000000000000000000000000000000000000008152600401610afc90612b6b565b60405180910390fd5b600a811115610b49576040517f08c379a0000000000000000000000000000000000000000000000000000000008152600401610b4090612cab565b60405180910390fd5b600b5481610b556108e7565b610b5f9190612da8565b1115610ba0576040517f08c379a0000000000000000000000000000000000000000000000000000000008152600401610b9790612beb565b60405180910390fd5b348167016345785d8a0000610bb59190612e2f565b1115610bf6576040517f08c379a0000000000000000000000000000000000000000000000000000000008152600401610bed90612aeb565b60405180910390fd5b60005b81811015610c47576000610c0b6108e7565b9050610c1781336114f9565b600b54610c226108e7565b1015610c3357610c323382611595565b5b508080610c3f90612fd6565b915050610bf9565b5050565b600a60009054906101000a900460ff1681565b6000806002600084815260200190815260200160002060009054906101000a900473ffffffffffffffffffffffffffffffffffffffff169050600073ffffffffffffffffffffffffffffffffffffffff168173ffffffffffffffffffffffffffffffffffffffff161415610d07576040517f08c379a0000000000000000000000000000000000000000000000000000000008152600401610cfe90612b8b565b60405180910390fd5b80915050919050565b60008073ffffffffffffffffffffffffffffffffffffffff168273ffffffffffffffffffffffffffffffffffffffff161415610d81576040517f08c379a0000000000000000000000000000000000000000000000000000000008152600401610d7890612a2b565b60405180910390fd5b600360008373ffffffffffffffffffffffffffffffffffffffff1673ffffffffffffffffffffffffffffffffffffffff168152602001908152602001600020549050919050565b606060018054610dd790612f73565b80601f0160208091040260200160405190810160405280929190818152602001828054610e0390612f73565b8015610e505780601f10610e2557610100808354040283529160200191610e50565b820191906000526020600020905b815481529060010190602001808311610e3357829003601f168201915b5050505050905090565b67016345785d8a000081565b610e78610e716111aa565b83836115b3565b5050565b600a81565b610e92610e8c6111aa565b836111b2565b610ed1576040517f08c379a0000000000000000000000000000000000000000000000000000000008152600401610ec890612c6b565b60405180910390fd5b610edd84848484611720565b50505050565b6001600a60006101000a81548160ff021916908315150217905550565b6060610f0b8261113e565b610f4a576040517f08c379a0000000000000000000000000000000000000000000000000000000008152600401610f4190612c0b565b60405180910390fd5b6000610f5461177c565b90506000815111610f745760405180602001604052806000815250610f9f565b80610f7e84611793565b604051602001610f8f929190612948565b6040516020818303038152906040525b915050919050565b6000600560008473ffffffffffffffffffffffffffffffffffffffff1673ffffffffffffffffffffffffffffffffffffffff16815260200190815260200160002060008373ffffffffffffffffffffffffffffffffffffffff1673ffffffffffffffffffffffffffffffffffffffff16815260200190815260200160002060009054906101000a900460ff16905092915050565b6110d18160405160240161104f91906129ee565b6040516020818303038152906040527fe05f48d1000000000000000000000000000000000000000000000000000000007bffffffffffffffffffffffffffffffffffffffffffffffffffffffff19166020820180517bffffffffffffffffffffffffffffffffffffffffffffffffffffffff8381831617835250505050611940565b50565b60007f01ffc9a7000000000000000000000000000000000000000000000000000000007bffffffffffffffffffffffffffffffffffffffffffffffffffffffff1916827bffffffffffffffffffffffffffffffffffffffffffffffffffffffff1916149050919050565b60008073ffffffffffffffffffffffffffffffffffffffff166002600084815260200190815260200160002060009054906101000a900473ffffffffffffffffffffffffffffffffffffffff1673ffffffffffffffffffffffffffffffffffffffff1614159050919050565b600033905090565b60006111bd8261113e565b6111fc576040517f08c379a00000000000000000000000000000000000000000000000000000000081526004016111f390612b0b565b60405180910390fd5b600061120783610c5e565b90508073ffffffffffffffffffffffffffffffffffffffff168473ffffffffffffffffffffffffffffffffffffffff16148061127657508373ffffffffffffffffffffffffffffffffffffffff1661125e84610754565b73ffffffffffffffffffffffffffffffffffffffff16145b8061128757506112868185610fa7565b5b91505092915050565b8273ffffffffffffffffffffffffffffffffffffffff166112b082610c5e565b73ffffffffffffffffffffffffffffffffffffffff1614611306576040517f08c379a00000000000000000000000000000000000000000000000000000000081526004016112fd90612a8b565b60405180910390fd5b600073ffffffffffffffffffffffffffffffffffffffff168273ffffffffffffffffffffffffffffffffffffffff161415611376576040517f08c379a000000000000000000000000000000000000000000000000000000000815260040161136d90612acb565b60405180910390fd5b61138260008383611969565b61138d600082611a72565b6001600360008573ffffffffffffffffffffffffffffffffffffffff1673ffffffffffffffffffffffffffffffffffffffff16815260200190815260200160002060008282546113dd9190612e89565b925050819055506001600360008473ffffffffffffffffffffffffffffffffffffffff1673ffffffffffffffffffffffffffffffffffffffff16815260200190815260200160002060008282546114349190612da8565b92505081905550816002600083815260200190815260200160002060006101000a81548173ffffffffffffffffffffffffffffffffffffffff021916908373ffffffffffffffffffffffffffffffffffffffff160217905550808273ffffffffffffffffffffffffffffffffffffffff168473ffffffffffffffffffffffffffffffffffffffff167fddf252ad1be2c89b69c2b068fc378daa952ba7f163c4a11628f55a4df523b3ef60405160405180910390a46114f460008383611b2b565b505050565b611591828260405160240161150f929190612ce6565b6040516020818303038152906040527f58eb860c000000000000000000000000000000000000000000000000000000007bffffffffffffffffffffffffffffffffffffffffffffffffffffffff19166020820180517bffffffffffffffffffffffffffffffffffffffffffffffffffffffff8381831617835250505050611940565b5050565b6115af828260405180602001604052806000815250611b30565b5050565b8173ffffffffffffffffffffffffffffffffffffffff168373ffffffffffffffffffffffffffffffffffffffff161415611622576040517f08c379a000000000000000000000000000000000000000000000000000000000815260040161161990612b2b565b60405180910390fd5b80600560008573ffffffffffffffffffffffffffffffffffffffff1673ffffffffffffffffffffffffffffffffffffffff16815260200190815260200160002060008473ffffffffffffffffffffffffffffffffffffffff1673ffffffffffffffffffffffffffffffffffffffff16815260200190815260200160002060006101000a81548160ff0219169083151502179055508173ffffffffffffffffffffffffffffffffffffffff168373ffffffffffffffffffffffffffffffffffffffff167f17307eab39ab6107e8899845ad3d59bd9653f200f220920489ca2b5937696c318360405161171391906129d3565b60405180910390a3505050565b61172b848484611290565b61173784848484611b8b565b611776576040517f08c379a000000000000000000000000000000000000000000000000000000000815260040161176d90612a6b565b60405180910390fd5b50505050565b606060405180602001604052806000815250905090565b606060008214156117db576040518060400160405280600181526020017f3000000000000000000000000000000000000000000000000000000000000000815250905061193b565b600082905060005b6000821461180d5780806117f690612fd6565b915050600a826118069190612dfe565b91506117e3565b60008167ffffffffffffffff81111561184f577f4e487b7100000000000000000000000000000000000000000000000000000000600052604160045260246000fd5b6040519080825280601f01601f1916602001820160405280156118815781602001600182028036833780820191505090505b5090505b600085146119345760018261189a9190612e89565b9150600a856118a9919061301f565b60306118b59190612da8565b60f81b8183815181106118f1577f4e487b7100000000000000000000000000000000000000000000000000000000600052603260045260246000fd5b60200101907effffffffffffffffffffffffffffffffffffffffffffffffffffffffffffff1916908160001a905350600a8561192d9190612dfe565b9450611885565b8093505050505b919050565b60008151905060006a636f6e736f6c652e6c6f679050602083016000808483855afa5050505050565b600073ffffffffffffffffffffffffffffffffffffffff168373ffffffffffffffffffffffffffffffffffffffff1614156119ac576119a781611d22565b6119eb565b8173ffffffffffffffffffffffffffffffffffffffff168373ffffffffffffffffffffffffffffffffffffffff16146119ea576119e98382611d6b565b5b5b600073ffffffffffffffffffffffffffffffffffffffff168273ffffffffffffffffffffffffffffffffffffffff161415611a2e57611a2981611ed8565b611a6d565b8273ffffffffffffffffffffffffffffffffffffffff168273ffffffffffffffffffffffffffffffffffffffff1614611a6c57611a6b828261201b565b5b5b505050565b816004600083815260200190815260200160002060006101000a81548173ffffffffffffffffffffffffffffffffffffffff021916908373ffffffffffffffffffffffffffffffffffffffff160217905550808273ffffffffffffffffffffffffffffffffffffffff16611ae583610c5e565b73ffffffffffffffffffffffffffffffffffffffff167f8c5be1e5ebec7d5bd14f71427d1e84f3dd0314c0f7b2291e5b200ac8c7c3b92560405160405180910390a45050565b505050565b611b3a838361209a565b611b476000848484611b8b565b611b86576040517f08c379a0000000000000000000000000000000000000000000000000000000008152600401611b7d90612a6b565b60405180910390fd5b505050565b6000611bac8473ffffffffffffffffffffffffffffffffffffffff16612274565b15611d15578373ffffffffffffffffffffffffffffffffffffffff1663150b7a02611bd56111aa565b8786866040518563ffffffff1660e01b8152600401611bf79493929190612987565b602060405180830381600087803b158015611c1157600080fd5b505af1925050508015611c4257506040513d601f19601f82011682018060405250810190611c3f9190612538565b60015b611cc5573d8060008114611c72576040519150601f19603f3d011682016040523d82523d6000602084013e611c77565b606091505b50600081511415611cbd576040517f08c379a0000000000000000000000000000000000000000000000000000000008152600401611cb490612a6b565b60405180910390fd5b805181602001fd5b63150b7a0260e01b7bffffffffffffffffffffffffffffffffffffffffffffffffffffffff1916817bffffffffffffffffffffffffffffffffffffffffffffffffffffffff191614915050611d1a565b600190505b949350505050565b6008805490506009600083815260200190815260200160002081905550600881908060018154018082558091505060019003906000526020600020016000909190919091505550565b60006001611d7884610d10565b611d829190612e89565b9050600060076000848152602001908152602001600020549050818114611e67576000600660008673ffffffffffffffffffffffffffffffffffffffff1673ffffffffffffffffffffffffffffffffffffffff168152602001908152602001600020600084815260200190815260200160002054905080600660008773ffffffffffffffffffffffffffffffffffffffff1673ffffffffffffffffffffffffffffffffffffffff168152602001908152602001600020600084815260200190815260200160002081905550836007600083815260200190815260200160002081905550505b6007600084815260200190815260200160002060009055600660008573ffffffffffffffffffffffffffffffffffffffff1673ffffffffffffffffffffffffffffffffffffffff16815260200190815260200160002060008381526020019081526020016000206000905550505050565b60006001600880549050611eec9190612e89565b9050600060096000848152602001908152602001600020549050600060088381548110611f42577f4e487b7100000000000000000000000000000000000000000000000000000000600052603260045260246000fd5b906000526020600020015490508060088381548110611f8a577f4e487b7100000000000000000000000000000000000000000000000000000000600052603260045260246000fd5b906000526020600020018190555081600960008381526020019081526020016000208190555060096000858152602001908152602001600020600090556008805480611fff577f4e487b7100000000000000000000000000000000000000000000000000000000600052603160045260246000fd5b6001900381819060005260206000200160009055905550505050565b600061202683610d10565b905081600660008573ffffffffffffffffffffffffffffffffffffffff1673ffffffffffffffffffffffffffffffffffffffff168152602001908152602001600020600083815260200190815260200160002081905550806007600084815260200190815260200160002081905550505050565b600073ffffffffffffffffffffffffffffffffffffffff168273ffffffffffffffffffffffffffffffffffffffff16141561210a576040517f08c379a000000000000000000000000000000000000000000000000000000000815260040161210190612bab565b60405180910390fd5b6121138161113e565b15612153576040517f08c379a000000000000000000000000000000000000000000000000000000000815260040161214a90612aab565b60405180910390fd5b61215f60008383611969565b6001600360008473ffffffffffffffffffffffffffffffffffffffff1673ffffffffffffffffffffffffffffffffffffffff16815260200190815260200160002060008282546121af9190612da8565b92505081905550816002600083815260200190815260200160002060006101000a81548173ffffffffffffffffffffffffffffffffffffffff021916908373ffffffffffffffffffffffffffffffffffffffff160217905550808273ffffffffffffffffffffffffffffffffffffffff16600073ffffffffffffffffffffffffffffffffffffffff167fddf252ad1be2c89b69c2b068fc378daa952ba7f163c4a11628f55a4df523b3ef60405160405180910390a461227060008383611b2b565b5050565b6000808273ffffffffffffffffffffffffffffffffffffffff163b119050919050565b60006122aa6122a584612d34565b612d0f565b9050828152602081018484840111156122c257600080fd5b6122cd848285612f31565b509392505050565b6000813590506122e48161368e565b92915050565b6000813590506122f9816136a5565b92915050565b60008135905061230e816136bc565b92915050565b600081519050612323816136bc565b92915050565b600082601f83011261233a57600080fd5b813561234a848260208601612297565b91505092915050565b600081359050612362816136d3565b92915050565b60006020828403121561237a57600080fd5b6000612388848285016122d5565b91505092915050565b600080604083850312156123a457600080fd5b60006123b2858286016122d5565b92505060206123c3858286016122d5565b9150509250929050565b6000806000606084860312156123e257600080fd5b60006123f0868287016122d5565b9350506020612401868287016122d5565b925050604061241286828701612353565b9150509250925092565b6000806000806080858703121561243257600080fd5b6000612440878288016122d5565b9450506020612451878288016122d5565b935050604061246287828801612353565b925050606085013567ffffffffffffffff81111561247f57600080fd5b61248b87828801612329565b91505092959194509250565b600080604083850312156124aa57600080fd5b60006124b8858286016122d5565b92505060206124c9858286016122ea565b9150509250929050565b600080604083850312156124e657600080fd5b60006124f4858286016122d5565b925050602061250585828601612353565b9150509250929050565b60006020828403121561252157600080fd5b600061252f848285016122ff565b91505092915050565b60006020828403121561254a57600080fd5b600061255884828501612314565b91505092915050565b60006020828403121561257357600080fd5b600061258184828501612353565b91505092915050565b61259381612ebd565b82525050565b6125a281612ecf565b82525050565b6125b181612edb565b82525050565b60006125c282612d65565b6125cc8185612d7b565b93506125dc818560208601612f40565b6125e58161310c565b840191505092915050565b60006125fb82612d70565b6126058185612d8c565b9350612615818560208601612f40565b61261e8161310c565b840191505092915050565b600061263482612d70565b61263e8185612d9d565b935061264e818560208601612f40565b80840191505092915050565b6000612667602683612d8c565b91506126728261311d565b604082019050919050565b600061268a602b83612d8c565b91506126958261316c565b604082019050919050565b60006126ad603283612d8c565b91506126b8826131bb565b604082019050919050565b60006126d0602583612d8c565b91506126db8261320a565b604082019050919050565b60006126f3601c83612d8c565b91506126fe82613259565b602082019050919050565b6000612716602483612d8c565b915061272182613282565b604082019050919050565b6000612739601f83612d8c565b9150612744826132d1565b602082019050919050565b600061275c602c83612d8c565b9150612767826132fa565b604082019050919050565b600061277f601983612d8c565b915061278a82613349565b602082019050919050565b60006127a2603183612d8c565b91506127ad82613372565b604082019050919050565b60006127c5601f83612d8c565b91506127d0826133c1565b602082019050919050565b60006127e8602983612d8c565b91506127f3826133ea565b604082019050919050565b600061280b602083612d8c565b915061281682613439565b602082019050919050565b600061282e602c83612d8c565b915061283982613462565b604082019050919050565b6000612851602483612d8c565b915061285c826134b1565b604082019050919050565b6000612874602f83612d8c565b915061287f82613500565b604082019050919050565b6000612897602183612d8c565b91506128a28261354f565b604082019050919050565b60006128ba600083612d8c565b91506128c58261359e565b600082019050919050565b60006128dd603183612d8c565b91506128e8826135a1565b604082019050919050565b6000612900602c83612d8c565b915061290b826135f0565b604082019050919050565b6000612923602183612d8c565b915061292e8261363f565b604082019050919050565b61294281612f27565b82525050565b60006129548285612629565b91506129608284612629565b91508190509392505050565b6000602082019050612981600083018461258a565b92915050565b600060808201905061299c600083018761258a565b6129a9602083018661258a565b6129b66040830185612939565b81810360608301526129c881846125b7565b905095945050505050565b60006020820190506129e86000830184612599565b92915050565b6000602082019050612a0360008301846125a8565b92915050565b60006020820190508181036000830152612a2381846125f0565b905092915050565b60006020820190508181036000830152612a448161265a565b9050919050565b60006020820190508181036000830152612a648161267d565b9050919050565b60006020820190508181036000830152612a84816126a0565b9050919050565b60006020820190508181036000830152612aa4816126c3565b9050919050565b60006020820190508181036000830152612ac4816126e6565b9050919050565b60006020820190508181036000830152612ae481612709565b9050919050565b60006020820190508181036000830152612b048161272c565b9050919050565b60006020820190508181036000830152612b248161274f565b9050919050565b60006020820190508181036000830152612b4481612772565b9050919050565b60006020820190508181036000830152612b6481612795565b9050919050565b60006020820190508181036000830152612b84816127b8565b9050919050565b60006020820190508181036000830152612ba4816127db565b9050919050565b60006020820190508181036000830152612bc4816127fe565b9050919050565b60006020820190508181036000830152612be481612821565b9050919050565b60006020820190508181036000830152612c0481612844565b9050919050565b60006020820190508181036000830152612c2481612867565b9050919050565b60006020820190508181036000830152612c448161288a565b9050919050565b60006020820190508181036000830152612c64816128ad565b9050919050565b60006020820190508181036000830152612c84816128d0565b9050919050565b60006020820190508181036000830152612ca4816128f3565b9050919050565b60006020820190508181036000830152612cc481612916565b9050919050565b6000602082019050612ce06000830184612939565b92915050565b6000604082019050612cfb6000830185612939565b612d08602083018461258a565b9392505050565b6000612d19612d2a565b9050612d258282612fa5565b919050565b6000604051905090565b600067ffffffffffffffff821115612d4f57612d4e6130dd565b5b612d588261310c565b9050602081019050919050565b600081519050919050565b600081519050919050565b600082825260208201905092915050565b600082825260208201905092915050565b600081905092915050565b6000612db382612f27565b9150612dbe83612f27565b9250827fffffffffffffffffffffffffffffffffffffffffffffffffffffffffffffffff03821115612df357612df2613050565b5b828201905092915050565b6000612e0982612f27565b9150612e1483612f27565b925082612e2457612e2361307f565b5b828204905092915050565b6000612e3a82612f27565b9150612e4583612f27565b9250817fffffffffffffffffffffffffffffffffffffffffffffffffffffffffffffffff0483118215151615612e7e57612e7d613050565b5b828202905092915050565b6000612e9482612f27565b9150612e9f83612f27565b925082821015612eb257612eb1613050565b5b828203905092915050565b6000612ec882612f07565b9050919050565b60008115159050919050565b60007fffffffff0000000000000000000000000000000000000000000000000000000082169050919050565b600073ffffffffffffffffffffffffffffffffffffffff82169050919050565b6000819050919050565b82818337600083830152505050565b60005b83811015612f5e578082015181840152602081019050612f43565b83811115612f6d576000848401525b50505050565b60006002820490506001821680612f8b57607f821691505b60208210811415612f9f57612f9e6130ae565b5b50919050565b612fae8261310c565b810181811067ffffffffffffffff82111715612fcd57612fcc6130dd565b5b80604052505050565b6000612fe182612f27565b91507fffffffffffffffffffffffffffffffffffffffffffffffffffffffffffffffff82141561301457613013613050565b5b600182019050919050565b600061302a82612f27565b915061303583612f27565b9250826130455761304461307f565b5b828206905092915050565b7f4e487b7100000000000000000000000000000000000000000000000000000000600052601160045260246000fd5b7f4e487b7100000000000000000000000000000000000000000000000000000000600052601260045260246000fd5b7f4e487b7100000000000000000000000000000000000000000000000000000000600052602260045260246000fd5b7f4e487b7100000000000000000000000000000000000000000000000000000000600052604160045260246000fd5b6000601f19601f8301169050919050565b7f4552433732313a2062616c616e636520717565727920666f72207a65726f206160008201527f6464726573730000000000000000000000000000000000000000000000000000602082015250565b7f455243373231456e756d657261626c653a206f776e657220696e646578206f7560008201527f74206f6620626f756e6473000000000000000000000000000000000000000000602082015250565b7f4552433732313a207472616e7366657220746f206e6f6e20455243373231526560008201527f63656976657220696d706c656d656e7465720000000000000000000000000000602082015250565b7f4552433732313a207472616e736665722066726f6d20696e636f72726563742060008201527f6f776e6572000000000000000000000000000000000000000000000000000000602082015250565b7f4552433732313a20746f6b656e20616c7265616479206d696e74656400000000600082015250565b7f4552433732313a207472616e7366657220746f20746865207a65726f2061646460008201527f7265737300000000000000000000000000000000000000000000000000000000602082015250565b7f45746865722076616c75652073656e74206973206e6f7420636f727265637400600082015250565b7f4552433732313a206f70657261746f7220717565727920666f72206e6f6e657860008201527f697374656e7420746f6b656e0000000000000000000000000000000000000000602082015250565b7f4552433732313a20617070726f766520746f2063616c6c656400000000000000600082015250565b7f4552433732313a207472616e736665722063616c6c6572206973206e6f74206f60008201527f776e6572206e6f7420617070726f766564000000000000000000000000000000602082015250565b7f5468652073616c65206d7573742062652061637469766520746f206d696e7400600082015250565b7f4552433732313a206f776e657220717565727920666f72206e6f6e657869737460008201527f656e7420746f6b656e0000000000000000000000000000000000000000000000602082015250565b7f4552433732313a206d696e7420746f20746865207a65726f2061646472657373600082015250565b7f4552433732313a20617070726f76656420717565727920666f72206e6f6e657860008201527f697374656e7420746f6b656e0000000000000000000000000000000000000000602082015250565b7f507572636861736520776f756c6420657863656564206d6178696d756d20737560008201527f70706c7900000000000000000000000000000000000000000000000000000000602082015250565b7f4552433732314d657461646174613a2055524920717565727920666f72206e6f60008201527f6e6578697374656e7420746f6b656e0000000000000000000000000000000000602082015250565b7f4552433732313a20617070726f76616c20746f2063757272656e74206f776e6560008201527f7200000000000000000000000000000000000000000000000000000000000000602082015250565b50565b7f4552433732313a207472616e736665722063616c6c6572206973206e6f74206f60008201527f776e6572206e6f7220617070726f766564000000000000000000000000000000602082015250565b7f455243373231456e756d657261626c653a20676c6f62616c20696e646578206f60008201527f7574206f6620626f756e64730000000000000000000000000000000000000000602082015250565b7f43616e206f6e6c79206d696e7420313020746f6b656e7320617420612074696d60008201527f6500000000000000000000000000000000000000000000000000000000000000602082015250565b61369781612ebd565b81146136a257600080fd5b50565b6136ae81612ecf565b81146136b957600080fd5b50565b6136c581612edb565b81146136d057600080fd5b50565b6136dc81612f27565b81146136e757600080fd5b5056fea26469706673582212202900e0b08b7e9d16118c0cef75e626e873485f05ee325d7daab70ecb9700a3c464736f6c63430008040033",
  "linkReferences": {},
  "deployedLinkReferences": {}
}