{
  "address": "0x494D1b0FBf861ABb8aA8F4DE79c7AD52694a1616",
  "abi": [
    {
      "inputs": [
        {
          "internalType": "address",
          "name": "_VRFCoordinator",
          "type": "address"
        },
        {
          "internalType": "address",
          "name": "_linkToken",
          "type": "address"
        },
        {
          "internalType": "bytes32",
          "name": "_keyhash",
          "type": "bytes32"
        },
        {
          "internalType": "uint256",
          "name": "_fee",
          "type": "uint256"
        }
      ],
      "stateMutability": "nonpayable",
      "type": "constructor"
    },
    {
      "anonymous": false,
      "inputs": [
        {
          "indexed": true,
          "internalType": "address",
          "name": "owner",
          "type": "address"
        },
        {
          "indexed": true,
          "internalType": "address",
          "name": "approved",
          "type": "address"
        },
        {
          "indexed": true,
          "internalType": "uint256",
          "name": "tokenId",
          "type": "uint256"
        }
      ],
      "name": "Approval",
      "type": "event"
    },
    {
      "anonymous": false,
      "inputs": [
        {
          "indexed": true,
          "internalType": "address",
          "name": "owner",
          "type": "address"
        },
        {
          "indexed": true,
          "internalType": "address",
          "name": "operator",
          "type": "address"
        },
        {
          "indexed": false,
          "internalType": "bool",
          "name": "approved",
          "type": "bool"
        }
      ],
      "name": "ApprovalForAll",
      "type": "event"
    },
    {
      "anonymous": false,
      "inputs": [
        {
          "indexed": true,
          "internalType": "uint256",
          "name": "tokenId",
          "type": "uint256"
        },
        {
          "indexed": false,
          "internalType": "string",
          "name": "tokenURI",
          "type": "string"
        }
      ],
      "name": "CreatedNFT",
      "type": "event"
    },
    {
      "anonymous": false,
      "inputs": [
        {
          "indexed": true,
          "internalType": "uint256",
          "name": "tokenId",
          "type": "uint256"
        },
        {
          "indexed": false,
          "internalType": "uint256",
          "name": "randomNumber",
          "type": "uint256"
        }
      ],
      "name": "CreatedUnfinishedRandomSVG",
      "type": "event"
    },
    {
      "anonymous": false,
      "inputs": [
        {
          "indexed": true,
          "internalType": "address",
          "name": "from",
          "type": "address"
        },
        {
          "indexed": true,
          "internalType": "address",
          "name": "to",
          "type": "address"
        },
        {
          "indexed": true,
          "internalType": "uint256",
          "name": "tokenId",
          "type": "uint256"
        }
      ],
      "name": "Transfer",
      "type": "event"
    },
    {
      "anonymous": false,
      "inputs": [
        {
          "indexed": true,
          "internalType": "bytes32",
          "name": "requestId",
          "type": "bytes32"
        },
        {
          "indexed": true,
          "internalType": "uint256",
          "name": "tokenId",
          "type": "uint256"
        }
      ],
      "name": "requestedRandomSVG",
      "type": "event"
    },
    {
      "inputs": [
        {
          "internalType": "address",
          "name": "to",
          "type": "address"
        },
        {
          "internalType": "uint256",
          "name": "tokenId",
          "type": "uint256"
        }
      ],
      "name": "approve",
      "outputs": [],
      "stateMutability": "nonpayable",
      "type": "function"
    },
    {
      "inputs": [
        {
          "internalType": "address",
          "name": "owner",
          "type": "address"
        }
      ],
      "name": "balanceOf",
      "outputs": [
        {
          "internalType": "uint256",
          "name": "",
          "type": "uint256"
        }
      ],
      "stateMutability": "view",
      "type": "function"
    },
    {
      "inputs": [
        {
          "internalType": "uint256",
          "name": "",
          "type": "uint256"
        }
      ],
      "name": "colors",
      "outputs": [
        {
          "internalType": "string",
          "name": "",
          "type": "string"
        }
      ],
      "stateMutability": "view",
      "type": "function"
    },
    {
      "inputs": [
        {
          "internalType": "uint256",
          "name": "_tokenId",
          "type": "uint256"
        }
      ],
      "name": "completeCreate",
      "outputs": [],
      "stateMutability": "nonpayable",
      "type": "function"
    },
    {
      "inputs": [],
      "name": "create",
      "outputs": [
        {
          "internalType": "bytes32",
          "name": "requestId",
          "type": "bytes32"
        }
      ],
      "stateMutability": "payable",
      "type": "function"
    },
    {
      "inputs": [],
      "name": "fee",
      "outputs": [
        {
          "internalType": "uint256",
          "name": "",
          "type": "uint256"
        }
      ],
      "stateMutability": "view",
      "type": "function"
    },
    {
      "inputs": [
        {
          "internalType": "uint256",
          "name": "tokenId",
          "type": "uint256"
        }
      ],
      "name": "getApproved",
      "outputs": [
        {
          "internalType": "address",
          "name": "",
          "type": "address"
        }
      ],
      "stateMutability": "view",
      "type": "function"
    },
    {
      "inputs": [
        {
          "internalType": "address",
          "name": "owner",
          "type": "address"
        },
        {
          "internalType": "address",
          "name": "operator",
          "type": "address"
        }
      ],
      "name": "isApprovedForAll",
      "outputs": [
        {
          "internalType": "bool",
          "name": "",
          "type": "bool"
        }
      ],
      "stateMutability": "view",
      "type": "function"
    },
    {
      "inputs": [],
      "name": "keyHash",
      "outputs": [
        {
          "internalType": "bytes32",
          "name": "",
          "type": "bytes32"
        }
      ],
      "stateMutability": "view",
      "type": "function"
    },
    {
      "inputs": [],
      "name": "maxPathCommands",
      "outputs": [
        {
          "internalType": "uint256",
          "name": "",
          "type": "uint256"
        }
      ],
      "stateMutability": "view",
      "type": "function"
    },
    {
      "inputs": [],
      "name": "maxPaths",
      "outputs": [
        {
          "internalType": "uint256",
          "name": "",
          "type": "uint256"
        }
      ],
      "stateMutability": "view",
      "type": "function"
    },
    {
      "inputs": [],
      "name": "name",
      "outputs": [
        {
          "internalType": "string",
          "name": "",
          "type": "string"
        }
      ],
      "stateMutability": "view",
      "type": "function"
    },
    {
      "inputs": [
        {
          "internalType": "uint256",
          "name": "tokenId",
          "type": "uint256"
        }
      ],
      "name": "ownerOf",
      "outputs": [
        {
          "internalType": "address",
          "name": "",
          "type": "address"
        }
      ],
      "stateMutability": "view",
      "type": "function"
    },
    {
      "inputs": [
        {
          "internalType": "uint256",
          "name": "",
          "type": "uint256"
        }
      ],
      "name": "pathCommands",
      "outputs": [
        {
          "internalType": "string",
          "name": "",
          "type": "string"
        }
      ],
      "stateMutability": "view",
      "type": "function"
    },
    {
      "inputs": [],
      "name": "price",
      "outputs": [
        {
          "internalType": "uint256",
          "name": "",
          "type": "uint256"
        }
      ],
      "stateMutability": "view",
      "type": "function"
    },
    {
      "inputs": [
        {
          "internalType": "bytes32",
          "name": "requestId",
          "type": "bytes32"
        },
        {
          "internalType": "uint256",
          "name": "randomness",
          "type": "uint256"
        }
      ],
      "name": "rawFulfillRandomness",
      "outputs": [],
      "stateMutability": "nonpayable",
      "type": "function"
    },
    {
      "inputs": [
        {
          "internalType": "address",
          "name": "from",
          "type": "address"
        },
        {
          "internalType": "address",
          "name": "to",
          "type": "address"
        },
        {
          "internalType": "uint256",
          "name": "tokenId",
          "type": "uint256"
        }
      ],
      "name": "safeTransferFrom",
      "outputs": [],
      "stateMutability": "nonpayable",
      "type": "function"
    },
    {
      "inputs": [
        {
          "internalType": "address",
          "name": "from",
          "type": "address"
        },
        {
          "internalType": "address",
          "name": "to",
          "type": "address"
        },
        {
          "internalType": "uint256",
          "name": "tokenId",
          "type": "uint256"
        },
        {
          "internalType": "bytes",
          "name": "_data",
          "type": "bytes"
        }
      ],
      "name": "safeTransferFrom",
      "outputs": [],
      "stateMutability": "nonpayable",
      "type": "function"
    },
    {
      "inputs": [
        {
          "internalType": "address",
          "name": "operator",
          "type": "address"
        },
        {
          "internalType": "bool",
          "name": "approved",
          "type": "bool"
        }
      ],
      "name": "setApprovalForAll",
      "outputs": [],
      "stateMutability": "nonpayable",
      "type": "function"
    },
    {
      "inputs": [],
      "name": "size",
      "outputs": [
        {
          "internalType": "uint256",
          "name": "",
          "type": "uint256"
        }
      ],
      "stateMutability": "view",
      "type": "function"
    },
    {
      "inputs": [
        {
          "internalType": "bytes4",
          "name": "interfaceId",
          "type": "bytes4"
        }
      ],
      "name": "supportsInterface",
      "outputs": [
        {
          "internalType": "bool",
          "name": "",
          "type": "bool"
        }
      ],
      "stateMutability": "view",
      "type": "function"
    },
    {
      "inputs": [],
      "name": "symbol",
      "outputs": [
        {
          "internalType": "string",
          "name": "",
          "type": "string"
        }
      ],
      "stateMutability": "view",
      "type": "function"
    },
    {
      "inputs": [
        {
          "internalType": "uint256",
          "name": "index",
          "type": "uint256"
        }
      ],
      "name": "tokenByIndex",
      "outputs": [
        {
          "internalType": "uint256",
          "name": "",
          "type": "uint256"
        }
      ],
      "stateMutability": "view",
      "type": "function"
    },
    {
      "inputs": [
        {
          "internalType": "address",
          "name": "owner",
          "type": "address"
        },
        {
          "internalType": "uint256",
          "name": "index",
          "type": "uint256"
        }
      ],
      "name": "tokenOfOwnerByIndex",
      "outputs": [
        {
          "internalType": "uint256",
          "name": "",
          "type": "uint256"
        }
      ],
      "stateMutability": "view",
      "type": "function"
    },
    {
      "inputs": [
        {
          "internalType": "uint256",
          "name": "tokenId",
          "type": "uint256"
        }
      ],
      "name": "tokenURI",
      "outputs": [
        {
          "internalType": "string",
          "name": "",
          "type": "string"
        }
      ],
      "stateMutability": "view",
      "type": "function"
    },
    {
      "inputs": [],
      "name": "totalSupply",
      "outputs": [
        {
          "internalType": "uint256",
          "name": "",
          "type": "uint256"
        }
      ],
      "stateMutability": "view",
      "type": "function"
    },
    {
      "inputs": [
        {
          "internalType": "address",
          "name": "from",
          "type": "address"
        },
        {
          "internalType": "address",
          "name": "to",
          "type": "address"
        },
        {
          "internalType": "uint256",
          "name": "tokenId",
          "type": "uint256"
        }
      ],
      "name": "transferFrom",
      "outputs": [],
      "stateMutability": "nonpayable",
      "type": "function"
    }
  ],
  "transactionHash": "0x036eaa70795453228be1f6f97c50f85da5ca1f527f01a7b5096acdfbddba62ad",
  "args": [
    "0xb3dCcb4Cf7a26f6cf6B120Cf5A73875B7BBc655B",
    "0x01BE23585060835E02B77ef475b0Cc51aA1e0709",
    "0x2ed0feb3e7fd2022120aa84fab1945545a9f2ffc9076fd6156fa96eaff4c1311",
    "100000000000000000"
  ],
  "numDeployments": 4,
  "solcInputHash": "0747709145813b32931e339b0e8eea97",
  "bytecode": "0x6101206040523480156200001257600080fd5b50604051620057c8380380620057c88339818101604052810190620000389190620005c0565b83836040518060400160405280600b81526020017f4f4e434841494e204e46540000000000000000000000000000000000000000008152506040518060400160405280600581526020017f4f4e4348200000000000000000000000000000000000000000000000000000008152508160009080519060200190620000be9291906200038f565b508060019080519060200190620000d79291906200038f565b5050508173ffffffffffffffffffffffffffffffffffffffff1660a08173ffffffffffffffffffffffffffffffffffffffff1660601b815250508073ffffffffffffffffffffffffffffffffffffffff1660808173ffffffffffffffffffffffffffffffffffffffff1660601b81525050505080600d8190555081600c81905550600a60c08181525050600560e081815250506101f4610100818152505060405180604001604052806040518060400160405280600181526020017f4d0000000000000000000000000000000000000000000000000000000000000081525081526020016040518060400160405280600181526020017f4c00000000000000000000000000000000000000000000000000000000000000815250815250600e9060026200020692919062000420565b506040518060c001604052806040518060400160405280600381526020017f726564000000000000000000000000000000000000000000000000000000000081525081526020016040518060400160405280600481526020017f626c75650000000000000000000000000000000000000000000000000000000081525081526020016040518060400160405280600581526020017f677265656e00000000000000000000000000000000000000000000000000000081525081526020016040518060400160405280600681526020017f79656c6c6f77000000000000000000000000000000000000000000000000000081525081526020016040518060400160405280600581526020017f626c61636b00000000000000000000000000000000000000000000000000000081525081526020016040518060400160405280600581526020017f7768697465000000000000000000000000000000000000000000000000000000815250815250600f9060066200038492919062000487565b505050505062000727565b8280546200039d9062000674565b90600052602060002090601f016020900481019282620003c157600085556200040d565b82601f10620003dc57805160ff19168380011785556200040d565b828001600101855582156200040d579182015b828111156200040c578251825591602001919060010190620003ef565b5b5090506200041c9190620004ee565b5090565b82805482825590600052602060002090810192821562000474579160200282015b8281111562000473578251829080519060200190620004629291906200038f565b509160200191906001019062000441565b5b5090506200048391906200050d565b5090565b828054828255906000526020600020908101928215620004db579160200282015b82811115620004da578251829080519060200190620004c99291906200038f565b5091602001919060010190620004a8565b5b509050620004ea91906200050d565b5090565b5b8082111562000509576000816000905550600101620004ef565b5090565b5b8082111562000531576000818162000527919062000535565b506001016200050e565b5090565b508054620005439062000674565b6000825580601f1062000557575062000578565b601f016020900490600052602060002090810190620005779190620004ee565b5b50565b6000815190506200058c81620006d9565b92915050565b600081519050620005a381620006f3565b92915050565b600081519050620005ba816200070d565b92915050565b60008060008060808587031215620005d757600080fd5b6000620005e7878288016200057b565b9450506020620005fa878288016200057b565b93505060406200060d8782880162000592565b92505060606200062087828801620005a9565b91505092959194509250565b600062000639826200064a565b9050919050565b6000819050919050565b600073ffffffffffffffffffffffffffffffffffffffff82169050919050565b6000819050919050565b600060028204905060018216806200068d57607f821691505b60208210811415620006a457620006a3620006aa565b5b50919050565b7f4e487b7100000000000000000000000000000000000000000000000000000000600052602260045260246000fd5b620006e4816200062c565b8114620006f057600080fd5b50565b620006fe8162000640565b81146200070a57600080fd5b50565b62000718816200066a565b81146200072457600080fd5b50565b60805160601c60a05160601c60c05160e05161010051615010620007b860003960008181610fdc015281816117f20152818161181b0152818161258701528181612ce301528181612d0701528181612d6a0152612d8e0152600081816113c501526125080152600081816106c501526117b7015260008181610f400152612208015260006121cc01526150106000f3fe60806040526004361061019c5760003560e01c806370a08231116100ec578063b88d4fde1161008a578063ddca3f4311610064578063ddca3f4314610612578063df9bcd241461063d578063e985e9c514610668578063efc81a8c146106a55761019c565b8063b88d4fde1461056f578063bd11f69d14610598578063c87b56dd146105d55761019c565b8063955968d4116100c6578063955968d4146104b357806395d89b41146104f0578063a035b1fe1461051b578063a22cb465146105465761019c565b806370a082311461042257806394985ddd1461045f578063949d225d146104885761019c565b80631e5828c01161015957806342842e0e1161013357806342842e0e146103545780634f6ccce71461037d57806361728f39146103ba5780636352211e146103e55761019c565b80631e5828c0146102c557806323b872dd146102ee5780632f745c59146103175761019c565b806301f920c6146101a157806301ffc9a7146101cc57806306fdde0314610209578063081812fc14610234578063095ea7b31461027157806318160ddd1461029a575b600080fd5b3480156101ad57600080fd5b506101b66106c3565b6040516101c39190614add565b60405180910390f35b3480156101d857600080fd5b506101f360048036038101906101ee91906137c0565b6106e7565b60405161020091906146fc565b60405180910390f35b34801561021557600080fd5b5061021e61085a565b60405161022b91906147bb565b60405180910390f35b34801561024057600080fd5b5061025b60048036038101906102569190613812565b6108ec565b6040516102689190614657565b60405180910390f35b34801561027d57600080fd5b506102986004803603810190610293919061371f565b610971565b005b3480156102a657600080fd5b506102af610a89565b6040516102bc9190614add565b60405180910390f35b3480156102d157600080fd5b506102ec60048036038101906102e79190613812565b610a96565b005b3480156102fa57600080fd5b5061031560048036038101906103109190613619565b610c12565b005b34801561032357600080fd5b5061033e6004803603810190610339919061371f565b610c72565b60405161034b9190614add565b60405180910390f35b34801561036057600080fd5b5061037b60048036038101906103769190613619565b610d17565b005b34801561038957600080fd5b506103a4600480360381019061039f9190613812565b610d37565b6040516103b19190614add565b60405180910390f35b3480156103c657600080fd5b506103cf610dce565b6040516103dc9190614717565b60405180910390f35b3480156103f157600080fd5b5061040c60048036038101906104079190613812565b610dd4565b6040516104199190614657565b60405180910390f35b34801561042e57600080fd5b50610449600480360381019061044491906135b4565b610e86565b6040516104569190614add565b60405180910390f35b34801561046b57600080fd5b5061048660048036038101906104819190613784565b610f3e565b005b34801561049457600080fd5b5061049d610fda565b6040516104aa9190614add565b60405180910390f35b3480156104bf57600080fd5b506104da60048036038101906104d59190613812565b610ffe565b6040516104e791906147bb565b60405180910390f35b3480156104fc57600080fd5b506105056110aa565b60405161051291906147bb565b60405180910390f35b34801561052757600080fd5b5061053061113c565b60405161053d9190614add565b60405180910390f35b34801561055257600080fd5b5061056d600480360381019061056891906136e3565b611147565b005b34801561057b57600080fd5b5061059660048036038101906105919190613668565b61115d565b005b3480156105a457600080fd5b506105bf60048036038101906105ba9190613812565b6111bf565b6040516105cc91906147bb565b60405180910390f35b3480156105e157600080fd5b506105fc60048036038101906105f79190613812565b61126b565b60405161060991906147bb565b60405180910390f35b34801561061e57600080fd5b506106276113bd565b6040516106349190614add565b60405180910390f35b34801561064957600080fd5b506106526113c3565b60405161065f9190614add565b60405180910390f35b34801561067457600080fd5b5061068f600480360381019061068a91906135dd565b6113e7565b60405161069c91906146fc565b60405180910390f35b6106ad61147b565b6040516106ba9190614717565b60405180910390f35b7f000000000000000000000000000000000000000000000000000000000000000081565b60006107127f780e9d630000000000000000000000000000000000000000000000000000000061157f565b7f80ac58cd000000000000000000000000000000000000000000000000000000007bffffffffffffffffffffffffffffffffffffffffffffffffffffffff1916827bffffffffffffffffffffffffffffffffffffffffffffffffffffffff191614806107db57507f5b5e139f000000000000000000000000000000000000000000000000000000007bffffffffffffffffffffffffffffffffffffffffffffffffffffffff1916827bffffffffffffffffffffffffffffffffffffffffffffffffffffffff1916145b8061084357507f780e9d63000000000000000000000000000000000000000000000000000000007bffffffffffffffffffffffffffffffffffffffffffffffffffffffff1916827bffffffffffffffffffffffffffffffffffffffffffffffffffffffff1916145b80610853575061085282611618565b5b9050919050565b60606000805461086990614d9a565b80601f016020809104026020016040519081016040528092919081815260200182805461089590614d9a565b80156108e25780601f106108b7576101008083540402835291602001916108e2565b820191906000526020600020905b8154815290600101906020018083116108c557829003601f168201915b5050505050905090565b60006108f782611682565b610936576040517f08c379a000000000000000000000000000000000000000000000000000000000815260040161092d906149fd565b60405180910390fd5b6004600083815260200190815260200160002060009054906101000a900473ffffffffffffffffffffffffffffffffffffffff169050919050565b600061097c82610dd4565b90508073ffffffffffffffffffffffffffffffffffffffff168373ffffffffffffffffffffffffffffffffffffffff1614156109ed576040517f08c379a00000000000000000000000000000000000000000000000000000000081526004016109e490614a7d565b60405180910390fd5b8073ffffffffffffffffffffffffffffffffffffffff16610a0c6116ee565b73ffffffffffffffffffffffffffffffffffffffff161480610a3b5750610a3a81610a356116ee565b6113e7565b5b610a7a576040517f08c379a0000000000000000000000000000000000000000000000000000000008152600401610a719061495d565b60405180910390fd5b610a8483836116f6565b505050565b6000600880549050905090565b6000610aa18261126b565b511115610ae3576040517f08c379a0000000000000000000000000000000000000000000000000000000008152600401610ada9061489d565b60405180910390fd5b610aec81611682565b610b2b576040517f08c379a0000000000000000000000000000000000000000000000000000000008152600401610b229061483d565b60405180910390fd5b6000601260008381526020019081526020016000205411610b81576040517f08c379a0000000000000000000000000000000000000000000000000000000008152600401610b78906149bd565b60405180910390fd5b6000601260008381526020019081526020016000205490506000610ba4826117af565b90506000610bb18261190b565b9050610bbc816119a4565b6000610bc782611a3d565b9050610bd38582611ad6565b847fb5a8d8cf5d01b5006e471421ba7da032446e2a82412342ed548b7aeed0ea9b6984604051610c0391906147bb565b60405180910390a25050505050565b610c23610c1d6116ee565b82611b4a565b610c62576040517f08c379a0000000000000000000000000000000000000000000000000000000008152600401610c599061493d565b60405180910390fd5b610c6d838383611c28565b505050565b6000610c7d83610e86565b8210610cbe576040517f08c379a0000000000000000000000000000000000000000000000000000000008152600401610cb5906147fd565b60405180910390fd5b600660008473ffffffffffffffffffffffffffffffffffffffff1673ffffffffffffffffffffffffffffffffffffffff168152602001908152602001600020600083815260200190815260200160002054905092915050565b610d328383836040518060200160405280600081525061115d565b505050565b6000610d41610a89565b8210610d82576040517f08c379a0000000000000000000000000000000000000000000000000000000008152600401610d7990614abd565b60405180910390fd5b60088281548110610dbc577f4e487b7100000000000000000000000000000000000000000000000000000000600052603260045260246000fd5b90600052602060002001549050919050565b600c5481565b6000806002600084815260200190815260200160002060009054906101000a900473ffffffffffffffffffffffffffffffffffffffff169050600073ffffffffffffffffffffffffffffffffffffffff168173ffffffffffffffffffffffffffffffffffffffff161415610e7d576040517f08c379a0000000000000000000000000000000000000000000000000000000008152600401610e749061497d565b60405180910390fd5b80915050919050565b60008073ffffffffffffffffffffffffffffffffffffffff168273ffffffffffffffffffffffffffffffffffffffff161415610ef7576040517f08c379a0000000000000000000000000000000000000000000000000000000008152600401610eee906147dd565b60405180910390fd5b600360008373ffffffffffffffffffffffffffffffffffffffff1673ffffffffffffffffffffffffffffffffffffffff168152602001908152602001600020549050919050565b7f000000000000000000000000000000000000000000000000000000000000000073ffffffffffffffffffffffffffffffffffffffff163373ffffffffffffffffffffffffffffffffffffffff1614610fcc576040517f08c379a0000000000000000000000000000000000000000000000000000000008152600401610fc390614a5d565b60405180910390fd5b610fd68282611e91565b5050565b7f000000000000000000000000000000000000000000000000000000000000000081565b600e818154811061100e57600080fd5b90600052602060002001600091509050805461102990614d9a565b80601f016020809104026020016040519081016040528092919081815260200182805461105590614d9a565b80156110a25780601f10611077576101008083540402835291602001916110a2565b820191906000526020600020905b81548152906001019060200180831161108557829003601f168201915b505050505081565b6060600180546110b990614d9a565b80601f01602080910402602001604051908101604052809291908181526020018280546110e590614d9a565b80156111325780601f1061110757610100808354040283529160200191611132565b820191906000526020600020905b81548152906001019060200180831161111557829003601f168201915b5050505050905090565b662386f26fc1000081565b6111596111526116ee565b8383611f41565b5050565b61116e6111686116ee565b83611b4a565b6111ad576040517f08c379a00000000000000000000000000000000000000000000000000000000081526004016111a490614a9d565b60405180910390fd5b6111b9848484846120ae565b50505050565b600f81815481106111cf57600080fd5b9060005260206000200160009150905080546111ea90614d9a565b80601f016020809104026020016040519081016040528092919081815260200182805461121690614d9a565b80156112635780601f1061123857610100808354040283529160200191611263565b820191906000526020600020905b81548152906001019060200180831161124657829003601f168201915b505050505081565b606061127682611682565b6112b5576040517f08c379a00000000000000000000000000000000000000000000000000000000081526004016112ac9061499d565b60405180910390fd5b6000600a600084815260200190815260200160002080546112d590614d9a565b80601f016020809104026020016040519081016040528092919081815260200182805461130190614d9a565b801561134e5780601f106113235761010080835404028352916020019161134e565b820191906000526020600020905b81548152906001019060200180831161133157829003601f168201915b50505050509050600061135f61210a565b90506000815114156113755781925050506113b8565b6000825111156113aa57808260405160200161139292919061451e565b604051602081830303815290604052925050506113b8565b6113b384612121565b925050505b919050565b600d5481565b7f000000000000000000000000000000000000000000000000000000000000000081565b6000600560008473ffffffffffffffffffffffffffffffffffffffff1673ffffffffffffffffffffffffffffffffffffffff16815260200190815260200160002060008373ffffffffffffffffffffffffffffffffffffffff1673ffffffffffffffffffffffffffffffffffffffff16815260200190815260200160002060009054906101000a900460ff16905092915050565b600034662386f26fc1000011156114c7576040517f08c379a00000000000000000000000000000000000000000000000000000000081526004016114be906148dd565b60405180910390fd5b60006114d1610a89565b90506114e1600c54600d546121c8565b9150336010600084815260200190815260200160002060006101000a81548173ffffffffffffffffffffffffffffffffffffffff021916908373ffffffffffffffffffffffffffffffffffffffff16021790555080601160008481526020019081526020016000208190555080827fb97343f1f2afc4959f818046ccae28fd7b05fcd2b7a7dc651cbb52a096cae03560405160405180910390a35090565b6116158160405160240161159391906147a0565b6040516020818303038152906040527fe05f48d1000000000000000000000000000000000000000000000000000000007bffffffffffffffffffffffffffffffffffffffffffffffffffffffff19166020820180517bffffffffffffffffffffffffffffffffffffffffffffffffffffffff838183161783525050505061232a565b50565b60007f01ffc9a7000000000000000000000000000000000000000000000000000000007bffffffffffffffffffffffffffffffffffffffffffffffffffffffff1916827bffffffffffffffffffffffffffffffffffffffffffffffffffffffff1916149050919050565b60008073ffffffffffffffffffffffffffffffffffffffff166002600084815260200190815260200160002060009054906101000a900473ffffffffffffffffffffffffffffffffffffffff1673ffffffffffffffffffffffffffffffffffffffff1614159050919050565b600033905090565b816004600083815260200190815260200160002060006101000a81548173ffffffffffffffffffffffffffffffffffffffff021916908373ffffffffffffffffffffffffffffffffffffffff160217905550808273ffffffffffffffffffffffffffffffffffffffff1661176983610dd4565b73ffffffffffffffffffffffffffffffffffffffff167f8c5be1e5ebec7d5bd14f71427d1e84f3dd0314c0f7b2291e5b200ac8c7c3b92560405160405180910390a45050565b6060600060017f0000000000000000000000000000000000000000000000000000000000000000846117e19190614e29565b6117eb9190614bc5565b90506118167f0000000000000000000000000000000000000000000000000000000000000000612353565b61183f7f0000000000000000000000000000000000000000000000000000000000000000612353565b6040516020016118509291906145e5565b604051602081830303815290604052915060005b818110156118e25760008482604051602001611881929190614af8565b6040516020818303038152906040528051906020012060001c905060006118a782612500565b905084816040516020016118bc92919061451e565b6040516020818303038152906040529450505080806118da90614dcc565b915050611864565b50816040516020016118f491906145c3565b604051602081830303815290604052915050919050565b606060006040518060400160405280601a81526020017f646174613a696d6167652f7376672b786d6c3b6261736536342c000000000000815250905060006119718460405160200161195d9190614507565b60405160208183030381529060405261272e565b90506000828260405160200161198892919061451e565b6040516020818303038152906040529050809350505050919050565b611a3a816040516024016119b891906147bb565b6040516020818303038152906040527f41304fac000000000000000000000000000000000000000000000000000000007bffffffffffffffffffffffffffffffffffffffffffffffffffffffff19166020820180517bffffffffffffffffffffffffffffffffffffffffffffffffffffffff838183161783525050505061232a565b50565b606060006040518060400160405280601d81526020017f646174613a6170706c69636174696f6e2f6a736f6e3b6261736536342c00000081525090506000611aa384604051602001611a8f919061462a565b60405160208183030381529060405261272e565b905060008282604051602001611aba92919061451e565b6040516020818303038152906040529050809350505050919050565b611adf82611682565b611b1e576040517f08c379a0000000000000000000000000000000000000000000000000000000008152600401611b1590614a1d565b60405180910390fd5b80600a60008481526020019081526020016000209080519060200190611b45929190613416565b505050565b6000611b5582611682565b611b94576040517f08c379a0000000000000000000000000000000000000000000000000000000008152600401611b8b906148fd565b60405180910390fd5b6000611b9f83610dd4565b90508073ffffffffffffffffffffffffffffffffffffffff168473ffffffffffffffffffffffffffffffffffffffff161480611c0e57508373ffffffffffffffffffffffffffffffffffffffff16611bf6846108ec565b73ffffffffffffffffffffffffffffffffffffffff16145b80611c1f5750611c1e81856113e7565b5b91505092915050565b8273ffffffffffffffffffffffffffffffffffffffff16611c4882610dd4565b73ffffffffffffffffffffffffffffffffffffffff1614611c9e576040517f08c379a0000000000000000000000000000000000000000000000000000000008152600401611c959061485d565b60405180910390fd5b600073ffffffffffffffffffffffffffffffffffffffff168273ffffffffffffffffffffffffffffffffffffffff161415611d0e576040517f08c379a0000000000000000000000000000000000000000000000000000000008152600401611d05906148bd565b60405180910390fd5b611d1a600083836128cd565b611d256000826116f6565b6001600360008573ffffffffffffffffffffffffffffffffffffffff1673ffffffffffffffffffffffffffffffffffffffff1681526020019081526020016000206000828254611d759190614ca6565b925050819055506001600360008473ffffffffffffffffffffffffffffffffffffffff1673ffffffffffffffffffffffffffffffffffffffff1681526020019081526020016000206000828254611dcc9190614bc5565b92505081905550816002600083815260200190815260200160002060006101000a81548173ffffffffffffffffffffffffffffffffffffffff021916908373ffffffffffffffffffffffffffffffffffffffff160217905550808273ffffffffffffffffffffffffffffffffffffffff168473ffffffffffffffffffffffffffffffffffffffff167fddf252ad1be2c89b69c2b068fc378daa952ba7f163c4a11628f55a4df523b3ef60405160405180910390a4611e8c600083836129d6565b505050565b60006010600084815260200190815260200160002060009054906101000a900473ffffffffffffffffffffffffffffffffffffffff169050600060116000858152602001908152602001600020549050611eeb82826129db565b826012600083815260200190815260200160002081905550807faad5362ce528ed941024b95d4c18dfd49b8503e1f586a5c353631d98c2af41b784604051611f339190614add565b60405180910390a250505050565b8173ffffffffffffffffffffffffffffffffffffffff168373ffffffffffffffffffffffffffffffffffffffff161415611fb0576040517f08c379a0000000000000000000000000000000000000000000000000000000008152600401611fa79061491d565b60405180910390fd5b80600560008573ffffffffffffffffffffffffffffffffffffffff1673ffffffffffffffffffffffffffffffffffffffff16815260200190815260200160002060008473ffffffffffffffffffffffffffffffffffffffff1673ffffffffffffffffffffffffffffffffffffffff16815260200190815260200160002060006101000a81548160ff0219169083151502179055508173ffffffffffffffffffffffffffffffffffffffff168373ffffffffffffffffffffffffffffffffffffffff167f17307eab39ab6107e8899845ad3d59bd9653f200f220920489ca2b5937696c31836040516120a191906146fc565b60405180910390a3505050565b6120b9848484611c28565b6120c5848484846129f9565b612104576040517f08c379a00000000000000000000000000000000000000000000000000000000081526004016120fb9061481d565b60405180910390fd5b50505050565b606060405180602001604052806000815250905090565b606061212c82611682565b61216b576040517f08c379a000000000000000000000000000000000000000000000000000000000815260040161216290614a3d565b60405180910390fd5b600061217561210a565b9050600081511161219557604051806020016040528060008152506121c0565b8061219f84612353565b6040516020016121b092919061451e565b6040516020818303038152906040525b915050919050565b60007f000000000000000000000000000000000000000000000000000000000000000073ffffffffffffffffffffffffffffffffffffffff16634000aea07f00000000000000000000000000000000000000000000000000000000000000008486600060405160200161223c929190614732565b6040516020818303038152906040526040518463ffffffff1660e01b8152600401612269939291906146be565b602060405180830381600087803b15801561228357600080fd5b505af1158015612297573d6000803e3d6000fd5b505050506040513d601f19601f820116820180604052508101906122bb919061375b565b5060006122de84600030600b600089815260200190815260200160002054612b90565b90506001600b6000868152602001908152602001600020546123009190614bc5565b600b6000868152602001908152602001600020819055506123218482612bcc565b91505092915050565b60008151905060006a636f6e736f6c652e6c6f679050602083016000808483855afa5050505050565b6060600082141561239b576040518060400160405280600181526020017f300000000000000000000000000000000000000000000000000000000000000081525090506124fb565b600082905060005b600082146123cd5780806123b690614dcc565b915050600a826123c69190614c1b565b91506123a3565b60008167ffffffffffffffff81111561240f577f4e487b7100000000000000000000000000000000000000000000000000000000600052604160045260246000fd5b6040519080825280601f01601f1916602001820160405280156124415781602001600182028036833780820191505090505b5090505b600085146124f45760018261245a9190614ca6565b9150600a856124699190614e29565b60306124759190614bc5565b60f81b8183815181106124b1577f4e487b7100000000000000000000000000000000000000000000000000000000600052603260045260246000fd5b60200101907effffffffffffffffffffffffffffffffffffffffffffffffffffffffffffff1916908160001a905350600a856124ed9190614c1b565b9450612445565b8093505050505b919050565b6060600060017f0000000000000000000000000000000000000000000000000000000000000000846125329190614e29565b61253c9190614bc5565b90506040518060400160405280600981526020017f3c7061746820643d270000000000000000000000000000000000000000000000815250915060005b8181101561262257600084827f00000000000000000000000000000000000000000000000000000000000000006125b09190614bc5565b6040516020016125c1929190614af8565b6040516020818303038152906040528051906020012060001c905060006125e782612bff565b905084816040516020016125fc92919061451e565b60405160208183030381529060405294505050808061261a90614dcc565b915050612579565b506000600f8080549050856126379190614e29565b8154811061266e577f4e487b7100000000000000000000000000000000000000000000000000000000600052603260045260246000fd5b90600052602060002001805461268390614d9a565b80601f01602080910402602001604051908101604052809291908181526020018280546126af90614d9a565b80156126fc5780601f106126d1576101008083540402835291602001916126fc565b820191906000526020600020905b8154815290600101906020018083116126df57829003601f168201915b505050505090508281604051602001612716929190614589565b60405160208183030381529060405292505050919050565b6060600082511415612751576040518060200160405280600081525090506128c8565b6000604051806060016040528060408152602001614f9b60409139905060006003600285516127809190614bc5565b61278a9190614c1b565b60046127969190614c4c565b905060006020826127a79190614bc5565b67ffffffffffffffff8111156127e6577f4e487b7100000000000000000000000000000000000000000000000000000000600052604160045260246000fd5b6040519080825280601f01601f1916602001820160405280156128185781602001600182028036833780820191505090505b509050818152600183018586518101602084015b81831015612887576003830192508251603f8160121c168501518253600182019150603f81600c1c168501518253600182019150603f8160061c168501518253600182019150603f811685015182536001820191505061282c565b6003895106600181146128a157600281146128b1576128bc565b613d3d60f01b60028303526128bc565b603d60f81b60018303525b50505050508093505050505b919050565b600073ffffffffffffffffffffffffffffffffffffffff168373ffffffffffffffffffffffffffffffffffffffff1614156129105761290b81612e2a565b61294f565b8173ffffffffffffffffffffffffffffffffffffffff168373ffffffffffffffffffffffffffffffffffffffff161461294e5761294d8382612e73565b5b5b600073ffffffffffffffffffffffffffffffffffffffff168273ffffffffffffffffffffffffffffffffffffffff1614156129925761298d81612fe0565b6129d1565b8273ffffffffffffffffffffffffffffffffffffffff168273ffffffffffffffffffffffffffffffffffffffff16146129d0576129cf8282613123565b5b5b505050565b505050565b6129f58282604051806020016040528060008152506131a2565b5050565b6000612a1a8473ffffffffffffffffffffffffffffffffffffffff166131fd565b15612b83578373ffffffffffffffffffffffffffffffffffffffff1663150b7a02612a436116ee565b8786866040518563ffffffff1660e01b8152600401612a659493929190614672565b602060405180830381600087803b158015612a7f57600080fd5b505af1925050508015612ab057506040513d601f19601f82011682018060405250810190612aad91906137e9565b60015b612b33573d8060008114612ae0576040519150601f19603f3d011682016040523d82523d6000602084013e612ae5565b606091505b50600081511415612b2b576040517f08c379a0000000000000000000000000000000000000000000000000000000008152600401612b229061481d565b60405180910390fd5b805181602001fd5b63150b7a0260e01b7bffffffffffffffffffffffffffffffffffffffffffffffffffffffff1916817bffffffffffffffffffffffffffffffffffffffffffffffffffffffff191614915050612b88565b600190505b949350505050565b600084848484604051602001612ba9949392919061475b565b6040516020818303038152906040528051906020012060001c9050949350505050565b60008282604051602001612be19291906144db565b60405160208183030381529060405280519060200120905092915050565b6060600e808054905083612c139190614e29565b81548110612c4a577f4e487b7100000000000000000000000000000000000000000000000000000000600052603260045260246000fd5b906000526020600020018054612c5f90614d9a565b80601f0160208091040260200160405190810160405280929190818152602001828054612c8b90614d9a565b8015612cd85780601f10612cad57610100808354040283529160200191612cd8565b820191906000526020600020905b815481529060010190602001808311612cbb57829003601f168201915b5050505050905060007f00000000000000000000000000000000000000000000000000000000000000008360027f0000000000000000000000000000000000000000000000000000000000000000612d309190614c4c565b604051602001612d41929190614af8565b6040516020818303038152906040528051906020012060001c612d649190614e29565b905060007f00000000000000000000000000000000000000000000000000000000000000008460037f0000000000000000000000000000000000000000000000000000000000000000612db79190614c4c565b604051602001612dc8929190614af8565b6040516020818303038152906040528051906020012060001c612deb9190614e29565b905082612df783612353565b612e0083612353565b604051602001612e1293929190614542565b60405160208183030381529060405292505050919050565b6008805490506009600083815260200190815260200160002081905550600881908060018154018082558091505060019003906000526020600020016000909190919091505550565b60006001612e8084610e86565b612e8a9190614ca6565b9050600060076000848152602001908152602001600020549050818114612f6f576000600660008673ffffffffffffffffffffffffffffffffffffffff1673ffffffffffffffffffffffffffffffffffffffff168152602001908152602001600020600084815260200190815260200160002054905080600660008773ffffffffffffffffffffffffffffffffffffffff1673ffffffffffffffffffffffffffffffffffffffff168152602001908152602001600020600084815260200190815260200160002081905550836007600083815260200190815260200160002081905550505b6007600084815260200190815260200160002060009055600660008573ffffffffffffffffffffffffffffffffffffffff1673ffffffffffffffffffffffffffffffffffffffff16815260200190815260200160002060008381526020019081526020016000206000905550505050565b60006001600880549050612ff49190614ca6565b905060006009600084815260200190815260200160002054905060006008838154811061304a577f4e487b7100000000000000000000000000000000000000000000000000000000600052603260045260246000fd5b906000526020600020015490508060088381548110613092577f4e487b7100000000000000000000000000000000000000000000000000000000600052603260045260246000fd5b906000526020600020018190555081600960008381526020019081526020016000208190555060096000858152602001908152602001600020600090556008805480613107577f4e487b7100000000000000000000000000000000000000000000000000000000600052603160045260246000fd5b6001900381819060005260206000200160009055905550505050565b600061312e83610e86565b905081600660008573ffffffffffffffffffffffffffffffffffffffff1673ffffffffffffffffffffffffffffffffffffffff168152602001908152602001600020600083815260200190815260200160002081905550806007600084815260200190815260200160002081905550505050565b6131ac838361323c565b6131b960008484846129f9565b6131f8576040517f08c379a00000000000000000000000000000000000000000000000000000000081526004016131ef9061481d565b60405180910390fd5b505050565b6000808273ffffffffffffffffffffffffffffffffffffffff16803b806020016040519081016040528181526000908060200190933c51119050919050565b600073ffffffffffffffffffffffffffffffffffffffff168273ffffffffffffffffffffffffffffffffffffffff1614156132ac576040517f08c379a00000000000000000000000000000000000000000000000000000000081526004016132a3906149dd565b60405180910390fd5b6132b581611682565b156132f5576040517f08c379a00000000000000000000000000000000000000000000000000000000081526004016132ec9061487d565b60405180910390fd5b613301600083836128cd565b6001600360008473ffffffffffffffffffffffffffffffffffffffff1673ffffffffffffffffffffffffffffffffffffffff16815260200190815260200160002060008282546133519190614bc5565b92505081905550816002600083815260200190815260200160002060006101000a81548173ffffffffffffffffffffffffffffffffffffffff021916908373ffffffffffffffffffffffffffffffffffffffff160217905550808273ffffffffffffffffffffffffffffffffffffffff16600073ffffffffffffffffffffffffffffffffffffffff167fddf252ad1be2c89b69c2b068fc378daa952ba7f163c4a11628f55a4df523b3ef60405160405180910390a4613412600083836129d6565b5050565b82805461342290614d9a565b90600052602060002090601f016020900481019282613444576000855561348b565b82601f1061345d57805160ff191683800117855561348b565b8280016001018555821561348b579182015b8281111561348a57825182559160200191906001019061346f565b5b509050613498919061349c565b5090565b5b808211156134b557600081600090555060010161349d565b5090565b60006134cc6134c784614b52565b614b21565b9050828152602081018484840111156134e457600080fd5b6134ef848285614d58565b509392505050565b60008135905061350681614f27565b92915050565b60008135905061351b81614f3e565b92915050565b60008151905061353081614f3e565b92915050565b60008135905061354581614f55565b92915050565b60008135905061355a81614f6c565b92915050565b60008151905061356f81614f6c565b92915050565b600082601f83011261358657600080fd5b81356135968482602086016134b9565b91505092915050565b6000813590506135ae81614f83565b92915050565b6000602082840312156135c657600080fd5b60006135d4848285016134f7565b91505092915050565b600080604083850312156135f057600080fd5b60006135fe858286016134f7565b925050602061360f858286016134f7565b9150509250929050565b60008060006060848603121561362e57600080fd5b600061363c868287016134f7565b935050602061364d868287016134f7565b925050604061365e8682870161359f565b9150509250925092565b6000806000806080858703121561367e57600080fd5b600061368c878288016134f7565b945050602061369d878288016134f7565b93505060406136ae8782880161359f565b925050606085013567ffffffffffffffff8111156136cb57600080fd5b6136d787828801613575565b91505092959194509250565b600080604083850312156136f657600080fd5b6000613704858286016134f7565b92505060206137158582860161350c565b9150509250929050565b6000806040838503121561373257600080fd5b6000613740858286016134f7565b92505060206137518582860161359f565b9150509250929050565b60006020828403121561376d57600080fd5b600061377b84828501613521565b91505092915050565b6000806040838503121561379757600080fd5b60006137a585828601613536565b92505060206137b68582860161359f565b9150509250929050565b6000602082840312156137d257600080fd5b60006137e08482850161354b565b91505092915050565b6000602082840312156137fb57600080fd5b600061380984828501613560565b91505092915050565b60006020828403121561382457600080fd5b60006138328482850161359f565b91505092915050565b61384481614cda565b82525050565b61385381614cec565b82525050565b61386281614cf8565b82525050565b61387961387482614cf8565b614e15565b82525050565b61388881614d02565b82525050565b600061389982614b82565b6138a38185614b98565b93506138b3818560208601614d67565b6138bc81614f16565b840191505092915050565b60006138d282614b8d565b6138dc8185614ba9565b93506138ec818560208601614d67565b6138f581614f16565b840191505092915050565b600061390b82614b8d565b6139158185614bba565b9350613925818560208601614d67565b80840191505092915050565b600061393e602683614ba9565b91507f4552433732313a2062616c616e636520717565727920666f72207a65726f206160008301527f64647265737300000000000000000000000000000000000000000000000000006020830152604082019050919050565b60006139a4602b83614ba9565b91507f455243373231456e756d657261626c653a206f776e657220696e646578206f7560008301527f74206f6620626f756e64730000000000000000000000000000000000000000006020830152604082019050919050565b6000613a0a603283614ba9565b91507f4552433732313a207472616e7366657220746f206e6f6e20455243373231526560008301527f63656976657220696d706c656d656e74657200000000000000000000000000006020830152604082019050919050565b6000613a70602383614ba9565b91507f5356474e46543a20546f6b656e496420686173206e6f74206265656e206d696e60008301527f74656400000000000000000000000000000000000000000000000000000000006020830152604082019050919050565b6000613ad6602583614ba9565b91507f4552433732313a207472616e736665722066726f6d20696e636f72726563742060008301527f6f776e65720000000000000000000000000000000000000000000000000000006020830152604082019050919050565b6000613b3c601c83614ba9565b91507f4552433732313a20746f6b656e20616c7265616479206d696e746564000000006000830152602082019050919050565b6000613b7c602483614ba9565b91507f5356474e46543a20746f6b656e55524920697320616c726561647920616c6c2060008301527f73657421000000000000000000000000000000000000000000000000000000006020830152604082019050919050565b6000613be2602483614ba9565b91507f4552433732313a207472616e7366657220746f20746865207a65726f2061646460008301527f72657373000000000000000000000000000000000000000000000000000000006020830152604082019050919050565b6000613c48601f83614ba9565b91507f45746865722076616c75652073656e74206973206e6f7420636f7272656374006000830152602082019050919050565b6000613c88602c83614ba9565b91507f4552433732313a206f70657261746f7220717565727920666f72206e6f6e657860008301527f697374656e7420746f6b656e00000000000000000000000000000000000000006020830152604082019050919050565b6000613cee600183614bba565b91507f20000000000000000000000000000000000000000000000000000000000000006000830152600182019050919050565b6000613d2e600383614bba565b91507f272f3e00000000000000000000000000000000000000000000000000000000006000830152600382019050919050565b6000613d6e601983614ba9565b91507f4552433732313a20617070726f766520746f2063616c6c6564000000000000006000830152602082019050919050565b6000613dae603183614ba9565b91507f4552433732313a207472616e736665722063616c6c6572206973206e6f74206f60008301527f776e6572206e6f7420617070726f7665640000000000000000000000000000006020830152604082019050919050565b6000613e14603883614ba9565b91507f4552433732313a20617070726f76652063616c6c6572206973206e6f74206f7760008301527f6e6572206e6f7220617070726f76656420666f7220616c6c00000000000000006020830152604082019050919050565b6000613e7a602983614ba9565b91507f4552433732313a206f776e657220717565727920666f72206e6f6e657869737460008301527f656e7420746f6b656e00000000000000000000000000000000000000000000006020830152604082019050919050565b6000613ee0603283614ba9565b91507f45524337323155524953746f726167653a2055524920717565727920666f722060008301527f6e6f6e206578697374656e7420746f6b656e00000000000000000000000000006020830152604082019050919050565b6000613f46600283614bba565b91507f227d0000000000000000000000000000000000000000000000000000000000006000830152600282019050919050565b6000613f86602683614ba9565b91507f5356474e46543a204e65656420746f207761697420666f7220436861696e4c6960008301527f6e6b2056524600000000000000000000000000000000000000000000000000006020830152604082019050919050565b6000613fec602083614ba9565b91507f4552433732313a206d696e7420746f20746865207a65726f20616464726573736000830152602082019050919050565b600061402c602c83614ba9565b91507f4552433732313a20617070726f76656420717565727920666f72206e6f6e657860008301527f697374656e7420746f6b656e00000000000000000000000000000000000000006020830152604082019050919050565b6000614092602b83614ba9565b91507f45524337323153746f726167653a2055524920736574206f66206e6f6e65786960008301527f7374656e7420746f6b656e0000000000000000000000000000000000000000006020830152604082019050919050565b60006140f8603083614bba565b91507f3c73766720786d6c6e733d27687474703a2f2f7777772e77332e6f72672f323060008301527f30302f73766727206865696768743d27000000000000000000000000000000006020830152603082019050919050565b600061415e602f83614ba9565b91507f4552433732314d657461646174613a2055524920717565727920666f72206e6f60008301527f6e6578697374656e7420746f6b656e00000000000000000000000000000000006020830152604082019050919050565b60006141c4601883614bba565b91507f272066696c6c3d276f72616e676527207374726f6b653d2700000000000000006000830152601882019050919050565b6000614204601f83614ba9565b91507f4f6e6c7920565246436f6f7264696e61746f722063616e2066756c66696c6c006000830152602082019050919050565b6000614244602183614ba9565b91507f4552433732313a20617070726f76616c20746f2063757272656e74206f776e6560008301527f72000000000000000000000000000000000000000000000000000000000000006020830152604082019050919050565b60006142aa603183614ba9565b91507f4552433732313a207472616e736665722063616c6c6572206973206e6f74206f60008301527f776e6572206e6f7220617070726f7665640000000000000000000000000000006020830152604082019050919050565b6000614310602c83614ba9565b91507f455243373231456e756d657261626c653a20676c6f62616c20696e646578206f60008301527f7574206f6620626f756e647300000000000000000000000000000000000000006020830152604082019050919050565b6000614376600283614bba565b91507f273e0000000000000000000000000000000000000000000000000000000000006000830152600282019050919050565b60006143b6604d83614bba565b91507f7b226e616d65223a20224f4e434841494e204e4654222c20226465736372697060008301527f74696f6e223a20227b646573637d222c202261747472696275746573223a202260208301527f222c2022696d616765223a2022000000000000000000000000000000000000006040830152604d82019050919050565b6000614442600683614bba565b91507f3c2f7376673e00000000000000000000000000000000000000000000000000006000830152600682019050919050565b6000614482600983614bba565b91507f272077696474683d2700000000000000000000000000000000000000000000006000830152600982019050919050565b6144be81614d4e565b82525050565b6144d56144d082614d4e565b614e1f565b82525050565b60006144e78285613868565b6020820191506144f782846144c4565b6020820191508190509392505050565b60006145138284613900565b915081905092915050565b600061452a8285613900565b91506145368284613900565b91508190509392505050565b600061454e8286613900565b915061455982613ce1565b91506145658285613900565b915061457082613ce1565b915061457c8284613900565b9150819050949350505050565b60006145958285613900565b91506145a0826141b7565b91506145ac8284613900565b91506145b782613d21565b91508190509392505050565b60006145cf8284613900565b91506145da82614435565b915081905092915050565b60006145f0826140eb565b91506145fc8285613900565b915061460782614475565b91506146138284613900565b915061461e82614369565b91508190509392505050565b6000614635826143a9565b91506146418284613900565b915061464c82613f39565b915081905092915050565b600060208201905061466c600083018461383b565b92915050565b6000608082019050614687600083018761383b565b614694602083018661383b565b6146a160408301856144b5565b81810360608301526146b3818461388e565b905095945050505050565b60006060820190506146d3600083018661383b565b6146e060208301856144b5565b81810360408301526146f2818461388e565b9050949350505050565b6000602082019050614711600083018461384a565b92915050565b600060208201905061472c6000830184613859565b92915050565b60006040820190506147476000830185613859565b61475460208301846144b5565b9392505050565b60006080820190506147706000830187613859565b61477d60208301866144b5565b61478a604083018561383b565b61479760608301846144b5565b95945050505050565b60006020820190506147b5600083018461387f565b92915050565b600060208201905081810360008301526147d581846138c7565b905092915050565b600060208201905081810360008301526147f681613931565b9050919050565b6000602082019050818103600083015261481681613997565b9050919050565b60006020820190508181036000830152614836816139fd565b9050919050565b6000602082019050818103600083015261485681613a63565b9050919050565b6000602082019050818103600083015261487681613ac9565b9050919050565b6000602082019050818103600083015261489681613b2f565b9050919050565b600060208201905081810360008301526148b681613b6f565b9050919050565b600060208201905081810360008301526148d681613bd5565b9050919050565b600060208201905081810360008301526148f681613c3b565b9050919050565b6000602082019050818103600083015261491681613c7b565b9050919050565b6000602082019050818103600083015261493681613d61565b9050919050565b6000602082019050818103600083015261495681613da1565b9050919050565b6000602082019050818103600083015261497681613e07565b9050919050565b6000602082019050818103600083015261499681613e6d565b9050919050565b600060208201905081810360008301526149b681613ed3565b9050919050565b600060208201905081810360008301526149d681613f79565b9050919050565b600060208201905081810360008301526149f681613fdf565b9050919050565b60006020820190508181036000830152614a168161401f565b9050919050565b60006020820190508181036000830152614a3681614085565b9050919050565b60006020820190508181036000830152614a5681614151565b9050919050565b60006020820190508181036000830152614a76816141f7565b9050919050565b60006020820190508181036000830152614a9681614237565b9050919050565b60006020820190508181036000830152614ab68161429d565b9050919050565b60006020820190508181036000830152614ad681614303565b9050919050565b6000602082019050614af260008301846144b5565b92915050565b6000604082019050614b0d60008301856144b5565b614b1a60208301846144b5565b9392505050565b6000604051905081810181811067ffffffffffffffff82111715614b4857614b47614ee7565b5b8060405250919050565b600067ffffffffffffffff821115614b6d57614b6c614ee7565b5b601f19601f8301169050602081019050919050565b600081519050919050565b600081519050919050565b600082825260208201905092915050565b600082825260208201905092915050565b600081905092915050565b6000614bd082614d4e565b9150614bdb83614d4e565b9250827fffffffffffffffffffffffffffffffffffffffffffffffffffffffffffffffff03821115614c1057614c0f614e5a565b5b828201905092915050565b6000614c2682614d4e565b9150614c3183614d4e565b925082614c4157614c40614e89565b5b828204905092915050565b6000614c5782614d4e565b9150614c6283614d4e565b9250817fffffffffffffffffffffffffffffffffffffffffffffffffffffffffffffffff0483118215151615614c9b57614c9a614e5a565b5b828202905092915050565b6000614cb182614d4e565b9150614cbc83614d4e565b925082821015614ccf57614cce614e5a565b5b828203905092915050565b6000614ce582614d2e565b9050919050565b60008115159050919050565b6000819050919050565b60007fffffffff0000000000000000000000000000000000000000000000000000000082169050919050565b600073ffffffffffffffffffffffffffffffffffffffff82169050919050565b6000819050919050565b82818337600083830152505050565b60005b83811015614d85578082015181840152602081019050614d6a565b83811115614d94576000848401525b50505050565b60006002820490506001821680614db257607f821691505b60208210811415614dc657614dc5614eb8565b5b50919050565b6000614dd782614d4e565b91507fffffffffffffffffffffffffffffffffffffffffffffffffffffffffffffffff821415614e0a57614e09614e5a565b5b600182019050919050565b6000819050919050565b6000819050919050565b6000614e3482614d4e565b9150614e3f83614d4e565b925082614e4f57614e4e614e89565b5b828206905092915050565b7f4e487b7100000000000000000000000000000000000000000000000000000000600052601160045260246000fd5b7f4e487b7100000000000000000000000000000000000000000000000000000000600052601260045260246000fd5b7f4e487b7100000000000000000000000000000000000000000000000000000000600052602260045260246000fd5b7f4e487b7100000000000000000000000000000000000000000000000000000000600052604160045260246000fd5b6000601f19601f8301169050919050565b614f3081614cda565b8114614f3b57600080fd5b50565b614f4781614cec565b8114614f5257600080fd5b50565b614f5e81614cf8565b8114614f6957600080fd5b50565b614f7581614d02565b8114614f8057600080fd5b50565b614f8c81614d4e565b8114614f9757600080fd5b5056fe4142434445464748494a4b4c4d4e4f505152535455565758595a6162636465666768696a6b6c6d6e6f707172737475767778797a303132333435363738392b2fa264697066735822122029e2c6b67fd9aff25c54aa03b778d4cd776c7c5767d8963053b2803970a23b3864736f6c63430008000033",
  "devdoc": {
    "kind": "dev",
    "methods": {
      "approve(address,uint256)": {
        "details": "See {IERC721-approve}."
      },
      "balanceOf(address)": {
        "details": "See {IERC721-balanceOf}."
      },
      "getApproved(uint256)": {
        "details": "See {IERC721-getApproved}."
      },
      "isApprovedForAll(address,address)": {
        "details": "See {IERC721-isApprovedForAll}."
      },
      "name()": {
        "details": "See {IERC721Metadata-name}."
      },
      "ownerOf(uint256)": {
        "details": "See {IERC721-ownerOf}."
      },
      "safeTransferFrom(address,address,uint256)": {
        "details": "See {IERC721-safeTransferFrom}."
      },
      "safeTransferFrom(address,address,uint256,bytes)": {
        "details": "See {IERC721-safeTransferFrom}."
      },
      "setApprovalForAll(address,bool)": {
        "details": "See {IERC721-setApprovalForAll}."
      },
      "supportsInterface(bytes4)": {
        "details": "See {IERC165-supportsInterface}."
      },
      "symbol()": {
        "details": "See {IERC721Metadata-symbol}."
      },
      "tokenByIndex(uint256)": {
        "details": "See {IERC721Enumerable-tokenByIndex}."
      },
      "tokenOfOwnerByIndex(address,uint256)": {
        "details": "See {IERC721Enumerable-tokenOfOwnerByIndex}."
      },
      "tokenURI(uint256)": {
        "details": "See {IERC721Metadata-tokenURI}."
      },
      "totalSupply()": {
        "details": "See {IERC721Enumerable-totalSupply}."
      },
      "transferFrom(address,address,uint256)": {
        "details": "See {IERC721-transferFrom}."
      }
    },
    "version": 1
  },
  "userdoc": {
    "kind": "user",
    "methods": {},
    "version": 1
  },
  "storageLayout": {
    "storage": [
      {
        "astId": 410,
        "contract": "contracts/SVGNFT.sol:SVGNFT",
        "label": "_name",
        "offset": 0,
        "slot": "0",
        "type": "t_string_storage"
      },
      {
        "astId": 412,
        "contract": "contracts/SVGNFT.sol:SVGNFT",
        "label": "_symbol",
        "offset": 0,
        "slot": "1",
        "type": "t_string_storage"
      },
      {
        "astId": 416,
        "contract": "contracts/SVGNFT.sol:SVGNFT",
        "label": "_owners",
        "offset": 0,
        "slot": "2",
        "type": "t_mapping(t_uint256,t_address)"
      },
      {
        "astId": 420,
        "contract": "contracts/SVGNFT.sol:SVGNFT",
        "label": "_balances",
        "offset": 0,
        "slot": "3",
        "type": "t_mapping(t_address,t_uint256)"
      },
      {
        "astId": 424,
        "contract": "contracts/SVGNFT.sol:SVGNFT",
        "label": "_tokenApprovals",
        "offset": 0,
        "slot": "4",
        "type": "t_mapping(t_uint256,t_address)"
      },
      {
        "astId": 430,
        "contract": "contracts/SVGNFT.sol:SVGNFT",
        "label": "_operatorApprovals",
        "offset": 0,
        "slot": "5",
        "type": "t_mapping(t_address,t_mapping(t_address,t_bool))"
      },
      {
        "astId": 436,
        "contract": "contracts/SVGNFT.sol:SVGNFT",
        "label": "_ownedTokens",
        "offset": 0,
        "slot": "6",
        "type": "t_mapping(t_address,t_mapping(t_uint256,t_uint256))"
      },
      {
        "astId": 440,
        "contract": "contracts/SVGNFT.sol:SVGNFT",
        "label": "_ownedTokensIndex",
        "offset": 0,
        "slot": "7",
        "type": "t_mapping(t_uint256,t_uint256)"
      },
      {
        "astId": 443,
        "contract": "contracts/SVGNFT.sol:SVGNFT",
        "label": "_allTokens",
        "offset": 0,
        "slot": "8",
        "type": "t_array(t_uint256)dyn_storage"
      },
      {
        "astId": 447,
        "contract": "contracts/SVGNFT.sol:SVGNFT",
        "label": "_allTokensIndex",
        "offset": 0,
        "slot": "9",
        "type": "t_mapping(t_uint256,t_uint256)"
      },
      {
        "astId": 1569,
        "contract": "contracts/SVGNFT.sol:SVGNFT",
        "label": "_tokenURIs",
        "offset": 0,
        "slot": "10",
        "type": "t_mapping(t_uint256,t_string_storage)"
      },
      {
        "astId": 79,
        "contract": "contracts/SVGNFT.sol:SVGNFT",
        "label": "nonces",
        "offset": 0,
        "slot": "11",
        "type": "t_mapping(t_bytes32,t_uint256)"
      },
      {
        "astId": 2444,
        "contract": "contracts/SVGNFT.sol:SVGNFT",
        "label": "keyHash",
        "offset": 0,
        "slot": "12",
        "type": "t_bytes32"
      },
      {
        "astId": 2446,
        "contract": "contracts/SVGNFT.sol:SVGNFT",
        "label": "fee",
        "offset": 0,
        "slot": "13",
        "type": "t_uint256"
      },
      {
        "astId": 2455,
        "contract": "contracts/SVGNFT.sol:SVGNFT",
        "label": "pathCommands",
        "offset": 0,
        "slot": "14",
        "type": "t_array(t_string_storage)dyn_storage"
      },
      {
        "astId": 2458,
        "contract": "contracts/SVGNFT.sol:SVGNFT",
        "label": "colors",
        "offset": 0,
        "slot": "15",
        "type": "t_array(t_string_storage)dyn_storage"
      },
      {
        "astId": 2462,
        "contract": "contracts/SVGNFT.sol:SVGNFT",
        "label": "requestIdToSender",
        "offset": 0,
        "slot": "16",
        "type": "t_mapping(t_bytes32,t_address)"
      },
      {
        "astId": 2466,
        "contract": "contracts/SVGNFT.sol:SVGNFT",
        "label": "requestIdToTokenId",
        "offset": 0,
        "slot": "17",
        "type": "t_mapping(t_bytes32,t_uint256)"
      },
      {
        "astId": 2470,
        "contract": "contracts/SVGNFT.sol:SVGNFT",
        "label": "tokenIdToRandomNumber",
        "offset": 0,
        "slot": "18",
        "type": "t_mapping(t_uint256,t_uint256)"
      }
    ],
    "types": {
      "t_address": {
        "encoding": "inplace",
        "label": "address",
        "numberOfBytes": "20"
      },
      "t_array(t_string_storage)dyn_storage": {
        "base": "t_string_storage",
        "encoding": "dynamic_array",
        "label": "string[]",
        "numberOfBytes": "32"
      },
      "t_array(t_uint256)dyn_storage": {
        "base": "t_uint256",
        "encoding": "dynamic_array",
        "label": "uint256[]",
        "numberOfBytes": "32"
      },
      "t_bool": {
        "encoding": "inplace",
        "label": "bool",
        "numberOfBytes": "1"
      },
      "t_bytes32": {
        "encoding": "inplace",
        "label": "bytes32",
        "numberOfBytes": "32"
      },
      "t_mapping(t_address,t_bool)": {
        "encoding": "mapping",
        "key": "t_address",
        "label": "mapping(address => bool)",
        "numberOfBytes": "32",
        "value": "t_bool"
      },
      "t_mapping(t_address,t_mapping(t_address,t_bool))": {
        "encoding": "mapping",
        "key": "t_address",
        "label": "mapping(address => mapping(address => bool))",
        "numberOfBytes": "32",
        "value": "t_mapping(t_address,t_bool)"
      },
      "t_mapping(t_address,t_mapping(t_uint256,t_uint256))": {
        "encoding": "mapping",
        "key": "t_address",
        "label": "mapping(address => mapping(uint256 => uint256))",
        "numberOfBytes": "32",
        "value": "t_mapping(t_uint256,t_uint256)"
      },
      "t_mapping(t_address,t_uint256)": {
        "encoding": "mapping",
        "key": "t_address",
        "label": "mapping(address => uint256)",
        "numberOfBytes": "32",
        "value": "t_uint256"
      },
      "t_mapping(t_bytes32,t_address)": {
        "encoding": "mapping",
        "key": "t_bytes32",
        "label": "mapping(bytes32 => address)",
        "numberOfBytes": "32",
        "value": "t_address"
      },
      "t_mapping(t_bytes32,t_uint256)": {
        "encoding": "mapping",
        "key": "t_bytes32",
        "label": "mapping(bytes32 => uint256)",
        "numberOfBytes": "32",
        "value": "t_uint256"
      },
      "t_mapping(t_uint256,t_address)": {
        "encoding": "mapping",
        "key": "t_uint256",
        "label": "mapping(uint256 => address)",
        "numberOfBytes": "32",
        "value": "t_address"
      },
      "t_mapping(t_uint256,t_string_storage)": {
        "encoding": "mapping",
        "key": "t_uint256",
        "label": "mapping(uint256 => string)",
        "numberOfBytes": "32",
        "value": "t_string_storage"
      },
      "t_mapping(t_uint256,t_uint256)": {
        "encoding": "mapping",
        "key": "t_uint256",
        "label": "mapping(uint256 => uint256)",
        "numberOfBytes": "32",
        "value": "t_uint256"
      },
      "t_string_storage": {
        "encoding": "bytes",
        "label": "string",
        "numberOfBytes": "32"
      },
      "t_uint256": {
        "encoding": "inplace",
        "label": "uint256",
        "numberOfBytes": "32"
      }
    }
  }
}