{
  "address": "0x391553401e9760F809136F1E31d9f4FDEA586f2F",
  "abi": [
    {
      "inputs": [
        {
          "internalType": "address",
          "name": "_VRFCoordinator",
          "type": "address"
        },
        {
          "internalType": "address",
          "name": "_linkToken",
          "type": "address"
        },
        {
          "internalType": "bytes32",
          "name": "_keyhash",
          "type": "bytes32"
        },
        {
          "internalType": "uint256",
          "name": "_fee",
          "type": "uint256"
        }
      ],
      "stateMutability": "nonpayable",
      "type": "constructor"
    },
    {
      "anonymous": false,
      "inputs": [
        {
          "indexed": true,
          "internalType": "address",
          "name": "owner",
          "type": "address"
        },
        {
          "indexed": true,
          "internalType": "address",
          "name": "approved",
          "type": "address"
        },
        {
          "indexed": true,
          "internalType": "uint256",
          "name": "tokenId",
          "type": "uint256"
        }
      ],
      "name": "Approval",
      "type": "event"
    },
    {
      "anonymous": false,
      "inputs": [
        {
          "indexed": true,
          "internalType": "address",
          "name": "owner",
          "type": "address"
        },
        {
          "indexed": true,
          "internalType": "address",
          "name": "operator",
          "type": "address"
        },
        {
          "indexed": false,
          "internalType": "bool",
          "name": "approved",
          "type": "bool"
        }
      ],
      "name": "ApprovalForAll",
      "type": "event"
    },
    {
      "anonymous": false,
      "inputs": [
        {
          "indexed": true,
          "internalType": "uint256",
          "name": "tokenId",
          "type": "uint256"
        },
        {
          "indexed": false,
          "internalType": "string",
          "name": "tokenURI",
          "type": "string"
        }
      ],
      "name": "CreatedNFT",
      "type": "event"
    },
    {
      "anonymous": false,
      "inputs": [
        {
          "indexed": true,
          "internalType": "uint256",
          "name": "tokenId",
          "type": "uint256"
        },
        {
          "indexed": false,
          "internalType": "uint256",
          "name": "randomNumber",
          "type": "uint256"
        }
      ],
      "name": "CreatedUnfinishedRandomSVG",
      "type": "event"
    },
    {
      "anonymous": false,
      "inputs": [
        {
          "indexed": true,
          "internalType": "address",
          "name": "from",
          "type": "address"
        },
        {
          "indexed": true,
          "internalType": "address",
          "name": "to",
          "type": "address"
        },
        {
          "indexed": true,
          "internalType": "uint256",
          "name": "tokenId",
          "type": "uint256"
        }
      ],
      "name": "Transfer",
      "type": "event"
    },
    {
      "anonymous": false,
      "inputs": [
        {
          "indexed": true,
          "internalType": "bytes32",
          "name": "requestId",
          "type": "bytes32"
        },
        {
          "indexed": true,
          "internalType": "uint256",
          "name": "tokenId",
          "type": "uint256"
        }
      ],
      "name": "requestedRandomSVG",
      "type": "event"
    },
    {
      "inputs": [
        {
          "internalType": "address",
          "name": "to",
          "type": "address"
        },
        {
          "internalType": "uint256",
          "name": "tokenId",
          "type": "uint256"
        }
      ],
      "name": "approve",
      "outputs": [],
      "stateMutability": "nonpayable",
      "type": "function"
    },
    {
      "inputs": [
        {
          "internalType": "address",
          "name": "owner",
          "type": "address"
        }
      ],
      "name": "balanceOf",
      "outputs": [
        {
          "internalType": "uint256",
          "name": "",
          "type": "uint256"
        }
      ],
      "stateMutability": "view",
      "type": "function"
    },
    {
      "inputs": [
        {
          "internalType": "uint256",
          "name": "",
          "type": "uint256"
        }
      ],
      "name": "colors",
      "outputs": [
        {
          "internalType": "string",
          "name": "",
          "type": "string"
        }
      ],
      "stateMutability": "view",
      "type": "function"
    },
    {
      "inputs": [
        {
          "internalType": "uint256",
          "name": "_tokenId",
          "type": "uint256"
        }
      ],
      "name": "completeCreate",
      "outputs": [],
      "stateMutability": "nonpayable",
      "type": "function"
    },
    {
      "inputs": [],
      "name": "create",
      "outputs": [
        {
          "internalType": "bytes32",
          "name": "requestId",
          "type": "bytes32"
        }
      ],
      "stateMutability": "payable",
      "type": "function"
    },
    {
      "inputs": [],
      "name": "fee",
      "outputs": [
        {
          "internalType": "uint256",
          "name": "",
          "type": "uint256"
        }
      ],
      "stateMutability": "view",
      "type": "function"
    },
    {
      "inputs": [
        {
          "internalType": "uint256",
          "name": "tokenId",
          "type": "uint256"
        }
      ],
      "name": "getApproved",
      "outputs": [
        {
          "internalType": "address",
          "name": "",
          "type": "address"
        }
      ],
      "stateMutability": "view",
      "type": "function"
    },
    {
      "inputs": [
        {
          "internalType": "address",
          "name": "owner",
          "type": "address"
        },
        {
          "internalType": "address",
          "name": "operator",
          "type": "address"
        }
      ],
      "name": "isApprovedForAll",
      "outputs": [
        {
          "internalType": "bool",
          "name": "",
          "type": "bool"
        }
      ],
      "stateMutability": "view",
      "type": "function"
    },
    {
      "inputs": [],
      "name": "keyHash",
      "outputs": [
        {
          "internalType": "bytes32",
          "name": "",
          "type": "bytes32"
        }
      ],
      "stateMutability": "view",
      "type": "function"
    },
    {
      "inputs": [],
      "name": "maxPathCommands",
      "outputs": [
        {
          "internalType": "uint256",
          "name": "",
          "type": "uint256"
        }
      ],
      "stateMutability": "view",
      "type": "function"
    },
    {
      "inputs": [],
      "name": "maxPaths",
      "outputs": [
        {
          "internalType": "uint256",
          "name": "",
          "type": "uint256"
        }
      ],
      "stateMutability": "view",
      "type": "function"
    },
    {
      "inputs": [],
      "name": "name",
      "outputs": [
        {
          "internalType": "string",
          "name": "",
          "type": "string"
        }
      ],
      "stateMutability": "view",
      "type": "function"
    },
    {
      "inputs": [
        {
          "internalType": "uint256",
          "name": "tokenId",
          "type": "uint256"
        }
      ],
      "name": "ownerOf",
      "outputs": [
        {
          "internalType": "address",
          "name": "",
          "type": "address"
        }
      ],
      "stateMutability": "view",
      "type": "function"
    },
    {
      "inputs": [
        {
          "internalType": "uint256",
          "name": "",
          "type": "uint256"
        }
      ],
      "name": "pathCommands",
      "outputs": [
        {
          "internalType": "string",
          "name": "",
          "type": "string"
        }
      ],
      "stateMutability": "view",
      "type": "function"
    },
    {
      "inputs": [],
      "name": "price",
      "outputs": [
        {
          "internalType": "uint256",
          "name": "",
          "type": "uint256"
        }
      ],
      "stateMutability": "view",
      "type": "function"
    },
    {
      "inputs": [
        {
          "internalType": "bytes32",
          "name": "requestId",
          "type": "bytes32"
        },
        {
          "internalType": "uint256",
          "name": "randomness",
          "type": "uint256"
        }
      ],
      "name": "rawFulfillRandomness",
      "outputs": [],
      "stateMutability": "nonpayable",
      "type": "function"
    },
    {
      "inputs": [
        {
          "internalType": "address",
          "name": "from",
          "type": "address"
        },
        {
          "internalType": "address",
          "name": "to",
          "type": "address"
        },
        {
          "internalType": "uint256",
          "name": "tokenId",
          "type": "uint256"
        }
      ],
      "name": "safeTransferFrom",
      "outputs": [],
      "stateMutability": "nonpayable",
      "type": "function"
    },
    {
      "inputs": [
        {
          "internalType": "address",
          "name": "from",
          "type": "address"
        },
        {
          "internalType": "address",
          "name": "to",
          "type": "address"
        },
        {
          "internalType": "uint256",
          "name": "tokenId",
          "type": "uint256"
        },
        {
          "internalType": "bytes",
          "name": "_data",
          "type": "bytes"
        }
      ],
      "name": "safeTransferFrom",
      "outputs": [],
      "stateMutability": "nonpayable",
      "type": "function"
    },
    {
      "inputs": [
        {
          "internalType": "address",
          "name": "operator",
          "type": "address"
        },
        {
          "internalType": "bool",
          "name": "approved",
          "type": "bool"
        }
      ],
      "name": "setApprovalForAll",
      "outputs": [],
      "stateMutability": "nonpayable",
      "type": "function"
    },
    {
      "inputs": [],
      "name": "size",
      "outputs": [
        {
          "internalType": "uint256",
          "name": "",
          "type": "uint256"
        }
      ],
      "stateMutability": "view",
      "type": "function"
    },
    {
      "inputs": [
        {
          "internalType": "bytes4",
          "name": "interfaceId",
          "type": "bytes4"
        }
      ],
      "name": "supportsInterface",
      "outputs": [
        {
          "internalType": "bool",
          "name": "",
          "type": "bool"
        }
      ],
      "stateMutability": "view",
      "type": "function"
    },
    {
      "inputs": [],
      "name": "symbol",
      "outputs": [
        {
          "internalType": "string",
          "name": "",
          "type": "string"
        }
      ],
      "stateMutability": "view",
      "type": "function"
    },
    {
      "inputs": [
        {
          "internalType": "uint256",
          "name": "index",
          "type": "uint256"
        }
      ],
      "name": "tokenByIndex",
      "outputs": [
        {
          "internalType": "uint256",
          "name": "",
          "type": "uint256"
        }
      ],
      "stateMutability": "view",
      "type": "function"
    },
    {
      "inputs": [
        {
          "internalType": "address",
          "name": "owner",
          "type": "address"
        },
        {
          "internalType": "uint256",
          "name": "index",
          "type": "uint256"
        }
      ],
      "name": "tokenOfOwnerByIndex",
      "outputs": [
        {
          "internalType": "uint256",
          "name": "",
          "type": "uint256"
        }
      ],
      "stateMutability": "view",
      "type": "function"
    },
    {
      "inputs": [
        {
          "internalType": "uint256",
          "name": "tokenId",
          "type": "uint256"
        }
      ],
      "name": "tokenURI",
      "outputs": [
        {
          "internalType": "string",
          "name": "",
          "type": "string"
        }
      ],
      "stateMutability": "view",
      "type": "function"
    },
    {
      "inputs": [],
      "name": "totalSupply",
      "outputs": [
        {
          "internalType": "uint256",
          "name": "",
          "type": "uint256"
        }
      ],
      "stateMutability": "view",
      "type": "function"
    },
    {
      "inputs": [
        {
          "internalType": "address",
          "name": "from",
          "type": "address"
        },
        {
          "internalType": "address",
          "name": "to",
          "type": "address"
        },
        {
          "internalType": "uint256",
          "name": "tokenId",
          "type": "uint256"
        }
      ],
      "name": "transferFrom",
      "outputs": [],
      "stateMutability": "nonpayable",
      "type": "function"
    }
  ],
  "transactionHash": "0x76db03f5ac198bde5efb40cd946fe25cd8fe16e3d4ebd11fe95886d4df8bdc88",
  "args": [
    "0xb3dCcb4Cf7a26f6cf6B120Cf5A73875B7BBc655B",
    "0x01BE23585060835E02B77ef475b0Cc51aA1e0709",
    "0x2ed0feb3e7fd2022120aa84fab1945545a9f2ffc9076fd6156fa96eaff4c1311",
    "100000000000000000"
  ],
  "numDeployments": 7,
  "solcInputHash": "98c1d3d6ffb3152cb40b3260865c952e",
  "bytecode": "0x6101206040523480156200001257600080fd5b5060405162005726380380620057268339818101604052810190620000389190620005c0565b83836040518060400160405280600b81526020017f4f4e434841494e204e46540000000000000000000000000000000000000000008152506040518060400160405280600581526020017f4f4e4348200000000000000000000000000000000000000000000000000000008152508160009080519060200190620000be9291906200038f565b508060019080519060200190620000d79291906200038f565b5050508173ffffffffffffffffffffffffffffffffffffffff1660a08173ffffffffffffffffffffffffffffffffffffffff1660601b815250508073ffffffffffffffffffffffffffffffffffffffff1660808173ffffffffffffffffffffffffffffffffffffffff1660601b81525050505080600d8190555081600c81905550600a60c08181525050600560e081815250506101f4610100818152505060405180604001604052806040518060400160405280600181526020017f4d0000000000000000000000000000000000000000000000000000000000000081525081526020016040518060400160405280600181526020017f4c00000000000000000000000000000000000000000000000000000000000000815250815250600e9060026200020692919062000420565b506040518060c001604052806040518060400160405280600381526020017f726564000000000000000000000000000000000000000000000000000000000081525081526020016040518060400160405280600481526020017f626c75650000000000000000000000000000000000000000000000000000000081525081526020016040518060400160405280600581526020017f677265656e00000000000000000000000000000000000000000000000000000081525081526020016040518060400160405280600681526020017f79656c6c6f77000000000000000000000000000000000000000000000000000081525081526020016040518060400160405280600581526020017f626c61636b00000000000000000000000000000000000000000000000000000081525081526020016040518060400160405280600581526020017f7768697465000000000000000000000000000000000000000000000000000000815250815250600f9060066200038492919062000487565b505050505062000727565b8280546200039d9062000674565b90600052602060002090601f016020900481019282620003c157600085556200040d565b82601f10620003dc57805160ff19168380011785556200040d565b828001600101855582156200040d579182015b828111156200040c578251825591602001919060010190620003ef565b5b5090506200041c9190620004ee565b5090565b82805482825590600052602060002090810192821562000474579160200282015b8281111562000473578251829080519060200190620004629291906200038f565b509160200191906001019062000441565b5b5090506200048391906200050d565b5090565b828054828255906000526020600020908101928215620004db579160200282015b82811115620004da578251829080519060200190620004c99291906200038f565b5091602001919060010190620004a8565b5b509050620004ea91906200050d565b5090565b5b8082111562000509576000816000905550600101620004ef565b5090565b5b8082111562000531576000818162000527919062000535565b506001016200050e565b5090565b508054620005439062000674565b6000825580601f1062000557575062000578565b601f016020900490600052602060002090810190620005779190620004ee565b5b50565b6000815190506200058c81620006d9565b92915050565b600081519050620005a381620006f3565b92915050565b600081519050620005ba816200070d565b92915050565b60008060008060808587031215620005d757600080fd5b6000620005e7878288016200057b565b9450506020620005fa878288016200057b565b93505060406200060d8782880162000592565b92505060606200062087828801620005a9565b91505092959194509250565b600062000639826200064a565b9050919050565b6000819050919050565b600073ffffffffffffffffffffffffffffffffffffffff82169050919050565b6000819050919050565b600060028204905060018216806200068d57607f821691505b60208210811415620006a457620006a3620006aa565b5b50919050565b7f4e487b7100000000000000000000000000000000000000000000000000000000600052602260045260246000fd5b620006e4816200062c565b8114620006f057600080fd5b50565b620006fe8162000640565b81146200070a57600080fd5b50565b62000718816200066a565b81146200072457600080fd5b50565b60805160601c60a05160601c60c05160e05161010051614f6e620007b860003960008181610fd3015281816117e901528181611812015281816124e501528181612c4101528181612c6501528181612cc80152612cec0152600081816113bc01526124660152600081816106c501526117ae015260008181610f3701526121660152600061212a0152614f6e6000f3fe60806040526004361061019c5760003560e01c806370a08231116100ec578063b88d4fde1161008a578063ddca3f4311610064578063ddca3f4314610612578063df9bcd241461063d578063e985e9c514610668578063efc81a8c146106a55761019c565b8063b88d4fde1461056f578063bd11f69d14610598578063c87b56dd146105d55761019c565b8063955968d4116100c6578063955968d4146104b357806395d89b41146104f0578063a035b1fe1461051b578063a22cb465146105465761019c565b806370a082311461042257806394985ddd1461045f578063949d225d146104885761019c565b80631e5828c01161015957806342842e0e1161013357806342842e0e146103545780634f6ccce71461037d57806361728f39146103ba5780636352211e146103e55761019c565b80631e5828c0146102c557806323b872dd146102ee5780632f745c59146103175761019c565b806301f920c6146101a157806301ffc9a7146101cc57806306fdde0314610209578063081812fc14610234578063095ea7b31461027157806318160ddd1461029a575b600080fd5b3480156101ad57600080fd5b506101b66106c3565b6040516101c39190614a3b565b60405180910390f35b3480156101d857600080fd5b506101f360048036038101906101ee919061371e565b6106e7565b604051610200919061465a565b60405180910390f35b34801561021557600080fd5b5061021e61085a565b60405161022b9190614719565b60405180910390f35b34801561024057600080fd5b5061025b60048036038101906102569190613770565b6108ec565b60405161026891906145b5565b60405180910390f35b34801561027d57600080fd5b506102986004803603810190610293919061367d565b610971565b005b3480156102a657600080fd5b506102af610a89565b6040516102bc9190614a3b565b60405180910390f35b3480156102d157600080fd5b506102ec60048036038101906102e79190613770565b610a96565b005b3480156102fa57600080fd5b5061031560048036038101906103109190613577565b610c09565b005b34801561032357600080fd5b5061033e6004803603810190610339919061367d565b610c69565b60405161034b9190614a3b565b60405180910390f35b34801561036057600080fd5b5061037b60048036038101906103769190613577565b610d0e565b005b34801561038957600080fd5b506103a4600480360381019061039f9190613770565b610d2e565b6040516103b19190614a3b565b60405180910390f35b3480156103c657600080fd5b506103cf610dc5565b6040516103dc9190614675565b60405180910390f35b3480156103f157600080fd5b5061040c60048036038101906104079190613770565b610dcb565b60405161041991906145b5565b60405180910390f35b34801561042e57600080fd5b5061044960048036038101906104449190613512565b610e7d565b6040516104569190614a3b565b60405180910390f35b34801561046b57600080fd5b50610486600480360381019061048191906136e2565b610f35565b005b34801561049457600080fd5b5061049d610fd1565b6040516104aa9190614a3b565b60405180910390f35b3480156104bf57600080fd5b506104da60048036038101906104d59190613770565b610ff5565b6040516104e79190614719565b60405180910390f35b3480156104fc57600080fd5b506105056110a1565b6040516105129190614719565b60405180910390f35b34801561052757600080fd5b50610530611133565b60405161053d9190614a3b565b60405180910390f35b34801561055257600080fd5b5061056d60048036038101906105689190613641565b61113e565b005b34801561057b57600080fd5b50610596600480360381019061059191906135c6565b611154565b005b3480156105a457600080fd5b506105bf60048036038101906105ba9190613770565b6111b6565b6040516105cc9190614719565b60405180910390f35b3480156105e157600080fd5b506105fc60048036038101906105f79190613770565b611262565b6040516106099190614719565b60405180910390f35b34801561061e57600080fd5b506106276113b4565b6040516106349190614a3b565b60405180910390f35b34801561064957600080fd5b506106526113ba565b60405161065f9190614a3b565b60405180910390f35b34801561067457600080fd5b5061068f600480360381019061068a919061353b565b6113de565b60405161069c919061465a565b60405180910390f35b6106ad611472565b6040516106ba9190614675565b60405180910390f35b7f000000000000000000000000000000000000000000000000000000000000000081565b60006107127f780e9d6300000000000000000000000000000000000000000000000000000000611576565b7f80ac58cd000000000000000000000000000000000000000000000000000000007bffffffffffffffffffffffffffffffffffffffffffffffffffffffff1916827bffffffffffffffffffffffffffffffffffffffffffffffffffffffff191614806107db57507f5b5e139f000000000000000000000000000000000000000000000000000000007bffffffffffffffffffffffffffffffffffffffffffffffffffffffff1916827bffffffffffffffffffffffffffffffffffffffffffffffffffffffff1916145b8061084357507f780e9d63000000000000000000000000000000000000000000000000000000007bffffffffffffffffffffffffffffffffffffffffffffffffffffffff1916827bffffffffffffffffffffffffffffffffffffffffffffffffffffffff1916145b8061085357506108528261160f565b5b9050919050565b60606000805461086990614cf8565b80601f016020809104026020016040519081016040528092919081815260200182805461089590614cf8565b80156108e25780601f106108b7576101008083540402835291602001916108e2565b820191906000526020600020905b8154815290600101906020018083116108c557829003601f168201915b5050505050905090565b60006108f782611679565b610936576040517f08c379a000000000000000000000000000000000000000000000000000000000815260040161092d9061495b565b60405180910390fd5b6004600083815260200190815260200160002060009054906101000a900473ffffffffffffffffffffffffffffffffffffffff169050919050565b600061097c82610dcb565b90508073ffffffffffffffffffffffffffffffffffffffff168373ffffffffffffffffffffffffffffffffffffffff1614156109ed576040517f08c379a00000000000000000000000000000000000000000000000000000000081526004016109e4906149db565b60405180910390fd5b8073ffffffffffffffffffffffffffffffffffffffff16610a0c6116e5565b73ffffffffffffffffffffffffffffffffffffffff161480610a3b5750610a3a81610a356116e5565b6113de565b5b610a7a576040517f08c379a0000000000000000000000000000000000000000000000000000000008152600401610a71906148bb565b60405180910390fd5b610a8483836116ed565b505050565b6000600880549050905090565b6000610aa182611262565b511115610ae3576040517f08c379a0000000000000000000000000000000000000000000000000000000008152600401610ada906147fb565b60405180910390fd5b610aec81611679565b610b2b576040517f08c379a0000000000000000000000000000000000000000000000000000000008152600401610b229061479b565b60405180910390fd5b6000601260008381526020019081526020016000205411610b81576040517f08c379a0000000000000000000000000000000000000000000000000000000008152600401610b789061491b565b60405180910390fd5b6000601260008381526020019081526020016000205490506000610ba4826117a6565b90506000610bb182611902565b90506000610bbe8261199b565b9050610bca8582611a34565b847fb5a8d8cf5d01b5006e471421ba7da032446e2a82412342ed548b7aeed0ea9b6984604051610bfa9190614719565b60405180910390a25050505050565b610c1a610c146116e5565b82611aa8565b610c59576040517f08c379a0000000000000000000000000000000000000000000000000000000008152600401610c509061489b565b60405180910390fd5b610c64838383611b86565b505050565b6000610c7483610e7d565b8210610cb5576040517f08c379a0000000000000000000000000000000000000000000000000000000008152600401610cac9061475b565b60405180910390fd5b600660008473ffffffffffffffffffffffffffffffffffffffff1673ffffffffffffffffffffffffffffffffffffffff168152602001908152602001600020600083815260200190815260200160002054905092915050565b610d2983838360405180602001604052806000815250611154565b505050565b6000610d38610a89565b8210610d79576040517f08c379a0000000000000000000000000000000000000000000000000000000008152600401610d7090614a1b565b60405180910390fd5b60088281548110610db3577f4e487b7100000000000000000000000000000000000000000000000000000000600052603260045260246000fd5b90600052602060002001549050919050565b600c5481565b6000806002600084815260200190815260200160002060009054906101000a900473ffffffffffffffffffffffffffffffffffffffff169050600073ffffffffffffffffffffffffffffffffffffffff168173ffffffffffffffffffffffffffffffffffffffff161415610e74576040517f08c379a0000000000000000000000000000000000000000000000000000000008152600401610e6b906148db565b60405180910390fd5b80915050919050565b60008073ffffffffffffffffffffffffffffffffffffffff168273ffffffffffffffffffffffffffffffffffffffff161415610eee576040517f08c379a0000000000000000000000000000000000000000000000000000000008152600401610ee59061473b565b60405180910390fd5b600360008373ffffffffffffffffffffffffffffffffffffffff1673ffffffffffffffffffffffffffffffffffffffff168152602001908152602001600020549050919050565b7f000000000000000000000000000000000000000000000000000000000000000073ffffffffffffffffffffffffffffffffffffffff163373ffffffffffffffffffffffffffffffffffffffff1614610fc3576040517f08c379a0000000000000000000000000000000000000000000000000000000008152600401610fba906149bb565b60405180910390fd5b610fcd8282611def565b5050565b7f000000000000000000000000000000000000000000000000000000000000000081565b600e818154811061100557600080fd5b90600052602060002001600091509050805461102090614cf8565b80601f016020809104026020016040519081016040528092919081815260200182805461104c90614cf8565b80156110995780601f1061106e57610100808354040283529160200191611099565b820191906000526020600020905b81548152906001019060200180831161107c57829003601f168201915b505050505081565b6060600180546110b090614cf8565b80601f01602080910402602001604051908101604052809291908181526020018280546110dc90614cf8565b80156111295780601f106110fe57610100808354040283529160200191611129565b820191906000526020600020905b81548152906001019060200180831161110c57829003601f168201915b5050505050905090565b662386f26fc1000081565b6111506111496116e5565b8383611e9f565b5050565b61116561115f6116e5565b83611aa8565b6111a4576040517f08c379a000000000000000000000000000000000000000000000000000000000815260040161119b906149fb565b60405180910390fd5b6111b08484848461200c565b50505050565b600f81815481106111c657600080fd5b9060005260206000200160009150905080546111e190614cf8565b80601f016020809104026020016040519081016040528092919081815260200182805461120d90614cf8565b801561125a5780601f1061122f5761010080835404028352916020019161125a565b820191906000526020600020905b81548152906001019060200180831161123d57829003601f168201915b505050505081565b606061126d82611679565b6112ac576040517f08c379a00000000000000000000000000000000000000000000000000000000081526004016112a3906148fb565b60405180910390fd5b6000600a600084815260200190815260200160002080546112cc90614cf8565b80601f01602080910402602001604051908101604052809291908181526020018280546112f890614cf8565b80156113455780601f1061131a57610100808354040283529160200191611345565b820191906000526020600020905b81548152906001019060200180831161132857829003601f168201915b505050505090506000611356612068565b905060008151141561136c5781925050506113af565b6000825111156113a157808260405160200161138992919061447c565b604051602081830303815290604052925050506113af565b6113aa8461207f565b925050505b919050565b600d5481565b7f000000000000000000000000000000000000000000000000000000000000000081565b6000600560008473ffffffffffffffffffffffffffffffffffffffff1673ffffffffffffffffffffffffffffffffffffffff16815260200190815260200160002060008373ffffffffffffffffffffffffffffffffffffffff1673ffffffffffffffffffffffffffffffffffffffff16815260200190815260200160002060009054906101000a900460ff16905092915050565b600034662386f26fc1000011156114be576040517f08c379a00000000000000000000000000000000000000000000000000000000081526004016114b59061483b565b60405180910390fd5b60006114c8610a89565b90506114d8600c54600d54612126565b9150336010600084815260200190815260200160002060006101000a81548173ffffffffffffffffffffffffffffffffffffffff021916908373ffffffffffffffffffffffffffffffffffffffff16021790555080601160008481526020019081526020016000208190555080827fb97343f1f2afc4959f818046ccae28fd7b05fcd2b7a7dc651cbb52a096cae03560405160405180910390a35090565b61160c8160405160240161158a91906146fe565b6040516020818303038152906040527fe05f48d1000000000000000000000000000000000000000000000000000000007bffffffffffffffffffffffffffffffffffffffffffffffffffffffff19166020820180517bffffffffffffffffffffffffffffffffffffffffffffffffffffffff8381831617835250505050612288565b50565b60007f01ffc9a7000000000000000000000000000000000000000000000000000000007bffffffffffffffffffffffffffffffffffffffffffffffffffffffff1916827bffffffffffffffffffffffffffffffffffffffffffffffffffffffff1916149050919050565b60008073ffffffffffffffffffffffffffffffffffffffff166002600084815260200190815260200160002060009054906101000a900473ffffffffffffffffffffffffffffffffffffffff1673ffffffffffffffffffffffffffffffffffffffff1614159050919050565b600033905090565b816004600083815260200190815260200160002060006101000a81548173ffffffffffffffffffffffffffffffffffffffff021916908373ffffffffffffffffffffffffffffffffffffffff160217905550808273ffffffffffffffffffffffffffffffffffffffff1661176083610dcb565b73ffffffffffffffffffffffffffffffffffffffff167f8c5be1e5ebec7d5bd14f71427d1e84f3dd0314c0f7b2291e5b200ac8c7c3b92560405160405180910390a45050565b6060600060017f0000000000000000000000000000000000000000000000000000000000000000846117d89190614d87565b6117e29190614b23565b905061180d7f00000000000000000000000000000000000000000000000000000000000000006122b1565b6118367f00000000000000000000000000000000000000000000000000000000000000006122b1565b604051602001611847929190614543565b604051602081830303815290604052915060005b818110156118d95760008482604051602001611878929190614a56565b6040516020818303038152906040528051906020012060001c9050600061189e8261245e565b905084816040516020016118b392919061447c565b6040516020818303038152906040529450505080806118d190614d2a565b91505061185b565b50816040516020016118eb9190614521565b604051602081830303815290604052915050919050565b606060006040518060400160405280601a81526020017f646174613a696d6167652f7376672b786d6c3b6261736536342c00000000000081525090506000611968846040516020016119549190614465565b60405160208183030381529060405261268c565b90506000828260405160200161197f92919061447c565b6040516020818303038152906040529050809350505050919050565b606060006040518060400160405280601d81526020017f646174613a6170706c69636174696f6e2f6a736f6e3b6261736536342c00000081525090506000611a01846040516020016119ed9190614588565b60405160208183030381529060405261268c565b905060008282604051602001611a1892919061447c565b6040516020818303038152906040529050809350505050919050565b611a3d82611679565b611a7c576040517f08c379a0000000000000000000000000000000000000000000000000000000008152600401611a739061497b565b60405180910390fd5b80600a60008481526020019081526020016000209080519060200190611aa3929190613374565b505050565b6000611ab382611679565b611af2576040517f08c379a0000000000000000000000000000000000000000000000000000000008152600401611ae99061485b565b60405180910390fd5b6000611afd83610dcb565b90508073ffffffffffffffffffffffffffffffffffffffff168473ffffffffffffffffffffffffffffffffffffffff161480611b6c57508373ffffffffffffffffffffffffffffffffffffffff16611b54846108ec565b73ffffffffffffffffffffffffffffffffffffffff16145b80611b7d5750611b7c81856113de565b5b91505092915050565b8273ffffffffffffffffffffffffffffffffffffffff16611ba682610dcb565b73ffffffffffffffffffffffffffffffffffffffff1614611bfc576040517f08c379a0000000000000000000000000000000000000000000000000000000008152600401611bf3906147bb565b60405180910390fd5b600073ffffffffffffffffffffffffffffffffffffffff168273ffffffffffffffffffffffffffffffffffffffff161415611c6c576040517f08c379a0000000000000000000000000000000000000000000000000000000008152600401611c639061481b565b60405180910390fd5b611c786000838361282b565b611c836000826116ed565b6001600360008573ffffffffffffffffffffffffffffffffffffffff1673ffffffffffffffffffffffffffffffffffffffff1681526020019081526020016000206000828254611cd39190614c04565b925050819055506001600360008473ffffffffffffffffffffffffffffffffffffffff1673ffffffffffffffffffffffffffffffffffffffff1681526020019081526020016000206000828254611d2a9190614b23565b92505081905550816002600083815260200190815260200160002060006101000a81548173ffffffffffffffffffffffffffffffffffffffff021916908373ffffffffffffffffffffffffffffffffffffffff160217905550808273ffffffffffffffffffffffffffffffffffffffff168473ffffffffffffffffffffffffffffffffffffffff167fddf252ad1be2c89b69c2b068fc378daa952ba7f163c4a11628f55a4df523b3ef60405160405180910390a4611dea60008383612934565b505050565b60006010600084815260200190815260200160002060009054906101000a900473ffffffffffffffffffffffffffffffffffffffff169050600060116000858152602001908152602001600020549050611e498282612939565b826012600083815260200190815260200160002081905550807faad5362ce528ed941024b95d4c18dfd49b8503e1f586a5c353631d98c2af41b784604051611e919190614a3b565b60405180910390a250505050565b8173ffffffffffffffffffffffffffffffffffffffff168373ffffffffffffffffffffffffffffffffffffffff161415611f0e576040517f08c379a0000000000000000000000000000000000000000000000000000000008152600401611f059061487b565b60405180910390fd5b80600560008573ffffffffffffffffffffffffffffffffffffffff1673ffffffffffffffffffffffffffffffffffffffff16815260200190815260200160002060008473ffffffffffffffffffffffffffffffffffffffff1673ffffffffffffffffffffffffffffffffffffffff16815260200190815260200160002060006101000a81548160ff0219169083151502179055508173ffffffffffffffffffffffffffffffffffffffff168373ffffffffffffffffffffffffffffffffffffffff167f17307eab39ab6107e8899845ad3d59bd9653f200f220920489ca2b5937696c3183604051611fff919061465a565b60405180910390a3505050565b612017848484611b86565b61202384848484612957565b612062576040517f08c379a00000000000000000000000000000000000000000000000000000000081526004016120599061477b565b60405180910390fd5b50505050565b606060405180602001604052806000815250905090565b606061208a82611679565b6120c9576040517f08c379a00000000000000000000000000000000000000000000000000000000081526004016120c09061499b565b60405180910390fd5b60006120d3612068565b905060008151116120f3576040518060200160405280600081525061211e565b806120fd846122b1565b60405160200161210e92919061447c565b6040516020818303038152906040525b915050919050565b60007f000000000000000000000000000000000000000000000000000000000000000073ffffffffffffffffffffffffffffffffffffffff16634000aea07f00000000000000000000000000000000000000000000000000000000000000008486600060405160200161219a929190614690565b6040516020818303038152906040526040518463ffffffff1660e01b81526004016121c79392919061461c565b602060405180830381600087803b1580156121e157600080fd5b505af11580156121f5573d6000803e3d6000fd5b505050506040513d601f19601f8201168201806040525081019061221991906136b9565b50600061223c84600030600b600089815260200190815260200160002054612aee565b90506001600b60008681526020019081526020016000205461225e9190614b23565b600b60008681526020019081526020016000208190555061227f8482612b2a565b91505092915050565b60008151905060006a636f6e736f6c652e6c6f679050602083016000808483855afa5050505050565b606060008214156122f9576040518060400160405280600181526020017f30000000000000000000000000000000000000000000000000000000000000008152509050612459565b600082905060005b6000821461232b57808061231490614d2a565b915050600a826123249190614b79565b9150612301565b60008167ffffffffffffffff81111561236d577f4e487b7100000000000000000000000000000000000000000000000000000000600052604160045260246000fd5b6040519080825280601f01601f19166020018201604052801561239f5781602001600182028036833780820191505090505b5090505b60008514612452576001826123b89190614c04565b9150600a856123c79190614d87565b60306123d39190614b23565b60f81b81838151811061240f577f4e487b7100000000000000000000000000000000000000000000000000000000600052603260045260246000fd5b60200101907effffffffffffffffffffffffffffffffffffffffffffffffffffffffffffff1916908160001a905350600a8561244b9190614b79565b94506123a3565b8093505050505b919050565b6060600060017f0000000000000000000000000000000000000000000000000000000000000000846124909190614d87565b61249a9190614b23565b90506040518060400160405280600981526020017f3c7061746820643d270000000000000000000000000000000000000000000000815250915060005b8181101561258057600084827f000000000000000000000000000000000000000000000000000000000000000061250e9190614b23565b60405160200161251f929190614a56565b6040516020818303038152906040528051906020012060001c9050600061254582612b5d565b9050848160405160200161255a92919061447c565b60405160208183030381529060405294505050808061257890614d2a565b9150506124d7565b506000600f8080549050856125959190614d87565b815481106125cc577f4e487b7100000000000000000000000000000000000000000000000000000000600052603260045260246000fd5b9060005260206000200180546125e190614cf8565b80601f016020809104026020016040519081016040528092919081815260200182805461260d90614cf8565b801561265a5780601f1061262f5761010080835404028352916020019161265a565b820191906000526020600020905b81548152906001019060200180831161263d57829003601f168201915b5050505050905082816040516020016126749291906144e7565b60405160208183030381529060405292505050919050565b60606000825114156126af57604051806020016040528060008152509050612826565b6000604051806060016040528060408152602001614ef960409139905060006003600285516126de9190614b23565b6126e89190614b79565b60046126f49190614baa565b905060006020826127059190614b23565b67ffffffffffffffff811115612744577f4e487b7100000000000000000000000000000000000000000000000000000000600052604160045260246000fd5b6040519080825280601f01601f1916602001820160405280156127765781602001600182028036833780820191505090505b509050818152600183018586518101602084015b818310156127e5576003830192508251603f8160121c168501518253600182019150603f81600c1c168501518253600182019150603f8160061c168501518253600182019150603f811685015182536001820191505061278a565b6003895106600181146127ff576002811461280f5761281a565b613d3d60f01b600283035261281a565b603d60f81b60018303525b50505050508093505050505b919050565b600073ffffffffffffffffffffffffffffffffffffffff168373ffffffffffffffffffffffffffffffffffffffff16141561286e5761286981612d88565b6128ad565b8173ffffffffffffffffffffffffffffffffffffffff168373ffffffffffffffffffffffffffffffffffffffff16146128ac576128ab8382612dd1565b5b5b600073ffffffffffffffffffffffffffffffffffffffff168273ffffffffffffffffffffffffffffffffffffffff1614156128f0576128eb81612f3e565b61292f565b8273ffffffffffffffffffffffffffffffffffffffff168273ffffffffffffffffffffffffffffffffffffffff161461292e5761292d8282613081565b5b5b505050565b505050565b612953828260405180602001604052806000815250613100565b5050565b60006129788473ffffffffffffffffffffffffffffffffffffffff1661315b565b15612ae1578373ffffffffffffffffffffffffffffffffffffffff1663150b7a026129a16116e5565b8786866040518563ffffffff1660e01b81526004016129c394939291906145d0565b602060405180830381600087803b1580156129dd57600080fd5b505af1925050508015612a0e57506040513d601f19601f82011682018060405250810190612a0b9190613747565b60015b612a91573d8060008114612a3e576040519150601f19603f3d011682016040523d82523d6000602084013e612a43565b606091505b50600081511415612a89576040517f08c379a0000000000000000000000000000000000000000000000000000000008152600401612a809061477b565b60405180910390fd5b805181602001fd5b63150b7a0260e01b7bffffffffffffffffffffffffffffffffffffffffffffffffffffffff1916817bffffffffffffffffffffffffffffffffffffffffffffffffffffffff191614915050612ae6565b600190505b949350505050565b600084848484604051602001612b0794939291906146b9565b6040516020818303038152906040528051906020012060001c9050949350505050565b60008282604051602001612b3f929190614439565b60405160208183030381529060405280519060200120905092915050565b6060600e808054905083612b719190614d87565b81548110612ba8577f4e487b7100000000000000000000000000000000000000000000000000000000600052603260045260246000fd5b906000526020600020018054612bbd90614cf8565b80601f0160208091040260200160405190810160405280929190818152602001828054612be990614cf8565b8015612c365780601f10612c0b57610100808354040283529160200191612c36565b820191906000526020600020905b815481529060010190602001808311612c1957829003601f168201915b5050505050905060007f00000000000000000000000000000000000000000000000000000000000000008360027f0000000000000000000000000000000000000000000000000000000000000000612c8e9190614baa565b604051602001612c9f929190614a56565b6040516020818303038152906040528051906020012060001c612cc29190614d87565b905060007f00000000000000000000000000000000000000000000000000000000000000008460037f0000000000000000000000000000000000000000000000000000000000000000612d159190614baa565b604051602001612d26929190614a56565b6040516020818303038152906040528051906020012060001c612d499190614d87565b905082612d55836122b1565b612d5e836122b1565b604051602001612d70939291906144a0565b60405160208183030381529060405292505050919050565b6008805490506009600083815260200190815260200160002081905550600881908060018154018082558091505060019003906000526020600020016000909190919091505550565b60006001612dde84610e7d565b612de89190614c04565b9050600060076000848152602001908152602001600020549050818114612ecd576000600660008673ffffffffffffffffffffffffffffffffffffffff1673ffffffffffffffffffffffffffffffffffffffff168152602001908152602001600020600084815260200190815260200160002054905080600660008773ffffffffffffffffffffffffffffffffffffffff1673ffffffffffffffffffffffffffffffffffffffff168152602001908152602001600020600084815260200190815260200160002081905550836007600083815260200190815260200160002081905550505b6007600084815260200190815260200160002060009055600660008573ffffffffffffffffffffffffffffffffffffffff1673ffffffffffffffffffffffffffffffffffffffff16815260200190815260200160002060008381526020019081526020016000206000905550505050565b60006001600880549050612f529190614c04565b9050600060096000848152602001908152602001600020549050600060088381548110612fa8577f4e487b7100000000000000000000000000000000000000000000000000000000600052603260045260246000fd5b906000526020600020015490508060088381548110612ff0577f4e487b7100000000000000000000000000000000000000000000000000000000600052603260045260246000fd5b906000526020600020018190555081600960008381526020019081526020016000208190555060096000858152602001908152602001600020600090556008805480613065577f4e487b7100000000000000000000000000000000000000000000000000000000600052603160045260246000fd5b6001900381819060005260206000200160009055905550505050565b600061308c83610e7d565b905081600660008573ffffffffffffffffffffffffffffffffffffffff1673ffffffffffffffffffffffffffffffffffffffff168152602001908152602001600020600083815260200190815260200160002081905550806007600084815260200190815260200160002081905550505050565b61310a838361319a565b6131176000848484612957565b613156576040517f08c379a000000000000000000000000000000000000000000000000000000000815260040161314d9061477b565b60405180910390fd5b505050565b6000808273ffffffffffffffffffffffffffffffffffffffff16803b806020016040519081016040528181526000908060200190933c51119050919050565b600073ffffffffffffffffffffffffffffffffffffffff168273ffffffffffffffffffffffffffffffffffffffff16141561320a576040517f08c379a00000000000000000000000000000000000000000000000000000000081526004016132019061493b565b60405180910390fd5b61321381611679565b15613253576040517f08c379a000000000000000000000000000000000000000000000000000000000815260040161324a906147db565b60405180910390fd5b61325f6000838361282b565b6001600360008473ffffffffffffffffffffffffffffffffffffffff1673ffffffffffffffffffffffffffffffffffffffff16815260200190815260200160002060008282546132af9190614b23565b92505081905550816002600083815260200190815260200160002060006101000a81548173ffffffffffffffffffffffffffffffffffffffff021916908373ffffffffffffffffffffffffffffffffffffffff160217905550808273ffffffffffffffffffffffffffffffffffffffff16600073ffffffffffffffffffffffffffffffffffffffff167fddf252ad1be2c89b69c2b068fc378daa952ba7f163c4a11628f55a4df523b3ef60405160405180910390a461337060008383612934565b5050565b82805461338090614cf8565b90600052602060002090601f0160209004810192826133a257600085556133e9565b82601f106133bb57805160ff19168380011785556133e9565b828001600101855582156133e9579182015b828111156133e85782518255916020019190600101906133cd565b5b5090506133f691906133fa565b5090565b5b808211156134135760008160009055506001016133fb565b5090565b600061342a61342584614ab0565b614a7f565b90508281526020810184848401111561344257600080fd5b61344d848285614cb6565b509392505050565b60008135905061346481614e85565b92915050565b60008135905061347981614e9c565b92915050565b60008151905061348e81614e9c565b92915050565b6000813590506134a381614eb3565b92915050565b6000813590506134b881614eca565b92915050565b6000815190506134cd81614eca565b92915050565b600082601f8301126134e457600080fd5b81356134f4848260208601613417565b91505092915050565b60008135905061350c81614ee1565b92915050565b60006020828403121561352457600080fd5b600061353284828501613455565b91505092915050565b6000806040838503121561354e57600080fd5b600061355c85828601613455565b925050602061356d85828601613455565b9150509250929050565b60008060006060848603121561358c57600080fd5b600061359a86828701613455565b93505060206135ab86828701613455565b92505060406135bc868287016134fd565b9150509250925092565b600080600080608085870312156135dc57600080fd5b60006135ea87828801613455565b94505060206135fb87828801613455565b935050604061360c878288016134fd565b925050606085013567ffffffffffffffff81111561362957600080fd5b613635878288016134d3565b91505092959194509250565b6000806040838503121561365457600080fd5b600061366285828601613455565b92505060206136738582860161346a565b9150509250929050565b6000806040838503121561369057600080fd5b600061369e85828601613455565b92505060206136af858286016134fd565b9150509250929050565b6000602082840312156136cb57600080fd5b60006136d98482850161347f565b91505092915050565b600080604083850312156136f557600080fd5b600061370385828601613494565b9250506020613714858286016134fd565b9150509250929050565b60006020828403121561373057600080fd5b600061373e848285016134a9565b91505092915050565b60006020828403121561375957600080fd5b6000613767848285016134be565b91505092915050565b60006020828403121561378257600080fd5b6000613790848285016134fd565b91505092915050565b6137a281614c38565b82525050565b6137b181614c4a565b82525050565b6137c081614c56565b82525050565b6137d76137d282614c56565b614d73565b82525050565b6137e681614c60565b82525050565b60006137f782614ae0565b6138018185614af6565b9350613811818560208601614cc5565b61381a81614e74565b840191505092915050565b600061383082614aeb565b61383a8185614b07565b935061384a818560208601614cc5565b61385381614e74565b840191505092915050565b600061386982614aeb565b6138738185614b18565b9350613883818560208601614cc5565b80840191505092915050565b600061389c602683614b07565b91507f4552433732313a2062616c616e636520717565727920666f72207a65726f206160008301527f64647265737300000000000000000000000000000000000000000000000000006020830152604082019050919050565b6000613902602b83614b07565b91507f455243373231456e756d657261626c653a206f776e657220696e646578206f7560008301527f74206f6620626f756e64730000000000000000000000000000000000000000006020830152604082019050919050565b6000613968603283614b07565b91507f4552433732313a207472616e7366657220746f206e6f6e20455243373231526560008301527f63656976657220696d706c656d656e74657200000000000000000000000000006020830152604082019050919050565b60006139ce602383614b07565b91507f5356474e46543a20546f6b656e496420686173206e6f74206265656e206d696e60008301527f74656400000000000000000000000000000000000000000000000000000000006020830152604082019050919050565b6000613a34602583614b07565b91507f4552433732313a207472616e736665722066726f6d20696e636f72726563742060008301527f6f776e65720000000000000000000000000000000000000000000000000000006020830152604082019050919050565b6000613a9a601c83614b07565b91507f4552433732313a20746f6b656e20616c7265616479206d696e746564000000006000830152602082019050919050565b6000613ada602483614b07565b91507f5356474e46543a20746f6b656e55524920697320616c726561647920616c6c2060008301527f73657421000000000000000000000000000000000000000000000000000000006020830152604082019050919050565b6000613b40602483614b07565b91507f4552433732313a207472616e7366657220746f20746865207a65726f2061646460008301527f72657373000000000000000000000000000000000000000000000000000000006020830152604082019050919050565b6000613ba6601f83614b07565b91507f45746865722076616c75652073656e74206973206e6f7420636f7272656374006000830152602082019050919050565b6000613be6602c83614b07565b91507f4552433732313a206f70657261746f7220717565727920666f72206e6f6e657860008301527f697374656e7420746f6b656e00000000000000000000000000000000000000006020830152604082019050919050565b6000613c4c600183614b18565b91507f20000000000000000000000000000000000000000000000000000000000000006000830152600182019050919050565b6000613c8c600383614b18565b91507f272f3e00000000000000000000000000000000000000000000000000000000006000830152600382019050919050565b6000613ccc601983614b07565b91507f4552433732313a20617070726f766520746f2063616c6c6564000000000000006000830152602082019050919050565b6000613d0c603183614b07565b91507f4552433732313a207472616e736665722063616c6c6572206973206e6f74206f60008301527f776e6572206e6f7420617070726f7665640000000000000000000000000000006020830152604082019050919050565b6000613d72603883614b07565b91507f4552433732313a20617070726f76652063616c6c6572206973206e6f74206f7760008301527f6e6572206e6f7220617070726f76656420666f7220616c6c00000000000000006020830152604082019050919050565b6000613dd8602983614b07565b91507f4552433732313a206f776e657220717565727920666f72206e6f6e657869737460008301527f656e7420746f6b656e00000000000000000000000000000000000000000000006020830152604082019050919050565b6000613e3e603283614b07565b91507f45524337323155524953746f726167653a2055524920717565727920666f722060008301527f6e6f6e206578697374656e7420746f6b656e00000000000000000000000000006020830152604082019050919050565b6000613ea4600283614b18565b91507f227d0000000000000000000000000000000000000000000000000000000000006000830152600282019050919050565b6000613ee4602683614b07565b91507f5356474e46543a204e65656420746f207761697420666f7220436861696e4c6960008301527f6e6b2056524600000000000000000000000000000000000000000000000000006020830152604082019050919050565b6000613f4a602083614b07565b91507f4552433732313a206d696e7420746f20746865207a65726f20616464726573736000830152602082019050919050565b6000613f8a602c83614b07565b91507f4552433732313a20617070726f76656420717565727920666f72206e6f6e657860008301527f697374656e7420746f6b656e00000000000000000000000000000000000000006020830152604082019050919050565b6000613ff0602b83614b07565b91507f45524337323153746f726167653a2055524920736574206f66206e6f6e65786960008301527f7374656e7420746f6b656e0000000000000000000000000000000000000000006020830152604082019050919050565b6000614056603083614b18565b91507f3c73766720786d6c6e733d27687474703a2f2f7777772e77332e6f72672f323060008301527f30302f73766727206865696768743d27000000000000000000000000000000006020830152603082019050919050565b60006140bc602f83614b07565b91507f4552433732314d657461646174613a2055524920717565727920666f72206e6f60008301527f6e6578697374656e7420746f6b656e00000000000000000000000000000000006020830152604082019050919050565b6000614122601883614b18565b91507f272066696c6c3d276f72616e676527207374726f6b653d2700000000000000006000830152601882019050919050565b6000614162601f83614b07565b91507f4f6e6c7920565246436f6f7264696e61746f722063616e2066756c66696c6c006000830152602082019050919050565b60006141a2602183614b07565b91507f4552433732313a20617070726f76616c20746f2063757272656e74206f776e6560008301527f72000000000000000000000000000000000000000000000000000000000000006020830152604082019050919050565b6000614208603183614b07565b91507f4552433732313a207472616e736665722063616c6c6572206973206e6f74206f60008301527f776e6572206e6f7220617070726f7665640000000000000000000000000000006020830152604082019050919050565b600061426e602c83614b07565b91507f455243373231456e756d657261626c653a20676c6f62616c20696e646578206f60008301527f7574206f6620626f756e647300000000000000000000000000000000000000006020830152604082019050919050565b60006142d4600283614b18565b91507f273e0000000000000000000000000000000000000000000000000000000000006000830152600282019050919050565b6000614314604d83614b18565b91507f7b226e616d65223a20224f4e434841494e204e4654222c20226465736372697060008301527f74696f6e223a20227b646573637d222c202261747472696275746573223a202260208301527f222c2022696d616765223a2022000000000000000000000000000000000000006040830152604d82019050919050565b60006143a0600683614b18565b91507f3c2f7376673e00000000000000000000000000000000000000000000000000006000830152600682019050919050565b60006143e0600983614b18565b91507f272077696474683d2700000000000000000000000000000000000000000000006000830152600982019050919050565b61441c81614cac565b82525050565b61443361442e82614cac565b614d7d565b82525050565b600061444582856137c6565b6020820191506144558284614422565b6020820191508190509392505050565b6000614471828461385e565b915081905092915050565b6000614488828561385e565b9150614494828461385e565b91508190509392505050565b60006144ac828661385e565b91506144b782613c3f565b91506144c3828561385e565b91506144ce82613c3f565b91506144da828461385e565b9150819050949350505050565b60006144f3828561385e565b91506144fe82614115565b915061450a828461385e565b915061451582613c7f565b91508190509392505050565b600061452d828461385e565b915061453882614393565b915081905092915050565b600061454e82614049565b915061455a828561385e565b9150614565826143d3565b9150614571828461385e565b915061457c826142c7565b91508190509392505050565b600061459382614307565b915061459f828461385e565b91506145aa82613e97565b915081905092915050565b60006020820190506145ca6000830184613799565b92915050565b60006080820190506145e56000830187613799565b6145f26020830186613799565b6145ff6040830185614413565b818103606083015261461181846137ec565b905095945050505050565b60006060820190506146316000830186613799565b61463e6020830185614413565b818103604083015261465081846137ec565b9050949350505050565b600060208201905061466f60008301846137a8565b92915050565b600060208201905061468a60008301846137b7565b92915050565b60006040820190506146a560008301856137b7565b6146b26020830184614413565b9392505050565b60006080820190506146ce60008301876137b7565b6146db6020830186614413565b6146e86040830185613799565b6146f56060830184614413565b95945050505050565b600060208201905061471360008301846137dd565b92915050565b600060208201905081810360008301526147338184613825565b905092915050565b600060208201905081810360008301526147548161388f565b9050919050565b60006020820190508181036000830152614774816138f5565b9050919050565b600060208201905081810360008301526147948161395b565b9050919050565b600060208201905081810360008301526147b4816139c1565b9050919050565b600060208201905081810360008301526147d481613a27565b9050919050565b600060208201905081810360008301526147f481613a8d565b9050919050565b6000602082019050818103600083015261481481613acd565b9050919050565b6000602082019050818103600083015261483481613b33565b9050919050565b6000602082019050818103600083015261485481613b99565b9050919050565b6000602082019050818103600083015261487481613bd9565b9050919050565b6000602082019050818103600083015261489481613cbf565b9050919050565b600060208201905081810360008301526148b481613cff565b9050919050565b600060208201905081810360008301526148d481613d65565b9050919050565b600060208201905081810360008301526148f481613dcb565b9050919050565b6000602082019050818103600083015261491481613e31565b9050919050565b6000602082019050818103600083015261493481613ed7565b9050919050565b6000602082019050818103600083015261495481613f3d565b9050919050565b6000602082019050818103600083015261497481613f7d565b9050919050565b6000602082019050818103600083015261499481613fe3565b9050919050565b600060208201905081810360008301526149b4816140af565b9050919050565b600060208201905081810360008301526149d481614155565b9050919050565b600060208201905081810360008301526149f481614195565b9050919050565b60006020820190508181036000830152614a14816141fb565b9050919050565b60006020820190508181036000830152614a3481614261565b9050919050565b6000602082019050614a506000830184614413565b92915050565b6000604082019050614a6b6000830185614413565b614a786020830184614413565b9392505050565b6000604051905081810181811067ffffffffffffffff82111715614aa657614aa5614e45565b5b8060405250919050565b600067ffffffffffffffff821115614acb57614aca614e45565b5b601f19601f8301169050602081019050919050565b600081519050919050565b600081519050919050565b600082825260208201905092915050565b600082825260208201905092915050565b600081905092915050565b6000614b2e82614cac565b9150614b3983614cac565b9250827fffffffffffffffffffffffffffffffffffffffffffffffffffffffffffffffff03821115614b6e57614b6d614db8565b5b828201905092915050565b6000614b8482614cac565b9150614b8f83614cac565b925082614b9f57614b9e614de7565b5b828204905092915050565b6000614bb582614cac565b9150614bc083614cac565b9250817fffffffffffffffffffffffffffffffffffffffffffffffffffffffffffffffff0483118215151615614bf957614bf8614db8565b5b828202905092915050565b6000614c0f82614cac565b9150614c1a83614cac565b925082821015614c2d57614c2c614db8565b5b828203905092915050565b6000614c4382614c8c565b9050919050565b60008115159050919050565b6000819050919050565b60007fffffffff0000000000000000000000000000000000000000000000000000000082169050919050565b600073ffffffffffffffffffffffffffffffffffffffff82169050919050565b6000819050919050565b82818337600083830152505050565b60005b83811015614ce3578082015181840152602081019050614cc8565b83811115614cf2576000848401525b50505050565b60006002820490506001821680614d1057607f821691505b60208210811415614d2457614d23614e16565b5b50919050565b6000614d3582614cac565b91507fffffffffffffffffffffffffffffffffffffffffffffffffffffffffffffffff821415614d6857614d67614db8565b5b600182019050919050565b6000819050919050565b6000819050919050565b6000614d9282614cac565b9150614d9d83614cac565b925082614dad57614dac614de7565b5b828206905092915050565b7f4e487b7100000000000000000000000000000000000000000000000000000000600052601160045260246000fd5b7f4e487b7100000000000000000000000000000000000000000000000000000000600052601260045260246000fd5b7f4e487b7100000000000000000000000000000000000000000000000000000000600052602260045260246000fd5b7f4e487b7100000000000000000000000000000000000000000000000000000000600052604160045260246000fd5b6000601f19601f8301169050919050565b614e8e81614c38565b8114614e9957600080fd5b50565b614ea581614c4a565b8114614eb057600080fd5b50565b614ebc81614c56565b8114614ec757600080fd5b50565b614ed381614c60565b8114614ede57600080fd5b50565b614eea81614cac565b8114614ef557600080fd5b5056fe4142434445464748494a4b4c4d4e4f505152535455565758595a6162636465666768696a6b6c6d6e6f707172737475767778797a303132333435363738392b2fa2646970667358221220ecabf58851f735cc6236e2cf0f4e44b11390ab9ffbbd5f6b8b7ccd56225458bd64736f6c63430008000033",
  "devdoc": {
    "kind": "dev",
    "methods": {
      "approve(address,uint256)": {
        "details": "See {IERC721-approve}."
      },
      "balanceOf(address)": {
        "details": "See {IERC721-balanceOf}."
      },
      "getApproved(uint256)": {
        "details": "See {IERC721-getApproved}."
      },
      "isApprovedForAll(address,address)": {
        "details": "See {IERC721-isApprovedForAll}."
      },
      "name()": {
        "details": "See {IERC721Metadata-name}."
      },
      "ownerOf(uint256)": {
        "details": "See {IERC721-ownerOf}."
      },
      "safeTransferFrom(address,address,uint256)": {
        "details": "See {IERC721-safeTransferFrom}."
      },
      "safeTransferFrom(address,address,uint256,bytes)": {
        "details": "See {IERC721-safeTransferFrom}."
      },
      "setApprovalForAll(address,bool)": {
        "details": "See {IERC721-setApprovalForAll}."
      },
      "supportsInterface(bytes4)": {
        "details": "See {IERC165-supportsInterface}."
      },
      "symbol()": {
        "details": "See {IERC721Metadata-symbol}."
      },
      "tokenByIndex(uint256)": {
        "details": "See {IERC721Enumerable-tokenByIndex}."
      },
      "tokenOfOwnerByIndex(address,uint256)": {
        "details": "See {IERC721Enumerable-tokenOfOwnerByIndex}."
      },
      "tokenURI(uint256)": {
        "details": "See {IERC721Metadata-tokenURI}."
      },
      "totalSupply()": {
        "details": "See {IERC721Enumerable-totalSupply}."
      },
      "transferFrom(address,address,uint256)": {
        "details": "See {IERC721-transferFrom}."
      }
    },
    "version": 1
  },
  "userdoc": {
    "kind": "user",
    "methods": {},
    "version": 1
  },
  "storageLayout": {
    "storage": [
      {
        "astId": 410,
        "contract": "contracts/SVGNFT.sol:SVGNFT",
        "label": "_name",
        "offset": 0,
        "slot": "0",
        "type": "t_string_storage"
      },
      {
        "astId": 412,
        "contract": "contracts/SVGNFT.sol:SVGNFT",
        "label": "_symbol",
        "offset": 0,
        "slot": "1",
        "type": "t_string_storage"
      },
      {
        "astId": 416,
        "contract": "contracts/SVGNFT.sol:SVGNFT",
        "label": "_owners",
        "offset": 0,
        "slot": "2",
        "type": "t_mapping(t_uint256,t_address)"
      },
      {
        "astId": 420,
        "contract": "contracts/SVGNFT.sol:SVGNFT",
        "label": "_balances",
        "offset": 0,
        "slot": "3",
        "type": "t_mapping(t_address,t_uint256)"
      },
      {
        "astId": 424,
        "contract": "contracts/SVGNFT.sol:SVGNFT",
        "label": "_tokenApprovals",
        "offset": 0,
        "slot": "4",
        "type": "t_mapping(t_uint256,t_address)"
      },
      {
        "astId": 430,
        "contract": "contracts/SVGNFT.sol:SVGNFT",
        "label": "_operatorApprovals",
        "offset": 0,
        "slot": "5",
        "type": "t_mapping(t_address,t_mapping(t_address,t_bool))"
      },
      {
        "astId": 436,
        "contract": "contracts/SVGNFT.sol:SVGNFT",
        "label": "_ownedTokens",
        "offset": 0,
        "slot": "6",
        "type": "t_mapping(t_address,t_mapping(t_uint256,t_uint256))"
      },
      {
        "astId": 440,
        "contract": "contracts/SVGNFT.sol:SVGNFT",
        "label": "_ownedTokensIndex",
        "offset": 0,
        "slot": "7",
        "type": "t_mapping(t_uint256,t_uint256)"
      },
      {
        "astId": 443,
        "contract": "contracts/SVGNFT.sol:SVGNFT",
        "label": "_allTokens",
        "offset": 0,
        "slot": "8",
        "type": "t_array(t_uint256)dyn_storage"
      },
      {
        "astId": 447,
        "contract": "contracts/SVGNFT.sol:SVGNFT",
        "label": "_allTokensIndex",
        "offset": 0,
        "slot": "9",
        "type": "t_mapping(t_uint256,t_uint256)"
      },
      {
        "astId": 1569,
        "contract": "contracts/SVGNFT.sol:SVGNFT",
        "label": "_tokenURIs",
        "offset": 0,
        "slot": "10",
        "type": "t_mapping(t_uint256,t_string_storage)"
      },
      {
        "astId": 79,
        "contract": "contracts/SVGNFT.sol:SVGNFT",
        "label": "nonces",
        "offset": 0,
        "slot": "11",
        "type": "t_mapping(t_bytes32,t_uint256)"
      },
      {
        "astId": 2444,
        "contract": "contracts/SVGNFT.sol:SVGNFT",
        "label": "keyHash",
        "offset": 0,
        "slot": "12",
        "type": "t_bytes32"
      },
      {
        "astId": 2446,
        "contract": "contracts/SVGNFT.sol:SVGNFT",
        "label": "fee",
        "offset": 0,
        "slot": "13",
        "type": "t_uint256"
      },
      {
        "astId": 2455,
        "contract": "contracts/SVGNFT.sol:SVGNFT",
        "label": "pathCommands",
        "offset": 0,
        "slot": "14",
        "type": "t_array(t_string_storage)dyn_storage"
      },
      {
        "astId": 2458,
        "contract": "contracts/SVGNFT.sol:SVGNFT",
        "label": "colors",
        "offset": 0,
        "slot": "15",
        "type": "t_array(t_string_storage)dyn_storage"
      },
      {
        "astId": 2462,
        "contract": "contracts/SVGNFT.sol:SVGNFT",
        "label": "requestIdToSender",
        "offset": 0,
        "slot": "16",
        "type": "t_mapping(t_bytes32,t_address)"
      },
      {
        "astId": 2466,
        "contract": "contracts/SVGNFT.sol:SVGNFT",
        "label": "requestIdToTokenId",
        "offset": 0,
        "slot": "17",
        "type": "t_mapping(t_bytes32,t_uint256)"
      },
      {
        "astId": 2470,
        "contract": "contracts/SVGNFT.sol:SVGNFT",
        "label": "tokenIdToRandomNumber",
        "offset": 0,
        "slot": "18",
        "type": "t_mapping(t_uint256,t_uint256)"
      }
    ],
    "types": {
      "t_address": {
        "encoding": "inplace",
        "label": "address",
        "numberOfBytes": "20"
      },
      "t_array(t_string_storage)dyn_storage": {
        "base": "t_string_storage",
        "encoding": "dynamic_array",
        "label": "string[]",
        "numberOfBytes": "32"
      },
      "t_array(t_uint256)dyn_storage": {
        "base": "t_uint256",
        "encoding": "dynamic_array",
        "label": "uint256[]",
        "numberOfBytes": "32"
      },
      "t_bool": {
        "encoding": "inplace",
        "label": "bool",
        "numberOfBytes": "1"
      },
      "t_bytes32": {
        "encoding": "inplace",
        "label": "bytes32",
        "numberOfBytes": "32"
      },
      "t_mapping(t_address,t_bool)": {
        "encoding": "mapping",
        "key": "t_address",
        "label": "mapping(address => bool)",
        "numberOfBytes": "32",
        "value": "t_bool"
      },
      "t_mapping(t_address,t_mapping(t_address,t_bool))": {
        "encoding": "mapping",
        "key": "t_address",
        "label": "mapping(address => mapping(address => bool))",
        "numberOfBytes": "32",
        "value": "t_mapping(t_address,t_bool)"
      },
      "t_mapping(t_address,t_mapping(t_uint256,t_uint256))": {
        "encoding": "mapping",
        "key": "t_address",
        "label": "mapping(address => mapping(uint256 => uint256))",
        "numberOfBytes": "32",
        "value": "t_mapping(t_uint256,t_uint256)"
      },
      "t_mapping(t_address,t_uint256)": {
        "encoding": "mapping",
        "key": "t_address",
        "label": "mapping(address => uint256)",
        "numberOfBytes": "32",
        "value": "t_uint256"
      },
      "t_mapping(t_bytes32,t_address)": {
        "encoding": "mapping",
        "key": "t_bytes32",
        "label": "mapping(bytes32 => address)",
        "numberOfBytes": "32",
        "value": "t_address"
      },
      "t_mapping(t_bytes32,t_uint256)": {
        "encoding": "mapping",
        "key": "t_bytes32",
        "label": "mapping(bytes32 => uint256)",
        "numberOfBytes": "32",
        "value": "t_uint256"
      },
      "t_mapping(t_uint256,t_address)": {
        "encoding": "mapping",
        "key": "t_uint256",
        "label": "mapping(uint256 => address)",
        "numberOfBytes": "32",
        "value": "t_address"
      },
      "t_mapping(t_uint256,t_string_storage)": {
        "encoding": "mapping",
        "key": "t_uint256",
        "label": "mapping(uint256 => string)",
        "numberOfBytes": "32",
        "value": "t_string_storage"
      },
      "t_mapping(t_uint256,t_uint256)": {
        "encoding": "mapping",
        "key": "t_uint256",
        "label": "mapping(uint256 => uint256)",
        "numberOfBytes": "32",
        "value": "t_uint256"
      },
      "t_string_storage": {
        "encoding": "bytes",
        "label": "string",
        "numberOfBytes": "32"
      },
      "t_uint256": {
        "encoding": "inplace",
        "label": "uint256",
        "numberOfBytes": "32"
      }
    }
  }
}